{
  "transactions": [
    {
      "hash": "0x504368a5daef66e42880cc583f0fdf2918009bc8451552db09899617bce66c04",
      "transactionType": "CALL",
      "contractName": null,
      "contractAddress": "0x558e92236f85bb4e8a63ec0d5bf9d34087eab744",
      "function": "propose(address[],uint256[],bytes[],string)",
      "arguments": [
        "[0x537CaE97C588C6DA64A385817F3D3563DDCf0591]",
        "[0]",
        "[0x2653a06f0000000000000000000000000000000000000000000000000000000000000000]",
        "{\\\"description\\\":\\\"## TL;DR\\\\n\\\\nThis proposal removes the temporary permissions granted to the Mento Labs multisig over the Locking contract, which were established during Celo\\'s L2 transition through MGP03. This also marks the first governance proposal after the successful L2 transition and serves as a confirmation of the governance system\\'s functionality.\\\\n\\\\n### Summary\\\\n\\\\nFollowing the successful transition of Celo to L2 and the subsequent verification of the Locking contract\\'s proper functionality with the new block times, it is time to remove the temporary administrative rights granted to the Mento Labs multisig through MGP03. All necessary parameter adjustments have been completed and tested, confirming the contract\\'s compatibility with the new L2 environment.\\\\n\\\\nThe Locking contract has been operating as expected since the L2 transition, with locks functioning correctly under the new 1-second block time. Our testing has verified that:\\\\n- Existing locks maintained their integrity during the transition\\\\n- New locks are being created successfully\\\\n- The adjusted parameters are working as intended with the new block time\\\\n\\\\nThis proposal represents a milestone as it will be the first governance proposal executed after the L2 transition, providing a validation of the governance system\\'s functionality in the new environment.\\\\n\\\\n### Transaction Details\\\\n\\\\nThis proposal consists of one transaction:\\\\n\\\\n**TX#0:** call the `setMentoLabsMultisig(address _mentoLabsMultisig)` function with a zero address\\\\n\\\\n- Target: Locking Proxy contract\\\\n- Function: `setMentoLabsMultisig(address)`\\\\n- Parameter: `0x0000000000000000000000000000000000000000`\\\\n\\\\n**Relevant Addresses for verification**\\\\n\\\\n- Locking Proxy\\\\n  - [_0x001Bb66636dCd149A1A2bA8C50E408BdDd80279C_](https://celoscan.io/address/0x001Bb66636dCd149A1A2bA8C50E408BdDd80279C)\\\\n\\\\n### Expected Outcome\\\\n\\\\nUpon successful execution of this proposal:\\\\n1. The Mento Labs multisig will no longer have administrative rights over the Locking contract\\\\n2. The governance system will be confirmed to be functioning correctly in the post-L2 environment\\\\n\\\\nThis completes the temporary administrative arrangements that were put in place for the L2 transition and returns control to the governance system.\\\",\\\"title\\\":\\\"MGP-6: Remove Mento Labs multisig on Locking contract-1743414374\\\"}"
      ],
      "transaction": {
        "from": "0x56fd3f2bee130e9867942d0f463a16fbe49b8d81",
        "to": "0x558e92236f85bb4e8a63ec0d5bf9d34087eab744",
        "gas": "0xf97da",
        "value": "0x0",
        "input": "0x7d5e81e2000000000000000000000000000000000000000000000000000000000000008000000000000000000000000000000000000000000000000000000000000000c0000000000000000000000000000000000000000000000000000000000000010000000000000000000000000000000000000000000000000000000000000001a00000000000000000000000000000000000000000000000000000000000000001000000000000000000000000537cae97c588c6da64a385817f3d3563ddcf0591000000000000000000000000000000000000000000000000000000000000000100000000000000000000000000000000000000000000000000000000000000000000000000000000000000000000000000000000000000000000000000000001000000000000000000000000000000000000000000000000000000000000002000000000000000000000000000000000000000000000000000000000000000242653a06f00000000000000000000000000000000000000000000000000000000000000000000000000000000000000000000000000000000000000000000000000000000000000000000000000000000000000000000000000000000000009227b226465736372697074696f6e223a22232320544c3b44525c6e5c6e546869732070726f706f73616c2072656d6f766573207468652074656d706f72617279207065726d697373696f6e73206772616e74656420746f20746865204d656e746f204c616273206d756c7469736967206f76657220746865204c6f636b696e6720636f6e74726163742c20776869636820776572652065737461626c697368656420647572696e672043656c6f2773204c32207472616e736974696f6e207468726f756768204d475030332e205468697320616c736f206d61726b732074686520666972737420676f7665726e616e63652070726f706f73616c20616674657220746865207375636365737366756c204c32207472616e736974696f6e20616e6420736572766573206173206120636f6e6669726d6174696f6e206f662074686520676f7665726e616e63652073797374656d27732066756e6374696f6e616c6974792e5c6e5c6e2323232053756d6d6172795c6e5c6e466f6c6c6f77696e6720746865207375636365737366756c207472616e736974696f6e206f662043656c6f20746f204c3220616e64207468652073756273657175656e7420766572696669636174696f6e206f6620746865204c6f636b696e6720636f6e747261637427732070726f7065722066756e6374696f6e616c697479207769746820746865206e657720626c6f636b2074696d65732c2069742069732074696d6520746f2072656d6f7665207468652074656d706f726172792061646d696e69737472617469766520726967687473206772616e74656420746f20746865204d656e746f204c616273206d756c7469736967207468726f756768204d475030332e20416c6c206e656365737361727920706172616d657465722061646a7573746d656e74732068617665206265656e20636f6d706c6574656420616e64207465737465642c20636f6e6669726d696e672074686520636f6e7472616374277320636f6d7061746962696c697479207769746820746865206e6577204c3220656e7669726f6e6d656e742e5c6e5c6e546865204c6f636b696e6720636f6e747261637420686173206265656e206f7065726174696e672061732065787065637465642073696e636520746865204c32207472616e736974696f6e2c2077697468206c6f636b732066756e6374696f6e696e6720636f72726563746c7920756e64657220746865206e657720312d7365636f6e6420626c6f636b2074696d652e204f75722074657374696e672068617320766572696669656420746861743a5c6e2d204578697374696e67206c6f636b73206d61696e7461696e656420746865697220696e7465677269747920647572696e6720746865207472616e736974696f6e5c6e2d204e6577206c6f636b7320617265206265696e672063726561746564207375636365737366756c6c795c6e2d205468652061646a757374656420706172616d65746572732061726520776f726b696e6720617320696e74656e646564207769746820746865206e657720626c6f636b2074696d655c6e5c6e546869732070726f706f73616c20726570726573656e74732061206d696c6573746f6e652061732069742077696c6c2062652074686520666972737420676f7665726e616e63652070726f706f73616c20657865637574656420616674657220746865204c32207472616e736974696f6e2c2070726f766964696e6720612076616c69646174696f6e206f662074686520676f7665726e616e63652073797374656d27732066756e6374696f6e616c69747920696e20746865206e657720656e7669726f6e6d656e742e5c6e5c6e232323205472616e73616374696f6e2044657461696c735c6e5c6e546869732070726f706f73616c20636f6e7369737473206f66206f6e65207472616e73616374696f6e3a5c6e5c6e2a2a545823303a2a2a2063616c6c2074686520607365744d656e746f4c6162734d756c74697369672861646472657373205f6d656e746f4c6162734d756c746973696729602066756e6374696f6e20776974682061207a65726f20616464726573735c6e5c6e2d205461726765743a204c6f636b696e672050726f787920636f6e74726163745c6e2d2046756e6374696f6e3a20607365744d656e746f4c6162734d756c7469736967286164647265737329605c6e2d20506172616d657465723a2060307830303030303030303030303030303030303030303030303030303030303030303030303030303030605c6e5c6e2a2a52656c6576616e742041646472657373657320666f7220766572696669636174696f6e2a2a5c6e5c6e2d204c6f636b696e672050726f78795c6e20202d205b5f3078303031426236363633366443643134394131413262413843353045343038426444643830323739435f5d2868747470733a2f2f63656c6f7363616e2e696f2f616464726573732f307830303142623636363336644364313439413141326241384335304534303842644464383032373943295c6e5c6e232323204578706563746564204f7574636f6d655c6e5c6e55706f6e207375636365737366756c20657865637574696f6e206f6620746869732070726f706f73616c3a5c6e312e20546865204d656e746f204c616273206d756c74697369672077696c6c206e6f206c6f6e67657220686176652061646d696e69737472617469766520726967687473206f76657220746865204c6f636b696e6720636f6e74726163745c6e322e2054686520676f7665726e616e63652073797374656d2077696c6c20626520636f6e6669726d656420746f2062652066756e6374696f6e696e6720636f72726563746c7920696e2074686520706f73742d4c3220656e7669726f6e6d656e745c6e5c6e5468697320636f6d706c65746573207468652074656d706f726172792061646d696e69737472617469766520617272616e67656d656e7473207468617420776572652070757420696e20706c61636520666f7220746865204c32207472616e736974696f6e20616e642072657475726e7320636f6e74726f6c20746f2074686520676f7665726e616e63652073797374656d2e222c227469746c65223a224d47502d363a2052656d6f7665204d656e746f204c616273206d756c7469736967206f6e204c6f636b696e6720636f6e74726163742d31373433343134333734227d000000000000000000000000000000000000000000000000000000000000",
        "nonce": "0xc5b",
        "chainId": "0xaef3"
      },
      "additionalContracts": [],
      "isFixedGasLimit": false
    }
  ],
  "receipts": [
    {
      "status": "0x1",
      "cumulativeGasUsed": "0xb5467",
      "logs": [
        {
          "address": "0x558e92236f85bb4e8a63ec0d5bf9d34087eab744",
          "topics": [
            "0x7d84a6263ae0d98d3329bd7b46bb4e8d6f98cd35a7adb45c274c8b7fd5ebd5e0"
          ],
          "data": "0x2759c7a9fa4082efa080d07ebfdcf5f3a3c44d30bf65169e9d3142692d58a0dd00000000000000000000000056fd3f2bee130e9867942d0f463a16fbe49b8d810000000000000000000000000000000000000000000000000000000000000120000000000000000000000000000000000000000000000000000000000000016000000000000000000000000000000000000000000000000000000000000001a00000000000000000000000000000000000000000000000000000000000000200000000000000000000000000000000000000000000000000000000000287dfd6000000000000000000000000000000000000000000000000000000000287e10200000000000000000000000000000000000000000000000000000000000002a00000000000000000000000000000000000000000000000000000000000000001000000000000000000000000537cae97c588c6da64a385817f3d3563ddcf0591000000000000000000000000000000000000000000000000000000000000000100000000000000000000000000000000000000000000000000000000000000000000000000000000000000000000000000000000000000000000000000000001000000000000000000000000000000000000000000000000000000000000002000000000000000000000000000000000000000000000000000000000000000000000000000000000000000000000000000000000000000000000000000000001000000000000000000000000000000000000000000000000000000000000002000000000000000000000000000000000000000000000000000000000000000242653a06f00000000000000000000000000000000000000000000000000000000000000000000000000000000000000000000000000000000000000000000000000000000000000000000000000000000000000000000000000000000000009227b226465736372697074696f6e223a22232320544c3b44525c6e5c6e546869732070726f706f73616c2072656d6f766573207468652074656d706f72617279207065726d697373696f6e73206772616e74656420746f20746865204d656e746f204c616273206d756c7469736967206f76657220746865204c6f636b696e6720636f6e74726163742c20776869636820776572652065737461626c697368656420647572696e672043656c6f2773204c32207472616e736974696f6e207468726f756768204d475030332e205468697320616c736f206d61726b732074686520666972737420676f7665726e616e63652070726f706f73616c20616674657220746865207375636365737366756c204c32207472616e736974696f6e20616e6420736572766573206173206120636f6e6669726d6174696f6e206f662074686520676f7665726e616e63652073797374656d27732066756e6374696f6e616c6974792e5c6e5c6e2323232053756d6d6172795c6e5c6e466f6c6c6f77696e6720746865207375636365737366756c207472616e736974696f6e206f662043656c6f20746f204c3220616e64207468652073756273657175656e7420766572696669636174696f6e206f6620746865204c6f636b696e6720636f6e747261637427732070726f7065722066756e6374696f6e616c697479207769746820746865206e657720626c6f636b2074696d65732c2069742069732074696d6520746f2072656d6f7665207468652074656d706f726172792061646d696e69737472617469766520726967687473206772616e74656420746f20746865204d656e746f204c616273206d756c7469736967207468726f756768204d475030332e20416c6c206e656365737361727920706172616d657465722061646a7573746d656e74732068617665206265656e20636f6d706c6574656420616e64207465737465642c20636f6e6669726d696e672074686520636f6e7472616374277320636f6d7061746962696c697479207769746820746865206e6577204c3220656e7669726f6e6d656e742e5c6e5c6e546865204c6f636b696e6720636f6e747261637420686173206265656e206f7065726174696e672061732065787065637465642073696e636520746865204c32207472616e736974696f6e2c2077697468206c6f636b732066756e6374696f6e696e6720636f72726563746c7920756e64657220746865206e657720312d7365636f6e6420626c6f636b2074696d652e204f75722074657374696e672068617320766572696669656420746861743a5c6e2d204578697374696e67206c6f636b73206d61696e7461696e656420746865697220696e7465677269747920647572696e6720746865207472616e736974696f6e5c6e2d204e6577206c6f636b7320617265206265696e672063726561746564207375636365737366756c6c795c6e2d205468652061646a757374656420706172616d65746572732061726520776f726b696e6720617320696e74656e646564207769746820746865206e657720626c6f636b2074696d655c6e5c6e546869732070726f706f73616c20726570726573656e74732061206d696c6573746f6e652061732069742077696c6c2062652074686520666972737420676f7665726e616e63652070726f706f73616c20657865637574656420616674657220746865204c32207472616e736974696f6e2c2070726f766964696e6720612076616c69646174696f6e206f662074686520676f7665726e616e63652073797374656d27732066756e6374696f6e616c69747920696e20746865206e657720656e7669726f6e6d656e742e5c6e5c6e232323205472616e73616374696f6e2044657461696c735c6e5c6e546869732070726f706f73616c20636f6e7369737473206f66206f6e65207472616e73616374696f6e3a5c6e5c6e2a2a545823303a2a2a2063616c6c2074686520607365744d656e746f4c6162734d756c74697369672861646472657373205f6d656e746f4c6162734d756c746973696729602066756e6374696f6e20776974682061207a65726f20616464726573735c6e5c6e2d205461726765743a204c6f636b696e672050726f787920636f6e74726163745c6e2d2046756e6374696f6e3a20607365744d656e746f4c6162734d756c7469736967286164647265737329605c6e2d20506172616d657465723a2060307830303030303030303030303030303030303030303030303030303030303030303030303030303030605c6e5c6e2a2a52656c6576616e742041646472657373657320666f7220766572696669636174696f6e2a2a5c6e5c6e2d204c6f636b696e672050726f78795c6e20202d205b5f3078303031426236363633366443643134394131413262413843353045343038426444643830323739435f5d2868747470733a2f2f63656c6f7363616e2e696f2f616464726573732f307830303142623636363336644364313439413141326241384335304534303842644464383032373943295c6e5c6e232323204578706563746564204f7574636f6d655c6e5c6e55706f6e207375636365737366756c20657865637574696f6e206f6620746869732070726f706f73616c3a5c6e312e20546865204d656e746f204c616273206d756c74697369672077696c6c206e6f206c6f6e67657220686176652061646d696e69737472617469766520726967687473206f76657220746865204c6f636b696e6720636f6e74726163745c6e322e2054686520676f7665726e616e63652073797374656d2077696c6c20626520636f6e6669726d656420746f2062652066756e6374696f6e696e6720636f72726563746c7920696e2074686520706f73742d4c3220656e7669726f6e6d656e745c6e5c6e5468697320636f6d706c65746573207468652074656d706f726172792061646d696e69737472617469766520617272616e67656d656e7473207468617420776572652070757420696e20706c61636520666f7220746865204c32207472616e736974696f6e20616e642072657475726e7320636f6e74726f6c20746f2074686520676f7665726e616e63652073797374656d2e222c227469746c65223a224d47502d363a2052656d6f7665204d656e746f204c616273206d756c7469736967206f6e204c6f636b696e6720636f6e74726163742d31373433343134333734227d000000000000000000000000000000000000000000000000000000000000",
          "blockHash": "0x44337e3bbe19ad2a7d78c7cb1c9e24976e7698aeb49393cb472d55a21cb78832",
          "blockNumber": "0x287dfd6",
          "transactionHash": "0x504368a5daef66e42880cc583f0fdf2918009bc8451552db09899617bce66c04",
          "transactionIndex": "0x1",
          "logIndex": "0x0",
          "removed": false
        }
      ],
      "logsBloom": "0x00000000000000000000000000000000000000000000000000000000000000000000000000000000000000000000000000000000000000000000000000000000000000000002080000000000000000000000000000000000000000000000000000000000000000000000000000000000004000000000000000000000000000000000000000000000000000000000000000000000000000000000000000000000080000000000000000000000000000000000000000000000000000000000000200000000000000000000000000000000000000000000000000000000000000000000000000000000000000000000000000000000000000000000000000002000",
      "type": "0x0",
      "transactionHash": "0x504368a5daef66e42880cc583f0fdf2918009bc8451552db09899617bce66c04",
      "transactionIndex": "0x1",
      "blockHash": "0x44337e3bbe19ad2a7d78c7cb1c9e24976e7698aeb49393cb472d55a21cb78832",
      "blockNumber": "0x287dfd6",
      "gasUsed": "0xaa979",
      "effectiveGasPrice": "0x5d22cfc40",
      "from": "0x56fd3f2bee130e9867942d0f463a16fbe49b8d81",
      "to": "0x558e92236f85bb4e8a63ec0d5bf9d34087eab744",
      "contractAddress": null,
      "l1BaseFeeScalar": "0x0",
      "l1BlobBaseFee": "0x1",
      "l1BlobBaseFeeScalar": "0x0",
      "l1Fee": "0x0",
      "l1GasPrice": "0x9",
      "l1GasUsed": "0x51d3"
    }
  ],
  "libraries": [
    "lib/mento-core-2.0.0/contracts/common/linkedlists/AddressLinkedList.sol:AddressLinkedList:0x2F0F7686fFFEfc3C266403Ad600035581deaedff",
    "lib/mento-core-2.0.0/contracts/common/linkedlists/AddressSortedLinkedListWithMedian.sol:AddressSortedLinkedListWithMedian:0x29B1B5e05217c751038861aF2C77494EAB10A257"
  ],
  "pending": [],
  "returns": {},
  "timestamp": 1743414422,
  "chain": 44787,
  "commit": "a959786"
}