{
  "transactions": [
    {
      "hash": "0x109599923e9fb4ded2d2b2f7ad7b0ef2780144087304c0cc05e85ea4b20e0b3f",
      "transactionType": "CALL",
      "contractName": null,
      "contractAddress": "0xaa963fc97281d9632d96700ab62a4d1340f9a28a",
      "function": "minDeposit()",
      "arguments": [],
      "transaction": {
        "from": "0x56fd3f2bee130e9867942d0f463a16fbe49b8d81",
        "to": "0xaa963fc97281d9632d96700ab62a4d1340f9a28a",
        "gas": "0x9bae",
        "value": "0x0",
        "input": "0x41b3d185",
        "nonce": "0x4d6",
        "chainId": "0xaef3"
      },
      "additionalContracts": [],
      "isFixedGasLimit": false
    },
    {
      "hash": "0xd14df6b02328a6712b3451205631575d852a219091562c2569753e77d9dd3658",
      "transactionType": "CALL",
      "contractName": null,
      "contractAddress": "0xaa963fc97281d9632d96700ab62a4d1340f9a28a",
      "function": "propose(uint256[],address[],bytes,uint256[],string)",
      "arguments": [
        "[0, 0]",
        "[0xFdd8bD58115FfBf04e47411c1d228eCC45E93075, 0xFdd8bD58115FfBf04e47411c1d228eCC45E93075]",
        "0xf0ca4adb000000000000000000000000e191cf46896e27b44dadf5c5b7314b5c9ef2f2c60000000000000000000000007e73bc581fa3fe70a0f542713bed3b6115c0bcacf0ca4adb000000000000000000000000aa04d30cced09ae17815f88d1bcae69a49fb160f000000000000000000000000bca8e76400f4a8bfbf8ec5bcb02ffc47447ff0b9",
        "[68, 68]",
        "\"whitelist-relayers\""
      ],
      "transaction": {
        "from": "0x56fd3f2bee130e9867942d0f463a16fbe49b8d81",
        "to": "0xaa963fc97281d9632d96700ab62a4d1340f9a28a",
        "gas": "0xa78bf",
        "value": "0x56bc75e2d63100000",
        "input": "0x65bbdaa000000000000000000000000000000000000000000000000000000000000000a000000000000000000000000000000000000000000000000000000000000001000000000000000000000000000000000000000000000000000000000000000160000000000000000000000000000000000000000000000000000000000000022000000000000000000000000000000000000000000000000000000000000002800000000000000000000000000000000000000000000000000000000000000002000000000000000000000000000000000000000000000000000000000000000000000000000000000000000000000000000000000000000000000000000000000000000000000000000000000000000000000000000000000000000000000002000000000000000000000000fdd8bd58115ffbf04e47411c1d228ecc45e93075000000000000000000000000fdd8bd58115ffbf04e47411c1d228ecc45e930750000000000000000000000000000000000000000000000000000000000000088f0ca4adb000000000000000000000000e191cf46896e27b44dadf5c5b7314b5c9ef2f2c60000000000000000000000007e73bc581fa3fe70a0f542713bed3b6115c0bcacf0ca4adb000000000000000000000000aa04d30cced09ae17815f88d1bcae69a49fb160f000000000000000000000000bca8e76400f4a8bfbf8ec5bcb02ffc47447ff0b9000000000000000000000000000000000000000000000000000000000000000000000000000000000000000000000000000000000000000200000000000000000000000000000000000000000000000000000000000000440000000000000000000000000000000000000000000000000000000000000044000000000000000000000000000000000000000000000000000000000000001277686974656c6973742d72656c61796572730000000000000000000000000000",
        "nonce": "0x4d7",
        "chainId": "0xaef3"
      },
      "additionalContracts": [],
      "isFixedGasLimit": false
    }
  ],
  "receipts": [
    {
      "status": "0x1",
      "cumulativeGasUsed": "0x70b6",
      "logs": [],
      "logsBloom": "0x00000000000000000000000000000000000000000000000000000000000000000000000000000000000000000000000000000000000000000000000000000000000000000000000000000000000000000000000000000000000000000000000000000000000000000000000000000000000000000000000000000000000000000000000000000000000000000000000000000000000000000000000000000000000000000000000000000000000000000000000000000000000000000000000000000000000000000000000000000000000000000000000000000000000000000000000000000000000000000000000000000000000000000000000000000000",
      "type": "0x0",
      "transactionHash": "0x109599923e9fb4ded2d2b2f7ad7b0ef2780144087304c0cc05e85ea4b20e0b3f",
      "transactionIndex": "0x0",
      "blockHash": "0xc55c84e18b66fe7e086c5e41c99771f3c20076509912d14035929236372be000",
      "blockNumber": "0x18603a6",
      "gasUsed": "0x70b6",
      "effectiveGasPrice": "0x2540be400",
      "from": "0x56fd3f2bee130e9867942d0f463a16fbe49b8d81",
      "to": "0xaa963fc97281d9632d96700ab62a4d1340f9a28a",
      "contractAddress": null
    },
    {
      "status": "0x1",
      "cumulativeGasUsed": "0x80586",
      "logs": [
        {
          "address": "0xaa963fc97281d9632d96700ab62a4d1340f9a28a",
          "topics": [
            "0x1bfe527f3548d9258c2512b6689f0acfccdd0557d80a53845db25fc57e93d8fe",
            "0x0000000000000000000000000000000000000000000000000000000000000136",
            "0x00000000000000000000000056fd3f2bee130e9867942d0f463a16fbe49b8d81"
          ],
          "data": "0x00000000000000000000000000000000000000000000000000000000000000020000000000000000000000000000000000000000000000056bc75e2d631000000000000000000000000000000000000000000000000000000000000066b61da8",
          "blockHash": "0xc55c84e18b66fe7e086c5e41c99771f3c20076509912d14035929236372be000",
          "blockNumber": "0x18603a6",
          "transactionHash": "0xd14df6b02328a6712b3451205631575d852a219091562c2569753e77d9dd3658",
          "transactionIndex": "0x1",
          "logIndex": "0x0",
          "removed": false
        }
      ],
      "logsBloom": "0x00000000000000000000000000000000000000000000000020000000000000000000000000000000000002000000010000000000000200000000000000000000000000000000000010080000010000000000000000000000080000000008000000000000000000000000000000000000000000000000000000000000000000000000000000200000000000000000000000000000000000000000000000000000000000000000000000000000000000000000000000000000000000000000000000000000040000000000000000000000000000000000000000000000000000000004000000000000000000000000000000000000000000000000000000000000",
      "type": "0x0",
      "transactionHash": "0xd14df6b02328a6712b3451205631575d852a219091562c2569753e77d9dd3658",
      "transactionIndex": "0x1",
      "blockHash": "0xc55c84e18b66fe7e086c5e41c99771f3c20076509912d14035929236372be000",
      "blockNumber": "0x18603a6",
      "gasUsed": "0x794d0",
      "effectiveGasPrice": "0x2540be400",
      "from": "0x56fd3f2bee130e9867942d0f463a16fbe49b8d81",
      "to": "0xaa963fc97281d9632d96700ab62a4d1340f9a28a",
      "contractAddress": null
    }
  ],
  "libraries": [
    "lib/mento-core-2.0.0/contracts/common/linkedlists/AddressLinkedList.sol:AddressLinkedList:0x2F0F7686fFFEfc3C266403Ad600035581deaedff",
    "lib/mento-core-2.0.0/contracts/common/linkedlists/AddressSortedLinkedListWithMedian.sol:AddressSortedLinkedListWithMedian:0x29B1B5e05217c751038861aF2C77494EAB10A257"
  ],
  "pending": [],
  "returns": {},
  "timestamp": 1723211181,
  "chain": 44787,
  "commit": "849cad2"
}