{
  "transactions": [
    {
      "hash": "0xea92286c28c6c093f462babc72b3ebed45ef2f9ab8dbf3731870b4858f4fa42e",
      "transactionType": "CALL",
      "contractName": null,
      "contractAddress": "0xaa963fc97281d9632d96700ab62a4d1340f9a28a",
      "function": "minDeposit()",
      "arguments": [],
      "transaction": {
        "from": "0x56fd3f2bee130e9867942d0f463a16fbe49b8d81",
        "to": "0xaa963fc97281d9632d96700ab62a4d1340f9a28a",
        "gas": "0x9bae",
        "value": "0x0",
        "input": "0x41b3d185",
        "nonce": "0x4c6",
        "chainId": "0xaef3"
      },
      "additionalContracts": [],
      "isFixedGasLimit": false
    },
    {
      "hash": "0xf0c57e75d2c876a2cf1b9dc3bd551b2862bcee760849aa8bf9a6e5534dc5a1c9",
      "transactionType": "CALL",
      "contractName": null,
      "contractAddress": "0xaa963fc97281d9632d96700ab62a4d1340f9a28a",
      "function": "propose(uint256[],address[],bytes,uint256[],string)",
      "arguments": [
        "[0, 0, 0]",
        "[0xFdd8bD58115FfBf04e47411c1d228eCC45E93075, 0xFdd8bD58115FfBf04e47411c1d228eCC45E93075, 0xFdd8bD58115FfBf04e47411c1d228eCC45E93075]",
        "0xf0ca4adb000000000000000000000000eeb147d11749df02b648d055ca4e280fb80a13ae000000000000000000000000dafeecc8adb5d81d22018ccf99ca782703cac6bdf0ca4adb0000000000000000000000003c38f8cf1e9684b20cf31c8f331a6c473755bb03000000000000000000000000472a3a508d2e0fe9bfc22adce96b0a30fbeb8b7ef0ca4adb000000000000000000000000d6dfe2a2d4436da26a20d1fc0c90d5d4982e1a190000000000000000000000005a03e6ddc7dcc364ca04fbe67839b768e78be16d",
        "[68, 68, 68]",
        "\"whitelist-relayers\""
      ],
      "transaction": {
        "from": "0x56fd3f2bee130e9867942d0f463a16fbe49b8d81",
        "to": "0xaa963fc97281d9632d96700ab62a4d1340f9a28a",
        "gas": "0xcecac",
        "value": "0x56bc75e2d63100000",
        "input": "0x65bbdaa000000000000000000000000000000000000000000000000000000000000000a0000000000000000000000000000000000000000000000000000000000000012000000000000000000000000000000000000000000000000000000000000001a000000000000000000000000000000000000000000000000000000000000002a0000000000000000000000000000000000000000000000000000000000000032000000000000000000000000000000000000000000000000000000000000000030000000000000000000000000000000000000000000000000000000000000000000000000000000000000000000000000000000000000000000000000000000000000000000000000000000000000000000000000000000000000000000000000000000000000000000000000000000000000000000000000000000000000003000000000000000000000000fdd8bd58115ffbf04e47411c1d228ecc45e93075000000000000000000000000fdd8bd58115ffbf04e47411c1d228ecc45e93075000000000000000000000000fdd8bd58115ffbf04e47411c1d228ecc45e9307500000000000000000000000000000000000000000000000000000000000000ccf0ca4adb000000000000000000000000eeb147d11749df02b648d055ca4e280fb80a13ae000000000000000000000000dafeecc8adb5d81d22018ccf99ca782703cac6bdf0ca4adb0000000000000000000000003c38f8cf1e9684b20cf31c8f331a6c473755bb03000000000000000000000000472a3a508d2e0fe9bfc22adce96b0a30fbeb8b7ef0ca4adb000000000000000000000000d6dfe2a2d4436da26a20d1fc0c90d5d4982e1a190000000000000000000000005a03e6ddc7dcc364ca04fbe67839b768e78be16d00000000000000000000000000000000000000000000000000000000000000000000000000000000000000000000000000000003000000000000000000000000000000000000000000000000000000000000004400000000000000000000000000000000000000000000000000000000000000440000000000000000000000000000000000000000000000000000000000000044000000000000000000000000000000000000000000000000000000000000001277686974656c6973742d72656c61796572730000000000000000000000000000",
        "nonce": "0x4c7",
        "chainId": "0xaef3"
      },
      "additionalContracts": [],
      "isFixedGasLimit": false
    }
  ],
  "receipts": [
    {
      "status": "0x1",
      "cumulativeGasUsed": "0x70b6",
      "logs": [],
      "logsBloom": "0x00000000000000000000000000000000000000000000000000000000000000000000000000000000000000000000000000000000000000000000000000000000000000000000000000000000000000000000000000000000000000000000000000000000000000000000000000000000000000000000000000000000000000000000000000000000000000000000000000000000000000000000000000000000000000000000000000000000000000000000000000000000000000000000000000000000000000000000000000000000000000000000000000000000000000000000000000000000000000000000000000000000000000000000000000000000",
      "type": "0x0",
      "transactionHash": "0xea92286c28c6c093f462babc72b3ebed45ef2f9ab8dbf3731870b4858f4fa42e",
      "transactionIndex": "0x0",
      "blockHash": "0x5f5bb8530c947ab8a96c397dde5bcbb60f4f76440d1e55e5b2b012eba1ab2a22",
      "blockNumber": "0x185ad8e",
      "gasUsed": "0x70b6",
      "effectiveGasPrice": "0x2540be400",
      "from": "0x56fd3f2bee130e9867942d0f463a16fbe49b8d81",
      "to": "0xaa963fc97281d9632d96700ab62a4d1340f9a28a",
      "contractAddress": null
    },
    {
      "status": "0x1",
      "cumulativeGasUsed": "0x9cc22",
      "logs": [
        {
          "address": "0xaa963fc97281d9632d96700ab62a4d1340f9a28a",
          "topics": [
            "0x1bfe527f3548d9258c2512b6689f0acfccdd0557d80a53845db25fc57e93d8fe",
            "0x0000000000000000000000000000000000000000000000000000000000000135",
            "0x00000000000000000000000056fd3f2bee130e9867942d0f463a16fbe49b8d81"
          ],
          "data": "0x00000000000000000000000000000000000000000000000000000000000000030000000000000000000000000000000000000000000000056bc75e2d631000000000000000000000000000000000000000000000000000000000000066b46b2d",
          "blockHash": "0x5f5bb8530c947ab8a96c397dde5bcbb60f4f76440d1e55e5b2b012eba1ab2a22",
          "blockNumber": "0x185ad8e",
          "transactionHash": "0xf0c57e75d2c876a2cf1b9dc3bd551b2862bcee760849aa8bf9a6e5534dc5a1c9",
          "transactionIndex": "0x1",
          "logIndex": "0x0",
          "removed": false
        }
      ],
      "logsBloom": "0x00000000000000000000000000000000000000000000000020800000000000000000000000000000000002000000010000000000000200000000000000000000000000000000000010000000010000000000000000000000080000000000000000000000000000000000000000000000000000000000000000000000000000000000000000200000000000000000000000000000000000000000000000000000000000000000000000000000000000004000000000000000000000000000000000000000000000000000000000000000000000000000000000000000000000000004000800000000000000000000000000000000000000000000000000000000",
      "type": "0x0",
      "transactionHash": "0xf0c57e75d2c876a2cf1b9dc3bd551b2862bcee760849aa8bf9a6e5534dc5a1c9",
      "transactionIndex": "0x1",
      "blockHash": "0x5f5bb8530c947ab8a96c397dde5bcbb60f4f76440d1e55e5b2b012eba1ab2a22",
      "blockNumber": "0x185ad8e",
      "gasUsed": "0x95b6c",
      "effectiveGasPrice": "0x2540be400",
      "from": "0x56fd3f2bee130e9867942d0f463a16fbe49b8d81",
      "to": "0xaa963fc97281d9632d96700ab62a4d1340f9a28a",
      "contractAddress": null
    }
  ],
  "libraries": [
    "lib/mento-core-2.0.0/contracts/common/linkedlists/AddressLinkedList.sol:AddressLinkedList:0x2F0F7686fFFEfc3C266403Ad600035581deaedff",
    "lib/mento-core-2.0.0/contracts/common/linkedlists/AddressSortedLinkedListWithMedian.sol:AddressSortedLinkedListWithMedian:0x29B1B5e05217c751038861aF2C77494EAB10A257"
  ],
  "pending": [],
  "returns": {},
  "timestamp": 1723099955,
  "chain": 44787,
  "commit": "98b4d23"
}