{
  "transactions": [
    {
      "hash": "0xcc101a4b747a6c5aa0e4983c49db532ccd2bd7f37b7ec2516324f2fc90040e34",
      "transactionType": "CALL",
      "contractName": null,
      "contractAddress": "0xAA963FC97281d9632d96700aB62A4D1340F9a28a",
      "function": "minDeposit()",
      "arguments": [],
      "transaction": {
        "from": "0x56fD3F2bEE130e9867942D0F463a16fBE49B8d81",
        "to": "0xAA963FC97281d9632d96700aB62A4D1340F9a28a",
        "gas": "0x9bcc",
        "value": "0x0",
        "input": "0x41b3d185",
        "nonce": "0x656",
        "chainId": "0xaef3"
      },
      "additionalContracts": [],
      "isFixedGasLimit": false
    },
    {
      "hash": "0x9d1ded3a9ff00355faebfcb420c63951ac75327e2142e87d3cf96d3f7811ba37",
      "transactionType": "CALL",
      "contractName": null,
      "contractAddress": "0xAA963FC97281d9632d96700aB62A4D1340F9a28a",
      "function": "propose(uint256[],address[],bytes,uint256[],string)",
      "arguments": [
        "[0, 0, 0, 0, 0]",
        "[0xFdd8bD58115FfBf04e47411c1d228eCC45E93075, 0xFdd8bD58115FfBf04e47411c1d228eCC45E93075, 0xFdd8bD58115FfBf04e47411c1d228eCC45E93075, 0xFdd8bD58115FfBf04e47411c1d228eCC45E93075, 0xFdd8bD58115FfBf04e47411c1d228eCC45E93075]",
        "0xf0ca4adb00000000000000000000000032abf1cbdfdcd56790f427694be2658d4b1a83bc000000000000000000000000ab461a2742291515e126a353c05ba0587117060afc20935d00000000000000000000000032abf1cbdfdcd56790f427694be2658d4b1a83bc0000000000000000000000000000000000000000000000000000000000000168f0ca4adb0000000000000000000000000196d1f4fda21fa442e53eaf18bf31282f6139f100000000000000000000000046d7bb2ce340f677fd059181c77bab3a3cddac09fc20935d0000000000000000000000000196d1f4fda21fa442e53eaf18bf31282f6139f10000000000000000000000000000000000000000000000000000000000000168145d8d180000000000000000000000008812241880c2d02e414d12dac392e6152587b66e00000000000000000000000032abf1cbdfdcd56790f427694be2658d4b1a83bc",
        "[68, 68, 68, 68, 68]",
        "https://TODO"
      ],
      "transaction": {
        "from": "0x56fD3F2bEE130e9867942D0F463a16fBE49B8d81",
        "to": "0xAA963FC97281d9632d96700aB62A4D1340F9a28a",
        "gas": "0x11f42e",
        "value": "0x56bc75e2d63100000",
        "input": "0x65bbdaa000000000000000000000000000000000000000000000000000000000000000a00000000000000000000000000000000000000000000000000000000000000160000000000000000000000000000000000000000000000000000000000000022000000000000000000000000000000000000000000000000000000000000003a000000000000000000000000000000000000000000000000000000000000004600000000000000000000000000000000000000000000000000000000000000005000000000000000000000000000000000000000000000000000000000000000000000000000000000000000000000000000000000000000000000000000000000000000000000000000000000000000000000000000000000000000000000000000000000000000000000000000000000000000000000000000000000000000000000000000000000000000000000000000000000000000000000000000000000000000000000000000000000000000000000000000000000000000000000005000000000000000000000000fdd8bd58115ffbf04e47411c1d228ecc45e93075000000000000000000000000fdd8bd58115ffbf04e47411c1d228ecc45e93075000000000000000000000000fdd8bd58115ffbf04e47411c1d228ecc45e93075000000000000000000000000fdd8bd58115ffbf04e47411c1d228ecc45e93075000000000000000000000000fdd8bd58115ffbf04e47411c1d228ecc45e930750000000000000000000000000000000000000000000000000000000000000154f0ca4adb00000000000000000000000032abf1cbdfdcd56790f427694be2658d4b1a83bc000000000000000000000000ab461a2742291515e126a353c05ba0587117060afc20935d00000000000000000000000032abf1cbdfdcd56790f427694be2658d4b1a83bc0000000000000000000000000000000000000000000000000000000000000168f0ca4adb0000000000000000000000000196d1f4fda21fa442e53eaf18bf31282f6139f100000000000000000000000046d7bb2ce340f677fd059181c77bab3a3cddac09fc20935d0000000000000000000000000196d1f4fda21fa442e53eaf18bf31282f6139f10000000000000000000000000000000000000000000000000000000000000168145d8d180000000000000000000000008812241880c2d02e414d12dac392e6152587b66e00000000000000000000000032abf1cbdfdcd56790f427694be2658d4b1a83bc000000000000000000000000000000000000000000000000000000000000000000000000000000000000000500000000000000000000000000000000000000000000000000000000000000440000000000000000000000000000000000000000000000000000000000000044000000000000000000000000000000000000000000000000000000000000004400000000000000000000000000000000000000000000000000000000000000440000000000000000000000000000000000000000000000000000000000000044000000000000000000000000000000000000000000000000000000000000000c68747470733a2f2f544f444f0000000000000000000000000000000000000000",
        "nonce": "0x657",
        "chainId": "0xaef3"
      },
      "additionalContracts": [],
      "isFixedGasLimit": false
    }
  ],
  "receipts": [
    {
      "status": "0x1",
      "cumulativeGasUsed": "0x28ee3",
      "logs": [],
      "logsBloom": "0x00000000000000000000000000000000000000000000000000000000000000000000000000000000000000000000000000000000000000000000000000000000000000000000000000000000000000000000000000000000000000000000000000000000000000000000000000000000000000000000000000000000000000000000000000000000000000000000000000000000000000000000000000000000000000000000000000000000000000000000000000000000000000000000000000000000000000000000000000000000000000000000000000000000000000000000000000000000000000000000000000000000000000000000000000000000",
      "type": "0x0",
      "transactionHash": "0xcc101a4b747a6c5aa0e4983c49db532ccd2bd7f37b7ec2516324f2fc90040e34",
      "transactionIndex": "0x2",
      "blockHash": "0x1eb1b83aae0b17ec93506d9e02d1b45d527398e6a5d69adcb218352df7776b8d",
      "blockNumber": "0x1a6d0ba",
      "gasUsed": "0x70cc",
      "effectiveGasPrice": "0x5d22cfc40",
      "from": "0x56fD3F2bEE130e9867942D0F463a16fBE49B8d81",
      "to": "0xAA963FC97281d9632d96700aB62A4D1340F9a28a",
      "contractAddress": null,
      "l1BaseFeeScalar": "0x558",
      "l1BlobBaseFee": "0x1",
      "l1BlobBaseFeeScalar": "0xc5fc5",
      "l1Fee": "0x2d6f7fa61",
      "l1GasPrice": "0x14c2192ff",
      "l1GasUsed": "0x640"
    },
    {
      "status": "0x1",
      "cumulativeGasUsed": "0xf8e71",
      "logs": [
        {
          "address": "0xAA963FC97281d9632d96700aB62A4D1340F9a28a",
          "topics": [
            "0x3e069fb74dcf5fbc07740b0d40d7f7fc48e9c0ca5dc3d19eb34d2e05d74c5543",
            "0x000000000000000000000000000000000000000000000000000000000000014f"
          ],
          "data": "0x0000000000000000000000000000000000000000000000000000000067095572",
          "blockHash": "0x1eb1b83aae0b17ec93506d9e02d1b45d527398e6a5d69adcb218352df7776b8d",
          "blockNumber": "0x1a6d0ba",
          "transactionHash": "0x9d1ded3a9ff00355faebfcb420c63951ac75327e2142e87d3cf96d3f7811ba37",
          "transactionIndex": "0x3",
          "logIndex": "0x2",
          "removed": false
        },
        {
          "address": "0xAA963FC97281d9632d96700aB62A4D1340F9a28a",
          "topics": [
            "0x1bfe527f3548d9258c2512b6689f0acfccdd0557d80a53845db25fc57e93d8fe",
            "0x0000000000000000000000000000000000000000000000000000000000000150",
            "0x00000000000000000000000056fd3f2bee130e9867942d0f463a16fbe49b8d81"
          ],
          "data": "0x00000000000000000000000000000000000000000000000000000000000000050000000000000000000000000000000000000000000000056bc75e2d631000000000000000000000000000000000000000000000000000000000000067095572",
          "blockHash": "0x1eb1b83aae0b17ec93506d9e02d1b45d527398e6a5d69adcb218352df7776b8d",
          "blockNumber": "0x1a6d0ba",
          "transactionHash": "0x9d1ded3a9ff00355faebfcb420c63951ac75327e2142e87d3cf96d3f7811ba37",
          "transactionIndex": "0x3",
          "logIndex": "0x3",
          "removed": false
        }
      ],
      "logsBloom": "0x00000000000000000000000000000000000000000000000020000000000000000000000000000000000002004000010000000000000200000000000000000000000000000000010010000000010000000040000000000000080000000000000000000000010000000000000000000000000000000000000000000000000000000000000000200000000000000000000000000000000000000000000000000020000000000000000000000000000000000000000000000000000000000000000000000000001000000000000000000000000000000000000000000000000000000004000000000000000000000000002001000000001000000000000000000000",
      "type": "0x0",
      "transactionHash": "0x9d1ded3a9ff00355faebfcb420c63951ac75327e2142e87d3cf96d3f7811ba37",
      "transactionIndex": "0x3",
      "blockHash": "0x1eb1b83aae0b17ec93506d9e02d1b45d527398e6a5d69adcb218352df7776b8d",
      "blockNumber": "0x1a6d0ba",
      "gasUsed": "0xcff8e",
      "effectiveGasPrice": "0x5d22cfc40",
      "from": "0x56fD3F2bEE130e9867942D0F463a16fBE49B8d81",
      "to": "0xAA963FC97281d9632d96700aB62A4D1340F9a28a",
      "contractAddress": null,
      "l1BaseFeeScalar": "0x558",
      "l1BlobBaseFee": "0x1",
      "l1BlobBaseFeeScalar": "0xc5fc5",
      "l1Fee": "0x85d18b1b8",
      "l1GasPrice": "0x14c2192ff",
      "l1GasUsed": "0x1268"
    }
  ],
  "libraries": [
    "lib/mento-core-2.0.0/contracts/common/linkedlists/AddressLinkedList.sol:AddressLinkedList:0x2F0F7686fFFEfc3C266403Ad600035581deaedff",
    "lib/mento-core-2.0.0/contracts/common/linkedlists/AddressSortedLinkedListWithMedian.sol:AddressSortedLinkedListWithMedian:0x29B1B5e05217c751038861aF2C77494EAB10A257"
  ],
  "pending": [],
  "returns": {},
  "timestamp": 1728664952,
  "chain": 44787,
  "commit": "3de0d08"
}