{
  "transactions": [
    {
      "hash": "0x0ad115847417aeb540431928b59ca4444ffec3618cc84f32e945bcfed896d175",
      "transactionType": "CALL",
      "contractName": null,
      "contractAddress": "0xaa963fc97281d9632d96700ab62a4d1340f9a28a",
      "function": "minDeposit()",
      "arguments": [],
      "transaction": {
        "from": "0x56fd3f2bee130e9867942d0f463a16fbe49b8d81",
        "to": "0xaa963fc97281d9632d96700ab62a4d1340f9a28a",
        "gas": "0x9bcc",
        "value": "0x0",
        "input": "0x41b3d185",
        "nonce": "0x60a",
        "chainId": "0xaef3"
      },
      "additionalContracts": [],
      "isFixedGasLimit": false
    },
    {
      "hash": "0xeda23506ea84cb5233a15f0fa0251807e90d942fe9a61c7de6831b70bd010ef9",
      "transactionType": "CALL",
      "contractName": null,
      "contractAddress": "0xaa963fc97281d9632d96700ab62a4d1340f9a28a",
      "function": "propose(uint256[],address[],bytes,uint256[],string)",
      "arguments": [
        "[0, 0, 0, 0, 0, 0, 0, 0, 0, 0, 0, 0, 0, 0]",
        "[0x874069Fa1Eb16D44d622F2e0Ca25eeA172369bC1, 0x10c892A6EC43a53E45D0B916B4b7D383B1b78C0F, 0xE4D517785D091D3c54818832dB6094bcc2744545, 0xB0FA15e002516d0301884059c0aaC0F0C72b019D, 0x1E0433C1769271ECcF4CFF9FDdD515eefE6CdF92, 0x5E0E3c9419C42a1B04e2525991FB1A2C467AB8bF, 0x5E0E3c9419C42a1B04e2525991FB1A2C467AB8bF, 0xD3Dff18E465bCa6241A244144765b4421Ac14D09, 0x9B64E8EaBD1a035b148cE970d3319c5C3Ad53EC3, 0xa7ed835288Aa4524bB6C73DD23c0bF4315D9Fe3e, 0x17bc3304F94c85618c46d0888aA937148007bD3C, 0x997B494F17D3c49E66Fafb50F37A972d8Db9325B, 0xf391DcaF77360d39e566b93c8c0ceb7128fa1A08, 0xEcf09FCD57b0C8b1FD3DE92D59E234b88938485B]",
        "0xd29d44ee000000000000000000000000a0ad8dd40104556122c21df50ed14bb1b53a3338d29d44ee000000000000000000000000a0ad8dd40104556122c21df50ed14bb1b53a3338d29d44ee000000000000000000000000a0ad8dd40104556122c21df50ed14bb1b53a3338d29d44ee000000000000000000000000a0ad8dd40104556122c21df50ed14bb1b53a3338d29d44ee000000000000000000000000a0ad8dd40104556122c21df50ed14bb1b53a3338f2fde38b000000000000000000000000a0ad8dd40104556122c21df50ed14bb1b53a3338d29d44ee000000000000000000000000a0ad8dd40104556122c21df50ed14bb1b53a3338d29d44ee000000000000000000000000a0ad8dd40104556122c21df50ed14bb1b53a3338d29d44ee000000000000000000000000a0ad8dd40104556122c21df50ed14bb1b53a3338d29d44ee000000000000000000000000a0ad8dd40104556122c21df50ed14bb1b53a3338d29d44ee000000000000000000000000a0ad8dd40104556122c21df50ed14bb1b53a3338d29d44ee000000000000000000000000a0ad8dd40104556122c21df50ed14bb1b53a3338d29d44ee000000000000000000000000a0ad8dd40104556122c21df50ed14bb1b53a3338d29d44ee000000000000000000000000a0ad8dd40104556122c21df50ed14bb1b53a3338",
        "[36, 36, 36, 36, 36, 36, 36, 36, 36, 36, 36, 36, 36, 36]",
        "https://TODO"
      ],
      "transaction": {
        "from": "0x56fd3f2bee130e9867942d0f463a16fbe49b8d81",
        "to": "0xaa963fc97281d9632d96700ab62a4d1340f9a28a",
        "gas": "0x213953",
        "value": "0x56bc75e2d63100000",
        "input": "0x65bbdaa000000000000000000000000000000000000000000000000000000000000000a00000000000000000000000000000000000000000000000000000000000000280000000000000000000000000000000000000000000000000000000000000046000000000000000000000000000000000000000000000000000000000000006800000000000000000000000000000000000000000000000000000000000000860000000000000000000000000000000000000000000000000000000000000000e00000000000000000000000000000000000000000000000000000000000000000000000000000000000000000000000000000000000000000000000000000000000000000000000000000000000000000000000000000000000000000000000000000000000000000000000000000000000000000000000000000000000000000000000000000000000000000000000000000000000000000000000000000000000000000000000000000000000000000000000000000000000000000000000000000000000000000000000000000000000000000000000000000000000000000000000000000000000000000000000000000000000000000000000000000000000000000000000000000000000000000000000000000000000000000000000000000000000000000000000000000000000000000000000000000000000000000000000000000000000000000000000000000000000000000000000000000000000000000000000000000000000000000000000000000000000000000000000000000000000000000000000000000000000000000000000000000000000000000000000000000000000000000000000000000000000000000000000000000000000000000000000000000000000000000000000000000000000000000000000e000000000000000000000000874069fa1eb16d44d622f2e0ca25eea172369bc100000000000000000000000010c892a6ec43a53e45d0b916b4b7d383b1b78c0f000000000000000000000000e4d517785d091d3c54818832db6094bcc2744545000000000000000000000000b0fa15e002516d0301884059c0aac0f0c72b019d0000000000000000000000001e0433c1769271eccf4cff9fddd515eefe6cdf920000000000000000000000005e0e3c9419c42a1b04e2525991fb1a2c467ab8bf0000000000000000000000005e0e3c9419c42a1b04e2525991fb1a2c467ab8bf000000000000000000000000d3dff18e465bca6241a244144765b4421ac14d090000000000000000000000009b64e8eabd1a035b148ce970d3319c5c3ad53ec3000000000000000000000000a7ed835288aa4524bb6c73dd23c0bf4315d9fe3e00000000000000000000000017bc3304f94c85618c46d0888aa937148007bd3c000000000000000000000000997b494f17d3c49e66fafb50f37a972d8db9325b000000000000000000000000f391dcaf77360d39e566b93c8c0ceb7128fa1a08000000000000000000000000ecf09fcd57b0c8b1fd3de92d59e234b88938485b00000000000000000000000000000000000000000000000000000000000001f8d29d44ee000000000000000000000000a0ad8dd40104556122c21df50ed14bb1b53a3338d29d44ee000000000000000000000000a0ad8dd40104556122c21df50ed14bb1b53a3338d29d44ee000000000000000000000000a0ad8dd40104556122c21df50ed14bb1b53a3338d29d44ee000000000000000000000000a0ad8dd40104556122c21df50ed14bb1b53a3338d29d44ee000000000000000000000000a0ad8dd40104556122c21df50ed14bb1b53a3338f2fde38b000000000000000000000000a0ad8dd40104556122c21df50ed14bb1b53a3338d29d44ee000000000000000000000000a0ad8dd40104556122c21df50ed14bb1b53a3338d29d44ee000000000000000000000000a0ad8dd40104556122c21df50ed14bb1b53a3338d29d44ee000000000000000000000000a0ad8dd40104556122c21df50ed14bb1b53a3338d29d44ee000000000000000000000000a0ad8dd40104556122c21df50ed14bb1b53a3338d29d44ee000000000000000000000000a0ad8dd40104556122c21df50ed14bb1b53a3338d29d44ee000000000000000000000000a0ad8dd40104556122c21df50ed14bb1b53a3338d29d44ee000000000000000000000000a0ad8dd40104556122c21df50ed14bb1b53a3338d29d44ee000000000000000000000000a0ad8dd40104556122c21df50ed14bb1b53a33380000000000000000000000000000000000000000000000000000000000000000000000000000000e00000000000000000000000000000000000000000000000000000000000000240000000000000000000000000000000000000000000000000000000000000024000000000000000000000000000000000000000000000000000000000000002400000000000000000000000000000000000000000000000000000000000000240000000000000000000000000000000000000000000000000000000000000024000000000000000000000000000000000000000000000000000000000000002400000000000000000000000000000000000000000000000000000000000000240000000000000000000000000000000000000000000000000000000000000024000000000000000000000000000000000000000000000000000000000000002400000000000000000000000000000000000000000000000000000000000000240000000000000000000000000000000000000000000000000000000000000024000000000000000000000000000000000000000000000000000000000000002400000000000000000000000000000000000000000000000000000000000000240000000000000000000000000000000000000000000000000000000000000024000000000000000000000000000000000000000000000000000000000000000c68747470733a2f2f544f444f0000000000000000000000000000000000000000",
        "nonce": "0x60b",
        "chainId": "0xaef3"
      },
      "additionalContracts": [],
      "isFixedGasLimit": false
    }
  ],
  "receipts": [
    {
      "status": "0x1",
      "cumulativeGasUsed": "0x131ca",
      "logs": [],
      "logsBloom": "0x00000000000000000000000000000000000000000000000000000000000000000000000000000000000000000000000000000000000000000000000000000000000000000000000000000000000000000000000000000000000000000000000000000000000000000000000000000000000000000000000000000000000000000000000000000000000000000000000000000000000000000000000000000000000000000000000000000000000000000000000000000000000000000000000000000000000000000000000000000000000000000000000000000000000000000000000000000000000000000000000000000000000000000000000000000000",
      "type": "0x0",
      "transactionHash": "0x0ad115847417aeb540431928b59ca4444ffec3618cc84f32e945bcfed896d175",
      "transactionIndex": "0x1",
      "blockHash": "0x3427666b919a77e07e189a920c0daf9171d3ced306c89528e4632aca7e2eaf1b",
      "blockNumber": "0x1a11b8d",
      "gasUsed": "0x70cc",
      "effectiveGasPrice": "0x5d22cfc40",
      "from": "0x56fd3f2bee130e9867942d0f463a16fbe49b8d81",
      "to": "0xaa963fc97281d9632d96700ab62a4d1340f9a28a",
      "contractAddress": null,
      "l1BaseFeeScalar": "0x558",
      "l1BlobBaseFee": "0x1",
      "l1BlobBaseFeeScalar": "0xc5fc5",
      "l1Fee": "0x60",
      "l1GasPrice": "0x7",
      "l1GasUsed": "0x640"
    },
    {
      "status": "0x1",
      "cumulativeGasUsed": "0x18b8de",
      "logs": [
        {
          "address": "0xaa963fc97281d9632d96700ab62a4d1340f9a28a",
          "topics": [
            "0x1bfe527f3548d9258c2512b6689f0acfccdd0557d80a53845db25fc57e93d8fe",
            "0x000000000000000000000000000000000000000000000000000000000000014d",
            "0x00000000000000000000000056fd3f2bee130e9867942d0f463a16fbe49b8d81"
          ],
          "data": "0x000000000000000000000000000000000000000000000000000000000000000e0000000000000000000000000000000000000000000000056bc75e2d63100000000000000000000000000000000000000000000000000000000000006703a046",
          "blockHash": "0x3c6235e41de6e214dab42f99a53a17c731cc3bdf882985da614b39640ac5c5ed",
          "blockNumber": "0x1a11b8e",
          "transactionHash": "0xeda23506ea84cb5233a15f0fa0251807e90d942fe9a61c7de6831b70bd010ef9",
          "transactionIndex": "0x1",
          "logIndex": "0x0",
          "removed": false
        }
      ],
      "logsBloom": "0x00000000000000000000000000000000000000000000000020000000000000000000000000000000000002000000010000000000000200000000000000000000000000000000000010000000010000000000002000000000080000000000000000000000000000000000000000000000800000000000000000000000000000000000020000200000000000000000000000000000000000000000000000000000000000000000000000000000000000000000000000000000000000000000000000000000000000000000000000000000000000000000000000000000000000000004000000000000000000000000000000000000000000000000000000000000",
      "type": "0x0",
      "transactionHash": "0xeda23506ea84cb5233a15f0fa0251807e90d942fe9a61c7de6831b70bd010ef9",
      "transactionIndex": "0x1",
      "blockHash": "0x3c6235e41de6e214dab42f99a53a17c731cc3bdf882985da614b39640ac5c5ed",
      "blockNumber": "0x1a11b8e",
      "gasUsed": "0x180db4",
      "effectiveGasPrice": "0x5d22cfc40",
      "from": "0x56fd3f2bee130e9867942d0f463a16fbe49b8d81",
      "to": "0xaa963fc97281d9632d96700ab62a4d1340f9a28a",
      "contractAddress": null,
      "l1BaseFeeScalar": "0x558",
      "l1BlobBaseFee": "0x1",
      "l1BlobBaseFeeScalar": "0xc5fc5",
      "l1Fee": "0x1a8",
      "l1GasPrice": "0x7",
      "l1GasUsed": "0x1b81"
    }
  ],
  "libraries": [
    "lib/mento-core-2.0.0/contracts/common/linkedlists/AddressLinkedList.sol:AddressLinkedList:0x2F0F7686fFFEfc3C266403Ad600035581deaedff",
    "lib/mento-core-2.0.0/contracts/common/linkedlists/AddressSortedLinkedListWithMedian.sol:AddressSortedLinkedListWithMedian:0x29B1B5e05217c751038861aF2C77494EAB10A257"
  ],
  "pending": [],
  "returns": {},
  "timestamp": 1728290891,
  "chain": 44787,
  "commit": "46f4ccf"
}