{
  "transactions": [
    {
      "hash": "0xa5fc6a3df2785b03bc40c2b07fd50c5483176e22fa375127818b184208d5b027",
      "transactionType": "CALL",
      "contractName": null,
      "contractAddress": "0x172d6273364cC0c0B2be73aA1d4F20eb010CD1eB",
      "function": "deployRelayer(address,string,uint256,(address,bool)[])",
      "arguments": [
        "0x32ABF1cBdFdcD56790f427694be2658d4B1A83bC",
        "CELO/COP (CELO/USD:USD/COP)",
        "86400",
        "[(0x022F9dCC73C5Fb43F2b4eF2EF9ad3eDD1D853946, false), (0x8c07f12022FD7AfC700A410a0f109dD349d89B49, true)]"
      ],
      "transaction": {
        "from": "0x56fD3F2bEE130e9867942D0F463a16fBE49B8d81",
        "to": "0x172d6273364cC0c0B2be73aA1d4F20eb010CD1eB",
        "gas": "0x1791b8",
        "value": "0x0",
        "input": "0x472a111100000000000000000000000032abf1cbdfdcd56790f427694be2658d4b1a83bc0000000000000000000000000000000000000000000000000000000000000080000000000000000000000000000000000000000000000000000000000001518000000000000000000000000000000000000000000000000000000000000000c0000000000000000000000000000000000000000000000000000000000000001b43454c4f2f434f50202843454c4f2f5553443a5553442f434f502900000000000000000000000000000000000000000000000000000000000000000000000002000000000000000000000000022f9dcc73c5fb43f2b4ef2ef9ad3edd1d85394600000000000000000000000000000000000000000000000000000000000000000000000000000000000000008c07f12022fd7afc700a410a0f109dd349d89b490000000000000000000000000000000000000000000000000000000000000001",
        "nonce": "0x654",
        "chainId": "0xaef3"
      },
      "additionalContracts": [],
      "isFixedGasLimit": false
    },
    {
      "hash": "0x2825c34515a48f3e12a7b94ea933ae5f8b6e2314a83a7f83d4f85305526c6c8e",
      "transactionType": "CALL",
      "contractName": null,
      "contractAddress": "0x172d6273364cC0c0B2be73aA1d4F20eb010CD1eB",
      "function": "deployRelayer(address,string,uint256,(address,bool)[])",
      "arguments": [
        "0x0196D1F4FdA21fA442e53EaF18Bf31282F6139F1",
        "COP/USD",
        "0",
        "[(0x8c07f12022FD7AfC700A410a0f109dD349d89B49, false)]"
      ],
      "transaction": {
        "from": "0x56fD3F2bEE130e9867942D0F463a16fBE49B8d81",
        "to": "0x172d6273364cC0c0B2be73aA1d4F20eb010CD1eB",
        "gas": "0x178221",
        "value": "0x0",
        "input": "0x472a11110000000000000000000000000196d1f4fda21fa442e53eaf18bf31282f6139f10000000000000000000000000000000000000000000000000000000000000080000000000000000000000000000000000000000000000000000000000000000000000000000000000000000000000000000000000000000000000000000000c00000000000000000000000000000000000000000000000000000000000000007434f502f5553440000000000000000000000000000000000000000000000000000000000000000000000000000000000000000000000000000000000000000010000000000000000000000008c07f12022fd7afc700a410a0f109dd349d89b490000000000000000000000000000000000000000000000000000000000000000",
        "nonce": "0x655",
        "chainId": "0xaef3"
      },
      "additionalContracts": [],
      "isFixedGasLimit": false
    }
  ],
  "receipts": [
    {
      "status": "0x1",
      "cumulativeGasUsed": "0x11bd51",
      "logs": [
        {
          "address": "0x172d6273364cC0c0B2be73aA1d4F20eb010CD1eB",
          "topics": [
            "0xa293edbc5018bd43c95bab416b1cb297eb58222c3471c76b3b87051f720acb05",
            "0x000000000000000000000000ab461a2742291515e126a353c05ba0587117060a",
            "0x00000000000000000000000032abf1cbdfdcd56790f427694be2658d4b1a83bc"
          ],
          "data": "0x00000000000000000000000000000000000000000000000000000000000000400000000000000000000000000000000000000000000000000000000000000080000000000000000000000000000000000000000000000000000000000000001b43454c4f2f434f50202843454c4f2f5553443a5553442f434f502900000000000000000000000000000000000000000000000000000000000000000000000002000000000000000000000000022f9dcc73c5fb43f2b4ef2ef9ad3edd1d85394600000000000000000000000000000000000000000000000000000000000000000000000000000000000000008c07f12022fd7afc700a410a0f109dd349d89b490000000000000000000000000000000000000000000000000000000000000001",
          "blockHash": "0x93a5bcfbb52729cd5fab9340a9af6d0aaf4377bfd3dbd01eb5c60d1c6896af1a",
          "blockNumber": "0x1a6cf4c",
          "transactionHash": "0xa5fc6a3df2785b03bc40c2b07fd50c5483176e22fa375127818b184208d5b027",
          "transactionIndex": "0x1",
          "logIndex": "0x0",
          "removed": false
        }
      ],
      "logsBloom": "0x00000000000000010000000000000000000000000000000000000000000000000000000000000000000000000001000000000000000000000000000000000000000000000000000000000000000000000000000000000000400000000000000000000200000000000000000000000000000000000000000000000000000000000000000000000000000000000000000000000000000000000000000000000000000000000000000000020000000000008040000000000000004000000000000000100000000000000000000000000000000000004000000000000000000000000000000000000000040000400000000000000000000000000000000000000000",
      "type": "0x0",
      "transactionHash": "0xa5fc6a3df2785b03bc40c2b07fd50c5483176e22fa375127818b184208d5b027",
      "transactionIndex": "0x1",
      "blockHash": "0x93a5bcfbb52729cd5fab9340a9af6d0aaf4377bfd3dbd01eb5c60d1c6896af1a",
      "blockNumber": "0x1a6cf4c",
      "gasUsed": "0x1111f7",
      "effectiveGasPrice": "0x5d22cfc40",
      "from": "0x56fD3F2bEE130e9867942D0F463a16fBE49B8d81",
      "to": "0x172d6273364cC0c0B2be73aA1d4F20eb010CD1eB",
      "contractAddress": null,
      "l1BaseFeeScalar": "0x558",
      "l1BlobBaseFee": "0x1",
      "l1BlobBaseFeeScalar": "0xc5fc5",
      "l1Fee": "0x5a3b00e5b",
      "l1GasPrice": "0x1775049de",
      "l1GasUsed": "0xafb"
    },
    {
      "status": "0x1",
      "cumulativeGasUsed": "0x22c3fa",
      "logs": [
        {
          "address": "0x172d6273364cC0c0B2be73aA1d4F20eb010CD1eB",
          "topics": [
            "0xa293edbc5018bd43c95bab416b1cb297eb58222c3471c76b3b87051f720acb05",
            "0x00000000000000000000000046d7bb2ce340f677fd059181c77bab3a3cddac09",
            "0x0000000000000000000000000196d1f4fda21fa442e53eaf18bf31282f6139f1"
          ],
          "data": "0x000000000000000000000000000000000000000000000000000000000000004000000000000000000000000000000000000000000000000000000000000000800000000000000000000000000000000000000000000000000000000000000007434f502f5553440000000000000000000000000000000000000000000000000000000000000000000000000000000000000000000000000000000000000000010000000000000000000000008c07f12022fd7afc700a410a0f109dd349d89b490000000000000000000000000000000000000000000000000000000000000000",
          "blockHash": "0x93a5bcfbb52729cd5fab9340a9af6d0aaf4377bfd3dbd01eb5c60d1c6896af1a",
          "blockNumber": "0x1a6cf4c",
          "transactionHash": "0x2825c34515a48f3e12a7b94ea933ae5f8b6e2314a83a7f83d4f85305526c6c8e",
          "transactionIndex": "0x2",
          "logIndex": "0x1",
          "removed": false
        }
      ],
      "logsBloom": "0x00000000000000000000000000000000000000000000000000000000000000000000000000000000000000000000000000000000000000000000000000000000000000000000000000000000000000000000000000000000400000000000000000000200000000000000000000000000000000000000000000000080000000000000000000000000000000000000000000000000000000000000000000000000000010000000000000000000000000008040000000000000000000000000000000100000000000000000000000800000000000000000000000000000000200000000102000000000040000000000000000000000000000000000000000000000",
      "type": "0x0",
      "transactionHash": "0x2825c34515a48f3e12a7b94ea933ae5f8b6e2314a83a7f83d4f85305526c6c8e",
      "transactionIndex": "0x2",
      "blockHash": "0x93a5bcfbb52729cd5fab9340a9af6d0aaf4377bfd3dbd01eb5c60d1c6896af1a",
      "blockNumber": "0x1a6cf4c",
      "gasUsed": "0x1106a9",
      "effectiveGasPrice": "0x5d22cfc40",
      "from": "0x56fD3F2bEE130e9867942D0F463a16fBE49B8d81",
      "to": "0x172d6273364cC0c0B2be73aA1d4F20eb010CD1eB",
      "contractAddress": null,
      "l1BaseFeeScalar": "0x558",
      "l1BlobBaseFee": "0x1",
      "l1BlobBaseFeeScalar": "0xc5fc5",
      "l1Fee": "0x44c19db47",
      "l1GasPrice": "0x1775049de",
      "l1GasUsed": "0x85e"
    }
  ],
  "libraries": [
    "lib/mento-core-2.0.0/contracts/common/linkedlists/AddressLinkedList.sol:AddressLinkedList:0x2F0F7686fFFEfc3C266403Ad600035581deaedff",
    "lib/mento-core-2.0.0/contracts/common/linkedlists/AddressSortedLinkedListWithMedian.sol:AddressSortedLinkedListWithMedian:0x29B1B5e05217c751038861aF2C77494EAB10A257"
  ],
  "pending": [],
  "returns": {},
  "timestamp": 1728664586,
  "chain": 44787,
  "commit": "88bce40"
}