{
  "transactions": [
    {
      "hash": "0x4a380d31ee7d308caa8e3b2fb9437303566ba6dfea47542955a3a094a418625d",
      "transactionType": "CALL",
      "contractName": null,
      "contractAddress": "0x558e92236f85bb4e8a63ec0d5bf9d34087eab744",
      "function": "propose(address[],uint256[],bytes[],string)",
      "arguments": [
        "[0x558e92236f85Bb4e8A63ec0D5Bf9d34087Eab744]",
        "[0]",
        "[0xea0217cf000000000000000000000000000000000000000000000000000000000000012c]",
        "{\\\"description\\\":\\\"### MGP04: Update governance voting period ahead of Celo L2 Transition\\\\n\\\\n#### Description\\\\n\\\\nWith Celo\\'s transition to an L2, the block time will be reduced from 5 seconds to 1 second. This proposal ensures that the governance voting period remains consistent after the upgrade, at 8 days.\\\\n\\\\n#### Changes\\\\n\\\\n1. Adjust voting period to maintain 8 day duration:\\\\n   - On Celo mainnet, increase from 138240 blocks to 691200 blocks\\\\n   - Accounting for reduced block time (1s instead of 5s)\\\\n\\\\n#### Motivation\\\\n\\\\n- Preserve the 8 days voting period duration after the Celo blockchain\\'s L2 transition\\\\n\\\\n#### Technical Rationale\\\\n\\\\n- Celo block time reduction from 5s to 1s necessitates voting period block count adjustment\\\\n- Current: 138240 blocks at 5s per block ≈ 8 days\\\\n- Proposed: 691200 blocks at 1s per block ≈ 8 days\\\\n\\\\n#### Implementation Details\\\\n\\\\n- One unique transaction:\\\\n  1. Update voting period in MentoGovernor contract\\\\n\\\\n#### Testing\\\\n\\\\n- Validate voting period with 1 second block time\\\\n\\\",\\\"title\\\":\\\"MGP-4: Update voting period ahead of L2 transition-1741863113\\\"}"
      ],
      "transaction": {
        "from": "0x56fd3f2bee130e9867942d0f463a16fbe49b8d81",
        "to": "0x558e92236f85bb4e8a63ec0d5bf9d34087eab744",
        "gas": "0xe54a1",
        "value": "0x0",
        "input": "0x7d5e81e2000000000000000000000000000000000000000000000000000000000000008000000000000000000000000000000000000000000000000000000000000000c0000000000000000000000000000000000000000000000000000000000000010000000000000000000000000000000000000000000000000000000000000001a00000000000000000000000000000000000000000000000000000000000000001000000000000000000000000558e92236f85bb4e8a63ec0d5bf9d34087eab74400000000000000000000000000000000000000000000000000000000000000010000000000000000000000000000000000000000000000000000000000000000000000000000000000000000000000000000000000000000000000000000000100000000000000000000000000000000000000000000000000000000000000200000000000000000000000000000000000000000000000000000000000000024ea0217cf000000000000000000000000000000000000000000000000000000000000012c00000000000000000000000000000000000000000000000000000000000000000000000000000000000000000000000000000000000000000000044d7b226465736372697074696f6e223a22232323204d475030343a2055706461746520676f7665726e616e636520766f74696e6720706572696f64206168656164206f662043656c6f204c32205472616e736974696f6e5c6e5c6e23232323204465736372697074696f6e5c6e5c6e576974682043656c6f2773207472616e736974696f6e20746f20616e204c322c2074686520626c6f636b2074696d652077696c6c20626520726564756365642066726f6d2035207365636f6e647320746f2031207365636f6e642e20546869732070726f706f73616c20656e737572657320746861742074686520676f7665726e616e636520766f74696e6720706572696f642072656d61696e7320636f6e73697374656e742061667465722074686520757067726164652c206174203820646179732e5c6e5c6e23232323204368616e6765735c6e5c6e312e2041646a75737420766f74696e6720706572696f6420746f206d61696e7461696e203820646179206475726174696f6e3a5c6e2020202d204f6e2043656c6f206d61696e6e65742c20696e6372656173652066726f6d2031333832343020626c6f636b7320746f2036393132303020626c6f636b735c6e2020202d204163636f756e74696e6720666f72207265647563656420626c6f636b2074696d652028317320696e7374656164206f66203573295c6e5c6e23232323204d6f7469766174696f6e5c6e5c6e2d205072657365727665207468652038206461797320766f74696e6720706572696f64206475726174696f6e206166746572207468652043656c6f20626c6f636b636861696e2773204c32207472616e736974696f6e5c6e5c6e2323232320546563686e6963616c20526174696f6e616c655c6e5c6e2d2043656c6f20626c6f636b2074696d6520726564756374696f6e2066726f6d20357320746f203173206e656365737369746174657320766f74696e6720706572696f6420626c6f636b20636f756e742061646a7573746d656e745c6e2d2043757272656e743a2031333832343020626c6f636b732061742035732070657220626c6f636b20e28988203820646179735c6e2d2050726f706f7365643a2036393132303020626c6f636b732061742031732070657220626c6f636b20e28988203820646179735c6e5c6e2323232320496d706c656d656e746174696f6e2044657461696c735c6e5c6e2d204f6e6520756e69717565207472616e73616374696f6e3a5c6e2020312e2055706461746520766f74696e6720706572696f6420696e204d656e746f476f7665726e6f7220636f6e74726163745c6e5c6e232323232054657374696e675c6e5c6e2d2056616c696461746520766f74696e6720706572696f6420776974682031207365636f6e6420626c6f636b2074696d655c6e222c227469746c65223a224d47502d343a2055706461746520766f74696e6720706572696f64206168656164206f66204c32207472616e736974696f6e2d31373431383633313133227d00000000000000000000000000000000000000",
        "nonce": "0xba2",
        "chainId": "0xaef3"
      },
      "additionalContracts": [],
      "isFixedGasLimit": false
    }
  ],
  "receipts": [
    {
      "status": "0x1",
      "cumulativeGasUsed": "0xb0af4",
      "logs": [
        {
          "address": "0x558e92236f85bb4e8a63ec0d5bf9d34087eab744",
          "topics": [
            "0x7d84a6263ae0d98d3329bd7b46bb4e8d6f98cd35a7adb45c274c8b7fd5ebd5e0"
          ],
          "data": "0x0d1757baf5af078932e6e36ab950fd2575362c0b58792ef5bf5291e31d57f26a00000000000000000000000056fd3f2bee130e9867942d0f463a16fbe49b8d810000000000000000000000000000000000000000000000000000000000000120000000000000000000000000000000000000000000000000000000000000016000000000000000000000000000000000000000000000000000000000000001a00000000000000000000000000000000000000000000000000000000000000200000000000000000000000000000000000000000000000000000000000270345d000000000000000000000000000000000000000000000000000000000270358900000000000000000000000000000000000000000000000000000000000002a00000000000000000000000000000000000000000000000000000000000000001000000000000000000000000558e92236f85bb4e8a63ec0d5bf9d34087eab74400000000000000000000000000000000000000000000000000000000000000010000000000000000000000000000000000000000000000000000000000000000000000000000000000000000000000000000000000000000000000000000000100000000000000000000000000000000000000000000000000000000000000200000000000000000000000000000000000000000000000000000000000000000000000000000000000000000000000000000000000000000000000000000000100000000000000000000000000000000000000000000000000000000000000200000000000000000000000000000000000000000000000000000000000000024ea0217cf000000000000000000000000000000000000000000000000000000000000012c00000000000000000000000000000000000000000000000000000000000000000000000000000000000000000000000000000000000000000000044d7b226465736372697074696f6e223a22232323204d475030343a2055706461746520676f7665726e616e636520766f74696e6720706572696f64206168656164206f662043656c6f204c32205472616e736974696f6e5c6e5c6e23232323204465736372697074696f6e5c6e5c6e576974682043656c6f2773207472616e736974696f6e20746f20616e204c322c2074686520626c6f636b2074696d652077696c6c20626520726564756365642066726f6d2035207365636f6e647320746f2031207365636f6e642e20546869732070726f706f73616c20656e737572657320746861742074686520676f7665726e616e636520766f74696e6720706572696f642072656d61696e7320636f6e73697374656e742061667465722074686520757067726164652c206174203820646179732e5c6e5c6e23232323204368616e6765735c6e5c6e312e2041646a75737420766f74696e6720706572696f6420746f206d61696e7461696e203820646179206475726174696f6e3a5c6e2020202d204f6e2043656c6f206d61696e6e65742c20696e6372656173652066726f6d2031333832343020626c6f636b7320746f2036393132303020626c6f636b735c6e2020202d204163636f756e74696e6720666f72207265647563656420626c6f636b2074696d652028317320696e7374656164206f66203573295c6e5c6e23232323204d6f7469766174696f6e5c6e5c6e2d205072657365727665207468652038206461797320766f74696e6720706572696f64206475726174696f6e206166746572207468652043656c6f20626c6f636b636861696e2773204c32207472616e736974696f6e5c6e5c6e2323232320546563686e6963616c20526174696f6e616c655c6e5c6e2d2043656c6f20626c6f636b2074696d6520726564756374696f6e2066726f6d20357320746f203173206e656365737369746174657320766f74696e6720706572696f6420626c6f636b20636f756e742061646a7573746d656e745c6e2d2043757272656e743a2031333832343020626c6f636b732061742035732070657220626c6f636b20e28988203820646179735c6e2d2050726f706f7365643a2036393132303020626c6f636b732061742031732070657220626c6f636b20e28988203820646179735c6e5c6e2323232320496d706c656d656e746174696f6e2044657461696c735c6e5c6e2d204f6e6520756e69717565207472616e73616374696f6e3a5c6e2020312e2055706461746520766f74696e6720706572696f6420696e204d656e746f476f7665726e6f7220636f6e74726163745c6e5c6e232323232054657374696e675c6e5c6e2d2056616c696461746520766f74696e6720706572696f6420776974682031207365636f6e6420626c6f636b2074696d655c6e222c227469746c65223a224d47502d343a2055706461746520766f74696e6720706572696f64206168656164206f66204c32207472616e736974696f6e2d31373431383633313133227d00000000000000000000000000000000000000",
          "blockHash": "0xed03125ce57cc2db521277a8e294b5788359abefa10ab96d6edfa57d3721f6b3",
          "blockNumber": "0x270345d",
          "transactionHash": "0x4a380d31ee7d308caa8e3b2fb9437303566ba6dfea47542955a3a094a418625d",
          "transactionIndex": "0x1",
          "logIndex": "0x0",
          "removed": false
        }
      ],
      "logsBloom": "0x00000000000000000000000000000000000000000000000000000000000000000000000000000000000000000000000000000000000000000000000000000000000000000002080000000000000000000000000000000000000000000000000000000000000000000000000000000000004000000000000000000000000000000000000000000000000000000000000000000000000000000000000000000000080000000000000000000000000000000000000000000000000000000000000200000000000000000000000000000000000000000000000000000000000000000000000000000000000000000000000000000000000000000000000000002000",
      "type": "0x0",
      "transactionHash": "0x4a380d31ee7d308caa8e3b2fb9437303566ba6dfea47542955a3a094a418625d",
      "transactionIndex": "0x1",
      "blockHash": "0xed03125ce57cc2db521277a8e294b5788359abefa10ab96d6edfa57d3721f6b3",
      "blockNumber": "0x270345d",
      "gasUsed": "0xa6006",
      "effectiveGasPrice": "0x5d22cfc40",
      "from": "0x56fd3f2bee130e9867942d0f463a16fbe49b8d81",
      "to": "0x558e92236f85bb4e8a63ec0d5bf9d34087eab744",
      "contractAddress": null,
      "l1BaseFeeScalar": "0x0",
      "l1BlobBaseFee": "0x1",
      "l1BlobBaseFeeScalar": "0x0",
      "l1Fee": "0x0",
      "l1GasPrice": "0x7",
      "l1GasUsed": "0x2d62"
    }
  ],
  "libraries": [
    "lib/mento-core-2.0.0/contracts/common/linkedlists/AddressLinkedList.sol:AddressLinkedList:0x2F0F7686fFFEfc3C266403Ad600035581deaedff",
    "lib/mento-core-2.0.0/contracts/common/linkedlists/AddressSortedLinkedListWithMedian.sol:AddressSortedLinkedListWithMedian:0x29B1B5e05217c751038861aF2C77494EAB10A257"
  ],
  "pending": [],
  "returns": {},
  "timestamp": 1741863211,
  "chain": 44787,
  "commit": "994ced9"
}