{
  "transactions": [
    {
      "hash": "0xecca859c1714b792b1db321cf586eaa333c1af1244cbb1bf33caf9d0b86bedf4",
      "transactionType": "CALL",
      "contractName": null,
      "contractAddress": "0x558e92236f85bb4e8a63ec0d5bf9d34087eab744",
      "function": "propose(address[],uint256[],bytes[],string)",
      "arguments": [
        "[0xD0e0eeEF2325A5518104Af1B5ab2395EfEa900a6]",
        "[0]",
        "[0x7eff275e000000000000000000000000537cae97c588c6da64a385817f3d3563ddcf05910000000000000000000000006d336330947ec0895c58a46fefc7a194207ad914]",
        "https://CHANGE-ME-PLEASE-1733398717"
      ],
      "transaction": {
        "from": "0x56fd3f2bee130e9867942d0f463a16fbe49b8d81",
        "to": "0x558e92236f85bb4e8a63ec0d5bf9d34087eab744",
        "gas": "0xb10d6",
        "value": "0x0",
        "input": "0x7d5e81e2000000000000000000000000000000000000000000000000000000000000008000000000000000000000000000000000000000000000000000000000000000c0000000000000000000000000000000000000000000000000000000000000010000000000000000000000000000000000000000000000000000000000000001c00000000000000000000000000000000000000000000000000000000000000001000000000000000000000000d0e0eeef2325a5518104af1b5ab2395efea900a6000000000000000000000000000000000000000000000000000000000000000100000000000000000000000000000000000000000000000000000000000000000000000000000000000000000000000000000000000000000000000000000001000000000000000000000000000000000000000000000000000000000000002000000000000000000000000000000000000000000000000000000000000000447eff275e000000000000000000000000537cae97c588c6da64a385817f3d3563ddcf05910000000000000000000000006d336330947ec0895c58a46fefc7a194207ad91400000000000000000000000000000000000000000000000000000000000000000000000000000000000000000000000000000000000000000000002368747470733a2f2f4348414e47452d4d452d504c454153452d313733333339383731370000000000000000000000000000000000000000000000000000000000",
        "nonce": "0x6f2",
        "chainId": "0xaef3"
      },
      "additionalContracts": [],
      "isFixedGasLimit": false
    }
  ],
  "receipts": [
    {
      "status": "0x1",
      "cumulativeGasUsed": "0x941c3",
      "logs": [
        {
          "address": "0x558e92236f85bb4e8a63ec0d5bf9d34087eab744",
          "topics": [
            "0x7d84a6263ae0d98d3329bd7b46bb4e8d6f98cd35a7adb45c274c8b7fd5ebd5e0"
          ],
          "data": "0x25fee1e61c77a0bfa8afd7d449c39464b246ca0e6e26337393911ed3d287142200000000000000000000000056fd3f2bee130e9867942d0f463a16fbe49b8d810000000000000000000000000000000000000000000000000000000000000120000000000000000000000000000000000000000000000000000000000000016000000000000000000000000000000000000000000000000000000000000001a000000000000000000000000000000000000000000000000000000000000002000000000000000000000000000000000000000000000000000000000001ef0c210000000000000000000000000000000000000000000000000000000001ef0c5d00000000000000000000000000000000000000000000000000000000000002c00000000000000000000000000000000000000000000000000000000000000001000000000000000000000000d0e0eeef2325a5518104af1b5ab2395efea900a6000000000000000000000000000000000000000000000000000000000000000100000000000000000000000000000000000000000000000000000000000000000000000000000000000000000000000000000000000000000000000000000001000000000000000000000000000000000000000000000000000000000000002000000000000000000000000000000000000000000000000000000000000000000000000000000000000000000000000000000000000000000000000000000001000000000000000000000000000000000000000000000000000000000000002000000000000000000000000000000000000000000000000000000000000000447eff275e000000000000000000000000537cae97c588c6da64a385817f3d3563ddcf05910000000000000000000000006d336330947ec0895c58a46fefc7a194207ad91400000000000000000000000000000000000000000000000000000000000000000000000000000000000000000000000000000000000000000000002368747470733a2f2f4348414e47452d4d452d504c454153452d313733333339383731370000000000000000000000000000000000000000000000000000000000",
          "blockHash": "0x48feda4869385144105aaeec8b41400b7ffe72d98bb12618d02b46f798b8c954",
          "blockNumber": "0x1ef0c21",
          "transactionHash": "0xecca859c1714b792b1db321cf586eaa333c1af1244cbb1bf33caf9d0b86bedf4",
          "transactionIndex": "0x2",
          "logIndex": "0x1",
          "removed": false
        }
      ],
      "logsBloom": "0x00000000000000000000000000000000000000000000000000000000000000000000000000000000000000000000000000000000000000000000000000000000000000000002080000000000000000000000000000000000000000000000000000000000000000000000000000000000004000000000000000000000000000000000000000000000000000000000000000000000000000000000000000000000080000000000000000000000000000000000000000000000000000000000000200000000000000000000000000000000000000000000000000000000000000000000000000000000000000000000000000000000000000000000000000002000",
      "type": "0x0",
      "transactionHash": "0xecca859c1714b792b1db321cf586eaa333c1af1244cbb1bf33caf9d0b86bedf4",
      "transactionIndex": "0x2",
      "blockHash": "0x48feda4869385144105aaeec8b41400b7ffe72d98bb12618d02b46f798b8c954",
      "blockNumber": "0x1ef0c21",
      "gasUsed": "0x802ed",
      "effectiveGasPrice": "0x5d22cfc40",
      "from": "0x56fd3f2bee130e9867942d0f463a16fbe49b8d81",
      "to": "0x558e92236f85bb4e8a63ec0d5bf9d34087eab744",
      "contractAddress": null,
      "l1BaseFeeScalar": "0x558",
      "l1BlobBaseFee": "0x1",
      "l1BlobBaseFeeScalar": "0xc5fc5",
      "l1Fee": "0xc7",
      "l1GasPrice": "0x8",
      "l1GasUsed": "0xca8"
    }
  ],
  "libraries": [
    "lib/mento-core-2.0.0/contracts/common/linkedlists/AddressLinkedList.sol:AddressLinkedList:0x2F0F7686fFFEfc3C266403Ad600035581deaedff",
    "lib/mento-core-2.0.0/contracts/common/linkedlists/AddressSortedLinkedListWithMedian.sol:AddressSortedLinkedListWithMedian:0x29B1B5e05217c751038861aF2C77494EAB10A257"
  ],
  "pending": [],
  "returns": {},
  "timestamp": 1733398746,
  "chain": 44787,
  "commit": "82d1e53"
}