{
  "transactions": [
    {
      "hash": "0x0a5baae0ffaf8b35e2413eeba36a982b02152e4dbfc1aa15dcbb61ad738e73cf",
      "transactionType": "CALL",
      "contractName": null,
      "contractAddress": "0x558e92236f85Bb4e8A63ec0D5Bf9d34087Eab744",
      "function": "propose(address[],uint256[],bytes[],string)",
      "arguments": [
        "[0xD3Dff18E465bCa6241A244144765b4421Ac14D09, 0x9B64E8EaBD1a035b148cE970d3319c5C3Ad53EC3, 0xa7ed835288Aa4524bB6C73DD23c0bF4315D9Fe3e, 0x874069Fa1Eb16D44d622F2e0Ca25eeA172369bC1, 0x10c892A6EC43a53E45D0B916B4b7D383B1b78C0F, 0xE4D517785D091D3c54818832dB6094bcc2744545, 0xB0FA15e002516d0301884059c0aaC0F0C72b019D, 0x1E0433C1769271ECcF4CFF9FDdD515eefE6CdF92, 0x5E0E3c9419C42a1B04e2525991FB1A2C467AB8bF, 0xe6A57340f0df6E020c1c0a80bC6E13048601f0d4, 0x9B64E8EaBD1a035b148cE970d3319c5C3Ad53EC3, 0xC76BDf0AFb654888728003683cf748A8B1b4f5fD]",
        "[0, 0, 0, 0, 0, 0, 0, 0, 0, 0, 0, 0]",
        "[0xbb913f4100000000000000000000000010af959db3f88ad80769d27b5012ebf4b9ceb4ac, 0xbb913f4100000000000000000000000084b951e8c234c8d3dca3129129bb16d2fe35034c, 0xbb913f410000000000000000000000005a6f8376d3029bb2f11d61bc1a55068603a5db66, 0xbb913f410000000000000000000000001140d3cc34d02a3cb25707d125d4e4843815503d, 0xbb913f410000000000000000000000001140d3cc34d02a3cb25707d125d4e4843815503d, 0xbb913f410000000000000000000000001140d3cc34d02a3cb25707d125d4e4843815503d, 0xbb913f410000000000000000000000001140d3cc34d02a3cb25707d125d4e4843815503d, 0xbb913f410000000000000000000000001140d3cc34d02a3cb25707d125d4e4843815503d, 0xbb913f410000000000000000000000001140d3cc34d02a3cb25707d125d4e4843815503d, 0xbb913f410000000000000000000000001140d3cc34d02a3cb25707d125d4e4843815503d, 0xe46eb5b61c9378bd0973ff313a599d3effc654ba759f8ccca655ab6d6ce5bd39a212943b000000000000000000000000000000000000000000000000000000000000000f, 0x360e10ae0000000000000000000000000196d1f4fda21fa442e53eaf18bf31282f6139f1]",
        "https://TODO-1730383360"
      ],
      "transaction": {
        "from": "0x56fD3F2bEE130e9867942D0F463a16fBE49B8d81",
        "to": "0x558e92236f85Bb4e8A63ec0D5Bf9d34087Eab744",
        "gas": "0x230651",
        "value": "0x0",
        "input": "0x7d5e81e20000000000000000000000000000000000000000000000000000000000000080000000000000000000000000000000000000000000000000000000000000022000000000000000000000000000000000000000000000000000000000000003c00000000000000000000000000000000000000000000000000000000000000a00000000000000000000000000000000000000000000000000000000000000000c000000000000000000000000d3dff18e465bca6241a244144765b4421ac14d090000000000000000000000009b64e8eabd1a035b148ce970d3319c5c3ad53ec3000000000000000000000000a7ed835288aa4524bb6c73dd23c0bf4315d9fe3e000000000000000000000000874069fa1eb16d44d622f2e0ca25eea172369bc100000000000000000000000010c892a6ec43a53e45d0b916b4b7d383b1b78c0f000000000000000000000000e4d517785d091d3c54818832db6094bcc2744545000000000000000000000000b0fa15e002516d0301884059c0aac0f0c72b019d0000000000000000000000001e0433c1769271eccf4cff9fddd515eefe6cdf920000000000000000000000005e0e3c9419c42a1b04e2525991fb1a2c467ab8bf000000000000000000000000e6a57340f0df6e020c1c0a80bc6e13048601f0d40000000000000000000000009b64e8eabd1a035b148ce970d3319c5c3ad53ec3000000000000000000000000c76bdf0afb654888728003683cf748a8b1b4f5fd000000000000000000000000000000000000000000000000000000000000000c000000000000000000000000000000000000000000000000000000000000000000000000000000000000000000000000000000000000000000000000000000000000000000000000000000000000000000000000000000000000000000000000000000000000000000000000000000000000000000000000000000000000000000000000000000000000000000000000000000000000000000000000000000000000000000000000000000000000000000000000000000000000000000000000000000000000000000000000000000000000000000000000000000000000000000000000000000000000000000000000000000000000000000000000000000000000000000000000000000000000000000000000000000000000000000000000000000000000000000000000000000000000000000000000000000000000000000000000000000000000000000000000000000000000000000000000000000000000000000000000000000000000000000000000000000000000000000000000000000000000000000000000000000000000000000000000000000000000000c000000000000000000000000000000000000000000000000000000000000018000000000000000000000000000000000000000000000000000000000000001e0000000000000000000000000000000000000000000000000000000000000024000000000000000000000000000000000000000000000000000000000000002a00000000000000000000000000000000000000000000000000000000000000300000000000000000000000000000000000000000000000000000000000000036000000000000000000000000000000000000000000000000000000000000003c00000000000000000000000000000000000000000000000000000000000000420000000000000000000000000000000000000000000000000000000000000048000000000000000000000000000000000000000000000000000000000000004e0000000000000000000000000000000000000000000000000000000000000054000000000000000000000000000000000000000000000000000000000000005c00000000000000000000000000000000000000000000000000000000000000024bb913f4100000000000000000000000010af959db3f88ad80769d27b5012ebf4b9ceb4ac000000000000000000000000000000000000000000000000000000000000000000000000000000000000000000000000000000000000000000000024bb913f4100000000000000000000000084b951e8c234c8d3dca3129129bb16d2fe35034c000000000000000000000000000000000000000000000000000000000000000000000000000000000000000000000000000000000000000000000024bb913f410000000000000000000000005a6f8376d3029bb2f11d61bc1a55068603a5db66000000000000000000000000000000000000000000000000000000000000000000000000000000000000000000000000000000000000000000000024bb913f410000000000000000000000001140d3cc34d02a3cb25707d125d4e4843815503d000000000000000000000000000000000000000000000000000000000000000000000000000000000000000000000000000000000000000000000024bb913f410000000000000000000000001140d3cc34d02a3cb25707d125d4e4843815503d000000000000000000000000000000000000000000000000000000000000000000000000000000000000000000000000000000000000000000000024bb913f410000000000000000000000001140d3cc34d02a3cb25707d125d4e4843815503d000000000000000000000000000000000000000000000000000000000000000000000000000000000000000000000000000000000000000000000024bb913f410000000000000000000000001140d3cc34d02a3cb25707d125d4e4843815503d000000000000000000000000000000000000000000000000000000000000000000000000000000000000000000000000000000000000000000000024bb913f410000000000000000000000001140d3cc34d02a3cb25707d125d4e4843815503d000000000000000000000000000000000000000000000000000000000000000000000000000000000000000000000000000000000000000000000024bb913f410000000000000000000000001140d3cc34d02a3cb25707d125d4e4843815503d000000000000000000000000000000000000000000000000000000000000000000000000000000000000000000000000000000000000000000000024bb913f410000000000000000000000001140d3cc34d02a3cb25707d125d4e4843815503d000000000000000000000000000000000000000000000000000000000000000000000000000000000000000000000000000000000000000000000044e46eb5b61c9378bd0973ff313a599d3effc654ba759f8ccca655ab6d6ce5bd39a212943b000000000000000000000000000000000000000000000000000000000000000f000000000000000000000000000000000000000000000000000000000000000000000000000000000000000000000000000000000000000000000024360e10ae0000000000000000000000000196d1f4fda21fa442e53eaf18bf31282f6139f100000000000000000000000000000000000000000000000000000000000000000000000000000000000000000000000000000000000000000000001768747470733a2f2f544f444f2d31373330333833333630000000000000000000",
        "nonce": "0x6a7",
        "chainId": "0xaef3"
      },
      "additionalContracts": [],
      "isFixedGasLimit": false
    }
  ],
  "receipts": [
    {
      "status": "0x1",
      "cumulativeGasUsed": "0x22c370",
      "logs": [
        {
          "address": "0x558e92236f85Bb4e8A63ec0D5Bf9d34087Eab744",
          "topics": [
            "0x7d84a6263ae0d98d3329bd7b46bb4e8d6f98cd35a7adb45c274c8b7fd5ebd5e0"
          ],
          "data": "0xde8b4278836e11b124476371b67760e005efd8ee84e7970c25778e2ab7b973f900000000000000000000000056fd3f2bee130e9867942d0f463a16fbe49b8d81000000000000000000000000000000000000000000000000000000000000012000000000000000000000000000000000000000000000000000000000000002c0000000000000000000000000000000000000000000000000000000000000046000000000000000000000000000000000000000000000000000000000000007800000000000000000000000000000000000000000000000000000000001c109730000000000000000000000000000000000000000000000000000000001c109af0000000000000000000000000000000000000000000000000000000000000dc0000000000000000000000000000000000000000000000000000000000000000c000000000000000000000000d3dff18e465bca6241a244144765b4421ac14d090000000000000000000000009b64e8eabd1a035b148ce970d3319c5c3ad53ec3000000000000000000000000a7ed835288aa4524bb6c73dd23c0bf4315d9fe3e000000000000000000000000874069fa1eb16d44d622f2e0ca25eea172369bc100000000000000000000000010c892a6ec43a53e45d0b916b4b7d383b1b78c0f000000000000000000000000e4d517785d091d3c54818832db6094bcc2744545000000000000000000000000b0fa15e002516d0301884059c0aac0f0c72b019d0000000000000000000000001e0433c1769271eccf4cff9fddd515eefe6cdf920000000000000000000000005e0e3c9419c42a1b04e2525991fb1a2c467ab8bf000000000000000000000000e6a57340f0df6e020c1c0a80bc6e13048601f0d40000000000000000000000009b64e8eabd1a035b148ce970d3319c5c3ad53ec3000000000000000000000000c76bdf0afb654888728003683cf748a8b1b4f5fd000000000000000000000000000000000000000000000000000000000000000c000000000000000000000000000000000000000000000000000000000000000000000000000000000000000000000000000000000000000000000000000000000000000000000000000000000000000000000000000000000000000000000000000000000000000000000000000000000000000000000000000000000000000000000000000000000000000000000000000000000000000000000000000000000000000000000000000000000000000000000000000000000000000000000000000000000000000000000000000000000000000000000000000000000000000000000000000000000000000000000000000000000000000000000000000000000000000000000000000000000000000000000000000000000000000000000000000000000000000000000000000000000000000000000000000000000000000000000000000000000000000000000000000000000000000000000000000000000000000000000000000000000000000000000000000000000000000000000000000000000000000000000000000000000000000000000000000000000000000c000000000000000000000000000000000000000000000000000000000000018000000000000000000000000000000000000000000000000000000000000001a000000000000000000000000000000000000000000000000000000000000001c000000000000000000000000000000000000000000000000000000000000001e00000000000000000000000000000000000000000000000000000000000000200000000000000000000000000000000000000000000000000000000000000022000000000000000000000000000000000000000000000000000000000000002400000000000000000000000000000000000000000000000000000000000000260000000000000000000000000000000000000000000000000000000000000028000000000000000000000000000000000000000000000000000000000000002a000000000000000000000000000000000000000000000000000000000000002c000000000000000000000000000000000000000000000000000000000000002e0000000000000000000000000000000000000000000000000000000000000000000000000000000000000000000000000000000000000000000000000000000000000000000000000000000000000000000000000000000000000000000000000000000000000000000000000000000000000000000000000000000000000000000000000000000000000000000000000000000000000000000000000000000000000000000000000000000000000000000000000000000000000000000000000000000000000000000000000000000000000000000000000000000000000000000000000000000000000000000000000000000000000000000000000000000000000000000000000000000000000000000000000000000000000000000000000000000000000000000000000000000000000000000000000000000000000000000000000000000000000000000000000000000000000000000000000000000000000000000000000000000000000000000000000000000000000000000000000000000000000000000000000000000000000000000000000000000000000000c000000000000000000000000000000000000000000000000000000000000018000000000000000000000000000000000000000000000000000000000000001e0000000000000000000000000000000000000000000000000000000000000024000000000000000000000000000000000000000000000000000000000000002a00000000000000000000000000000000000000000000000000000000000000300000000000000000000000000000000000000000000000000000000000000036000000000000000000000000000000000000000000000000000000000000003c00000000000000000000000000000000000000000000000000000000000000420000000000000000000000000000000000000000000000000000000000000048000000000000000000000000000000000000000000000000000000000000004e0000000000000000000000000000000000000000000000000000000000000054000000000000000000000000000000000000000000000000000000000000005c00000000000000000000000000000000000000000000000000000000000000024bb913f4100000000000000000000000010af959db3f88ad80769d27b5012ebf4b9ceb4ac000000000000000000000000000000000000000000000000000000000000000000000000000000000000000000000000000000000000000000000024bb913f4100000000000000000000000084b951e8c234c8d3dca3129129bb16d2fe35034c000000000000000000000000000000000000000000000000000000000000000000000000000000000000000000000000000000000000000000000024bb913f410000000000000000000000005a6f8376d3029bb2f11d61bc1a55068603a5db66000000000000000000000000000000000000000000000000000000000000000000000000000000000000000000000000000000000000000000000024bb913f410000000000000000000000001140d3cc34d02a3cb25707d125d4e4843815503d000000000000000000000000000000000000000000000000000000000000000000000000000000000000000000000000000000000000000000000024bb913f410000000000000000000000001140d3cc34d02a3cb25707d125d4e4843815503d000000000000000000000000000000000000000000000000000000000000000000000000000000000000000000000000000000000000000000000024bb913f410000000000000000000000001140d3cc34d02a3cb25707d125d4e4843815503d000000000000000000000000000000000000000000000000000000000000000000000000000000000000000000000000000000000000000000000024bb913f410000000000000000000000001140d3cc34d02a3cb25707d125d4e4843815503d000000000000000000000000000000000000000000000000000000000000000000000000000000000000000000000000000000000000000000000024bb913f410000000000000000000000001140d3cc34d02a3cb25707d125d4e4843815503d000000000000000000000000000000000000000000000000000000000000000000000000000000000000000000000000000000000000000000000024bb913f410000000000000000000000001140d3cc34d02a3cb25707d125d4e4843815503d000000000000000000000000000000000000000000000000000000000000000000000000000000000000000000000000000000000000000000000024bb913f410000000000000000000000001140d3cc34d02a3cb25707d125d4e4843815503d000000000000000000000000000000000000000000000000000000000000000000000000000000000000000000000000000000000000000000000044e46eb5b61c9378bd0973ff313a599d3effc654ba759f8ccca655ab6d6ce5bd39a212943b000000000000000000000000000000000000000000000000000000000000000f000000000000000000000000000000000000000000000000000000000000000000000000000000000000000000000000000000000000000000000024360e10ae0000000000000000000000000196d1f4fda21fa442e53eaf18bf31282f6139f100000000000000000000000000000000000000000000000000000000000000000000000000000000000000000000000000000000000000000000001768747470733a2f2f544f444f2d31373330333833333630000000000000000000",
          "blockHash": "0xb6b43e78d647552dd98161d47d961381a437315757d3a681b786e476cb658646",
          "blockNumber": "0x1c10973",
          "transactionHash": "0x0a5baae0ffaf8b35e2413eeba36a982b02152e4dbfc1aa15dcbb61ad738e73cf",
          "transactionIndex": "0x5",
          "logIndex": "0x4",
          "removed": false
        }
      ],
      "logsBloom": "0x00000000000000000000000000000000000000000000000000000000000000000000000000000000000000000000000000000000000000000000000000000000000000000002080000000000000000000000000000000000000000000000000000000000000000000000000000000000004000000000000000000000000000000000000000000000000000000000000000000000000000000000000000000000080000000000000000000000000000000000000000000000000000000000000200000000000000000000000000000000000000000000000000000000000000000000000000000000000000000000000000000000000000000000000000002000",
      "type": "0x0",
      "transactionHash": "0x0a5baae0ffaf8b35e2413eeba36a982b02152e4dbfc1aa15dcbb61ad738e73cf",
      "transactionIndex": "0x5",
      "blockHash": "0xb6b43e78d647552dd98161d47d961381a437315757d3a681b786e476cb658646",
      "blockNumber": "0x1c10973",
      "gasUsed": "0x17f2d1",
      "effectiveGasPrice": "0x5d22cfc40",
      "from": "0x56fD3F2bEE130e9867942D0F463a16fBE49B8d81",
      "to": "0x558e92236f85Bb4e8A63ec0D5Bf9d34087Eab744",
      "contractAddress": null,
      "l1BaseFeeScalar": "0x558",
      "l1BlobBaseFee": "0x1",
      "l1BlobBaseFeeScalar": "0xc5fc5",
      "l1Fee": "0x4a528",
      "l1GasPrice": "0x59ad",
      "l1GasUsed": "0x25cd"
    }
  ],
  "libraries": [
    "lib/mento-core-2.0.0/contracts/common/linkedlists/AddressLinkedList.sol:AddressLinkedList:0x2F0F7686fFFEfc3C266403Ad600035581deaedff",
    "lib/mento-core-2.0.0/contracts/common/linkedlists/AddressSortedLinkedListWithMedian.sol:AddressSortedLinkedListWithMedian:0x29B1B5e05217c751038861aF2C77494EAB10A257"
  ],
  "pending": [],
  "returns": {},
  "timestamp": 1730383409,
  "chain": 44787,
  "commit": "5b2867c"
}