{
  "transactions": [
    {
      "hash": "0x6471f7d63a6ad61f4df3400c6ed42c624ef19e0513e2d266b71ae8321646ef79",
      "transactionType": "CALL",
      "contractName": null,
      "contractAddress": "0x558e92236f85bb4e8a63ec0d5bf9d34087eab744",
      "function": "execute(uint256)",
      "arguments": [
        "17185913648748283551476087525439349161245318829402883655775796246098324427810"
      ],
      "transaction": {
        "from": "0x56fd3f2bee130e9867942d0f463a16fbe49b8d81",
        "to": "0x558e92236f85bb4e8a63ec0d5bf9d34087eab744",
        "gas": "0x475f9",
        "value": "0x0",
        "input": "0xfe0d94c125fee1e61c77a0bfa8afd7d449c39464b246ca0e6e26337393911ed3d2871422",
        "nonce": "0x6f5",
        "chainId": "0xaef3"
      },
      "additionalContracts": [],
      "isFixedGasLimit": false
    }
  ],
  "receipts": [
    {
      "status": "0x1",
      "cumulativeGasUsed": "0x4b18f",
      "logs": [
        {
          "address": "0x558e92236f85bb4e8a63ec0d5bf9d34087eab744",
          "topics": [
            "0x712ae1383f79ac853f8d882153778e0260ef8f03b504e2866e0593e04d2b291f"
          ],
          "data": "0x25fee1e61c77a0bfa8afd7d449c39464b246ca0e6e26337393911ed3d2871422",
          "blockHash": "0x90710923c6c997c90f30fbaccb34b6122dbc362ba591f7ecbd1ce05ddca5b20b",
          "blockNumber": "0x1ef100a",
          "transactionHash": "0x6471f7d63a6ad61f4df3400c6ed42c624ef19e0513e2d266b71ae8321646ef79",
          "transactionIndex": "0x2",
          "logIndex": "0x1",
          "removed": false
        },
        {
          "address": "0x537cae97c588c6da64a385817f3d3563ddcf0591",
          "topics": [
            "0x7e644d79422f17c01e4894b5f4f588d331ebfa28653d42ae832dc59e38c9798f"
          ],
          "data": "0x000000000000000000000000d0e0eeef2325a5518104af1b5ab2395efea900a60000000000000000000000006d336330947ec0895c58a46fefc7a194207ad914",
          "blockHash": "0x90710923c6c997c90f30fbaccb34b6122dbc362ba591f7ecbd1ce05ddca5b20b",
          "blockNumber": "0x1ef100a",
          "transactionHash": "0x6471f7d63a6ad61f4df3400c6ed42c624ef19e0513e2d266b71ae8321646ef79",
          "transactionIndex": "0x2",
          "logIndex": "0x2",
          "removed": false
        },
        {
          "address": "0xa0ad8dd40104556122c21df50ed14bb1b53a3338",
          "topics": [
            "0xc2617efa69bab66782fa219543714338489c4e9e178271560a91b82c3f612b58",
            "0x8039b5f43e36a1e231d2e130ee0e7d0edce4376527e97dd3b8f31164256ed91e",
            "0x0000000000000000000000000000000000000000000000000000000000000000"
          ],
          "data": "0x000000000000000000000000d0e0eeef2325a5518104af1b5ab2395efea900a60000000000000000000000000000000000000000000000000000000000000000000000000000000000000000000000000000000000000000000000000000006000000000000000000000000000000000000000000000000000000000000000447eff275e000000000000000000000000537cae97c588c6da64a385817f3d3563ddcf05910000000000000000000000006d336330947ec0895c58a46fefc7a194207ad91400000000000000000000000000000000000000000000000000000000",
          "blockHash": "0x90710923c6c997c90f30fbaccb34b6122dbc362ba591f7ecbd1ce05ddca5b20b",
          "blockNumber": "0x1ef100a",
          "transactionHash": "0x6471f7d63a6ad61f4df3400c6ed42c624ef19e0513e2d266b71ae8321646ef79",
          "transactionIndex": "0x2",
          "logIndex": "0x3",
          "removed": false
        }
      ],
      "logsBloom": "0x00000000000000000000000000000080000000000000000000000000000000000080000000000000000000000000000000000020000800000000000010000000000000000000080000000000000000000000004000000000000000000000002000800000020000000000000000000800004000800000000000000000000000002000000000000000000000000000000000000000000000000000000000800000000000000020000000000000000800000000000000000000000020000000000800000000000000080000000000000000000000000400000000000000004020000000000000000000000000000000000000000000000000000000000000002000",
      "type": "0x0",
      "transactionHash": "0x6471f7d63a6ad61f4df3400c6ed42c624ef19e0513e2d266b71ae8321646ef79",
      "transactionIndex": "0x2",
      "blockHash": "0x90710923c6c997c90f30fbaccb34b6122dbc362ba591f7ecbd1ce05ddca5b20b",
      "blockNumber": "0x1ef100a",
      "gasUsed": "0x33ac5",
      "effectiveGasPrice": "0x5d22cfc40",
      "from": "0x56fd3f2bee130e9867942d0f463a16fbe49b8d81",
      "to": "0x558e92236f85bb4e8a63ec0d5bf9d34087eab744",
      "contractAddress": null,
      "l1BaseFeeScalar": "0x558",
      "l1BlobBaseFee": "0x1",
      "l1BlobBaseFeeScalar": "0xc5fc5",
      "l1Fee": "0x60",
      "l1GasPrice": "0x7",
      "l1GasUsed": "0x640"
    }
  ],
  "libraries": [
    "lib/mento-core-2.0.0/contracts/common/linkedlists/AddressLinkedList.sol:AddressLinkedList:0x2F0F7686fFFEfc3C266403Ad600035581deaedff",
    "lib/mento-core-2.0.0/contracts/common/linkedlists/AddressSortedLinkedListWithMedian.sol:AddressSortedLinkedListWithMedian:0x29B1B5e05217c751038861aF2C77494EAB10A257"
  ],
  "pending": [],
  "returns": {},
  "timestamp": 1733399746,
  "chain": 44787,
  "commit": "82d1e53"
}