{
  "transactions": [
    {
      "hash": "0x4f27adf53eceb52adb8f06a9a12996bf2d05eb7380819f4e4950925665e1fcb5",
      "transactionType": "CALL",
      "contractName": null,
      "contractAddress": "0xaa963fc97281d9632d96700ab62a4d1340f9a28a",
      "function": "execute(uint256,uint256)",
      "arguments": [
        "310",
        "148"
      ],
      "transaction": {
        "from": "0x56fd3f2bee130e9867942d0f463a16fbe49b8d81",
        "to": "0xaa963fc97281d9632d96700ab62a4d1340f9a28a",
        "gas": "0x754fd",
        "value": "0x0",
        "input": "0x5601eaea00000000000000000000000000000000000000000000000000000000000001360000000000000000000000000000000000000000000000000000000000000094",
        "nonce": "0x4d9",
        "chainId": "0xaef3"
      },
      "additionalContracts": [],
      "isFixedGasLimit": false
    }
  ],
  "receipts": [
    {
      "status": "0x1",
      "cumulativeGasUsed": "0x5036a",
      "logs": [
        {
          "address": "0xfdd8bd58115ffbf04e47411c1d228ecc45e93075",
          "topics": [
            "0x828d2be040dede7698182e08dfa8bfbd663c879aee772509c4a2bd961d0ed43f",
            "0x000000000000000000000000e191cf46896e27b44dadf5c5b7314b5c9ef2f2c6",
            "0x0000000000000000000000007e73bc581fa3fe70a0f542713bed3b6115c0bcac"
          ],
          "data": "0x",
          "blockHash": "0x54424edb33d6d8e7fd5644eca180b8791e022398aa645e64757b8bc75cd560d7",
          "blockNumber": "0x1860401",
          "transactionHash": "0x4f27adf53eceb52adb8f06a9a12996bf2d05eb7380819f4e4950925665e1fcb5",
          "transactionIndex": "0x0",
          "logIndex": "0x0",
          "removed": false
        },
        {
          "address": "0xfdd8bd58115ffbf04e47411c1d228ecc45e93075",
          "topics": [
            "0x828d2be040dede7698182e08dfa8bfbd663c879aee772509c4a2bd961d0ed43f",
            "0x000000000000000000000000aa04d30cced09ae17815f88d1bcae69a49fb160f",
            "0x000000000000000000000000bca8e76400f4a8bfbf8ec5bcb02ffc47447ff0b9"
          ],
          "data": "0x",
          "blockHash": "0x54424edb33d6d8e7fd5644eca180b8791e022398aa645e64757b8bc75cd560d7",
          "blockNumber": "0x1860401",
          "transactionHash": "0x4f27adf53eceb52adb8f06a9a12996bf2d05eb7380819f4e4950925665e1fcb5",
          "transactionIndex": "0x0",
          "logIndex": "0x1",
          "removed": false
        },
        {
          "address": "0xaa963fc97281d9632d96700ab62a4d1340f9a28a",
          "topics": [
            "0x712ae1383f79ac853f8d882153778e0260ef8f03b504e2866e0593e04d2b291f",
            "0x0000000000000000000000000000000000000000000000000000000000000136"
          ],
          "data": "0x",
          "blockHash": "0x54424edb33d6d8e7fd5644eca180b8791e022398aa645e64757b8bc75cd560d7",
          "blockNumber": "0x1860401",
          "transactionHash": "0x4f27adf53eceb52adb8f06a9a12996bf2d05eb7380819f4e4950925665e1fcb5",
          "transactionIndex": "0x0",
          "logIndex": "0x2",
          "removed": false
        },
        {
          "address": "0xaa963fc97281d9632d96700ab62a4d1340f9a28a",
          "topics": [
            "0x51131d2820f04a6b6edd20e22a07d5bf847e265a3906e85256fca7d6043417c5"
          ],
          "data": "0x0000000000000000000000000000000000000000000033537ef3a509eeeba000",
          "blockHash": "0x54424edb33d6d8e7fd5644eca180b8791e022398aa645e64757b8bc75cd560d7",
          "blockNumber": "0x1860401",
          "transactionHash": "0x4f27adf53eceb52adb8f06a9a12996bf2d05eb7380819f4e4950925665e1fcb5",
          "transactionIndex": "0x0",
          "logIndex": "0x3",
          "removed": false
        }
      ],
      "logsBloom": "0x00000000000000000001000000018000000000000000400000000000000000400000000000000000800000010000000210000000000000000000000000000000000000000000000000084000010100000000004000000000080000000008000000000800001000000000000000008000010000000000000000000000000000000000000000200000000000000000000000000000000040000000000000000000000000800020000000000000000000400200000000000000000020000000000000000000040008000000000000000000000000000000000000010000000000000000000000000000000000000000000000000000000000000000000000000000",
      "type": "0x0",
      "transactionHash": "0x4f27adf53eceb52adb8f06a9a12996bf2d05eb7380819f4e4950925665e1fcb5",
      "transactionIndex": "0x0",
      "blockHash": "0x54424edb33d6d8e7fd5644eca180b8791e022398aa645e64757b8bc75cd560d7",
      "blockNumber": "0x1860401",
      "gasUsed": "0x5036a",
      "effectiveGasPrice": "0x2540be400",
      "from": "0x56fd3f2bee130e9867942d0f463a16fbe49b8d81",
      "to": "0xaa963fc97281d9632d96700ab62a4d1340f9a28a",
      "contractAddress": null
    }
  ],
  "libraries": [
    "lib/mento-core-2.0.0/contracts/common/linkedlists/AddressLinkedList.sol:AddressLinkedList:0x2F0F7686fFFEfc3C266403Ad600035581deaedff",
    "lib/mento-core-2.0.0/contracts/common/linkedlists/AddressSortedLinkedListWithMedian.sol:AddressSortedLinkedListWithMedian:0x29B1B5e05217c751038861aF2C77494EAB10A257"
  ],
  "pending": [],
  "returns": {},
  "timestamp": 1723211637,
  "chain": 44787,
  "commit": "849cad2"
}