{
  "transactions": [
    {
      "hash": "0x679ba5eeabaf04a25e4b4e845b3ce5375699d9889706d65557b16e53c6495f6d",
      "transactionType": "CALL",
      "contractName": null,
      "contractAddress": "0x47036d78bb3169b4f5560dd77bf93f4412a59852",
      "function": "propose(address[],uint256[],bytes[],string)",
      "arguments": [
        "[0x47036d78bB3169b4F5560dD77BF93f4412A59852]",
        "[0]",
        "[0xea0217cf00000000000000000000000000000000000000000000000000000000000a8c00]",
        "{\\\"description\\\":\\\"### MGP05: Update governance voting period ahead of Celo L2 Transition\\\\n\\\\n#### Description\\\\n\\\\nWith Celo\\'s transition to an L2, the block time will be reduced from 5 seconds to 1 second. This proposal ensures that the governance voting period remains consistent after the upgrade, at 8 days.\\\\n\\\\n#### Changes\\\\n\\\\n1. Adjust voting period to maintain 8 day duration:\\\\n   - On Celo mainnet, increase from 138240 blocks to 691200 blocks\\\\n   - Accounting for reduced block time (1s instead of 5s)\\\\n\\\\n#### Motivation\\\\n\\\\n- Preserve the 8 days voting period duration after the Celo blockchain\\'s L2 transition\\\\n\\\\n#### Technical Rationale\\\\n\\\\n- Celo block time reduction from 5s to 1s necessitates voting period block count adjustment\\\\n- Current: 138240 blocks at 5s per block ≈ 8 days\\\\n- Proposed: 691200 blocks at 1s per block ≈ 8 days\\\\n\\\\n#### Implementation Details\\\\n\\\\n- One unique transaction:\\\\n  1. Update voting period in MentoGovernor contract\\\\n\\\\n#### Testing\\\\n\\\\n- Validate voting period with 1 second block time\\\\n\\\",\\\"title\\\":\\\"MGP-5: Update voting period ahead of L2 transition\\\"}"
      ],
      "transaction": {
        "from": "0x56fd3f2bee130e9867942d0f463a16fbe49b8d81",
        "to": "0x47036d78bb3169b4f5560dd77bf93f4412a59852",
        "gas": "0x89f3c",
        "value": "0x0",
        "input": "0x7d5e81e2000000000000000000000000000000000000000000000000000000000000008000000000000000000000000000000000000000000000000000000000000000c0000000000000000000000000000000000000000000000000000000000000010000000000000000000000000000000000000000000000000000000000000001a0000000000000000000000000000000000000000000000000000000000000000100000000000000000000000047036d78bb3169b4f5560dd77bf93f4412a5985200000000000000000000000000000000000000000000000000000000000000010000000000000000000000000000000000000000000000000000000000000000000000000000000000000000000000000000000000000000000000000000000100000000000000000000000000000000000000000000000000000000000000200000000000000000000000000000000000000000000000000000000000000024ea0217cf00000000000000000000000000000000000000000000000000000000000a8c000000000000000000000000000000000000000000000000000000000000000000000000000000000000000000000000000000000000000000000004427b226465736372697074696f6e223a22232323204d475030353a2055706461746520676f7665726e616e636520766f74696e6720706572696f64206168656164206f662043656c6f204c32205472616e736974696f6e5c6e5c6e23232323204465736372697074696f6e5c6e5c6e576974682043656c6f2773207472616e736974696f6e20746f20616e204c322c2074686520626c6f636b2074696d652077696c6c20626520726564756365642066726f6d2035207365636f6e647320746f2031207365636f6e642e20546869732070726f706f73616c20656e737572657320746861742074686520676f7665726e616e636520766f74696e6720706572696f642072656d61696e7320636f6e73697374656e742061667465722074686520757067726164652c206174203820646179732e5c6e5c6e23232323204368616e6765735c6e5c6e312e2041646a75737420766f74696e6720706572696f6420746f206d61696e7461696e203820646179206475726174696f6e3a5c6e2020202d204f6e2043656c6f206d61696e6e65742c20696e6372656173652066726f6d2031333832343020626c6f636b7320746f2036393132303020626c6f636b735c6e2020202d204163636f756e74696e6720666f72207265647563656420626c6f636b2074696d652028317320696e7374656164206f66203573295c6e5c6e23232323204d6f7469766174696f6e5c6e5c6e2d205072657365727665207468652038206461797320766f74696e6720706572696f64206475726174696f6e206166746572207468652043656c6f20626c6f636b636861696e2773204c32207472616e736974696f6e5c6e5c6e2323232320546563686e6963616c20526174696f6e616c655c6e5c6e2d2043656c6f20626c6f636b2074696d6520726564756374696f6e2066726f6d20357320746f203173206e656365737369746174657320766f74696e6720706572696f6420626c6f636b20636f756e742061646a7573746d656e745c6e2d2043757272656e743a2031333832343020626c6f636b732061742035732070657220626c6f636b20e28988203820646179735c6e2d2050726f706f7365643a2036393132303020626c6f636b732061742031732070657220626c6f636b20e28988203820646179735c6e5c6e2323232320496d706c656d656e746174696f6e2044657461696c735c6e5c6e2d204f6e6520756e69717565207472616e73616374696f6e3a5c6e2020312e2055706461746520766f74696e6720706572696f6420696e204d656e746f476f7665726e6f7220636f6e74726163745c6e5c6e232323232054657374696e675c6e5c6e2d2056616c696461746520766f74696e6720706572696f6420776974682031207365636f6e6420626c6f636b2074696d655c6e222c227469746c65223a224d47502d353a2055706461746520766f74696e6720706572696f64206168656164206f66204c32207472616e736974696f6e227d000000000000000000000000000000000000000000000000000000000000",
        "nonce": "0x492",
        "chainId": "0xa4ec"
      },
      "additionalContracts": [],
      "isFixedGasLimit": false
    }
  ],
  "receipts": [
    {
      "status": "0x1",
      "cumulativeGasUsed": "0x947d5",
      "logs": [
        {
          "address": "0x47036d78bb3169b4f5560dd77bf93f4412a59852",
          "topics": [
            "0x7d84a6263ae0d98d3329bd7b46bb4e8d6f98cd35a7adb45c274c8b7fd5ebd5e0"
          ],
          "data": "0xf8161225c53b60d1ad265b3737b88ecf32ea2e506b65f185c7c03e5e27e7a03900000000000000000000000056fd3f2bee130e9867942d0f463a16fbe49b8d810000000000000000000000000000000000000000000000000000000000000120000000000000000000000000000000000000000000000000000000000000016000000000000000000000000000000000000000000000000000000000000001a000000000000000000000000000000000000000000000000000000000000002000000000000000000000000000000000000000000000000000000000001d6aa930000000000000000000000000000000000000000000000000000000001d8c69300000000000000000000000000000000000000000000000000000000000002a0000000000000000000000000000000000000000000000000000000000000000100000000000000000000000047036d78bb3169b4f5560dd77bf93f4412a5985200000000000000000000000000000000000000000000000000000000000000010000000000000000000000000000000000000000000000000000000000000000000000000000000000000000000000000000000000000000000000000000000100000000000000000000000000000000000000000000000000000000000000200000000000000000000000000000000000000000000000000000000000000000000000000000000000000000000000000000000000000000000000000000000100000000000000000000000000000000000000000000000000000000000000200000000000000000000000000000000000000000000000000000000000000024ea0217cf00000000000000000000000000000000000000000000000000000000000a8c000000000000000000000000000000000000000000000000000000000000000000000000000000000000000000000000000000000000000000000004427b226465736372697074696f6e223a22232323204d475030353a2055706461746520676f7665726e616e636520766f74696e6720706572696f64206168656164206f662043656c6f204c32205472616e736974696f6e5c6e5c6e23232323204465736372697074696f6e5c6e5c6e576974682043656c6f2773207472616e736974696f6e20746f20616e204c322c2074686520626c6f636b2074696d652077696c6c20626520726564756365642066726f6d2035207365636f6e647320746f2031207365636f6e642e20546869732070726f706f73616c20656e737572657320746861742074686520676f7665726e616e636520766f74696e6720706572696f642072656d61696e7320636f6e73697374656e742061667465722074686520757067726164652c206174203820646179732e5c6e5c6e23232323204368616e6765735c6e5c6e312e2041646a75737420766f74696e6720706572696f6420746f206d61696e7461696e203820646179206475726174696f6e3a5c6e2020202d204f6e2043656c6f206d61696e6e65742c20696e6372656173652066726f6d2031333832343020626c6f636b7320746f2036393132303020626c6f636b735c6e2020202d204163636f756e74696e6720666f72207265647563656420626c6f636b2074696d652028317320696e7374656164206f66203573295c6e5c6e23232323204d6f7469766174696f6e5c6e5c6e2d205072657365727665207468652038206461797320766f74696e6720706572696f64206475726174696f6e206166746572207468652043656c6f20626c6f636b636861696e2773204c32207472616e736974696f6e5c6e5c6e2323232320546563686e6963616c20526174696f6e616c655c6e5c6e2d2043656c6f20626c6f636b2074696d6520726564756374696f6e2066726f6d20357320746f203173206e656365737369746174657320766f74696e6720706572696f6420626c6f636b20636f756e742061646a7573746d656e745c6e2d2043757272656e743a2031333832343020626c6f636b732061742035732070657220626c6f636b20e28988203820646179735c6e2d2050726f706f7365643a2036393132303020626c6f636b732061742031732070657220626c6f636b20e28988203820646179735c6e5c6e2323232320496d706c656d656e746174696f6e2044657461696c735c6e5c6e2d204f6e6520756e69717565207472616e73616374696f6e3a5c6e2020312e2055706461746520766f74696e6720706572696f6420696e204d656e746f476f7665726e6f7220636f6e74726163745c6e5c6e232323232054657374696e675c6e5c6e2d2056616c696461746520766f74696e6720706572696f6420776974682031207365636f6e6420626c6f636b2074696d655c6e222c227469746c65223a224d47502d353a2055706461746520766f74696e6720706572696f64206168656164206f66204c32207472616e736974696f6e227d000000000000000000000000000000000000000000000000000000000000",
          "blockHash": "0x6b204b31da815289e5199888067d20d3c93766af87ebdb89a6c343615377f6ae",
          "blockNumber": "0x1d6aa93",
          "transactionHash": "0x679ba5eeabaf04a25e4b4e845b3ce5375699d9889706d65557b16e53c6495f6d",
          "transactionIndex": "0x5",
          "logIndex": "0x5",
          "removed": false
        }
      ],
      "logsBloom": "0x00000000000000000000000000000000000000000000000000040000000000000000000000000000000000000000000000000000000000000000000000000000000000000002000000000000000000000000000000000000000000000000000000000000000000000040000000000000000000000000000000000000000000000000000000000000000000000000000000000000000000000000000000000000080000000000000000000000000000000000000000000000000000000000000200000000000000000000000000000000000000000000000000000040000000000000000000000000000000000000000000000000000000000000000000000000",
      "type": "0x0",
      "transactionHash": "0x679ba5eeabaf04a25e4b4e845b3ce5375699d9889706d65557b16e53c6495f6d",
      "transactionIndex": "0x5",
      "blockHash": "0x6b204b31da815289e5199888067d20d3c93766af87ebdb89a6c343615377f6ae",
      "blockNumber": "0x1d6aa93",
      "gasUsed": "0x63e00",
      "effectiveGasPrice": "0xba43b7400",
      "from": "0x56fd3f2bee130e9867942d0f463a16fbe49b8d81",
      "to": "0x47036d78bb3169b4f5560dd77bf93f4412a59852",
      "contractAddress": null
    }
  ],
  "libraries": [
    "lib/mento-core-2.0.0/contracts/common/linkedlists/AddressLinkedList.sol:AddressLinkedList:0x6200F54D73491d56b8d7A975C9ee18EFb4D518Df",
    "lib/mento-core-2.0.0/contracts/common/linkedlists/AddressSortedLinkedListWithMedian.sol:AddressSortedLinkedListWithMedian:0xED477A99035d0c1e11369F1D7A4e587893cc002B"
  ],
  "pending": [],
  "returns": {},
  "timestamp": 1741902492,
  "chain": 42220,
  "commit": "cd47113"
}