{
  "transactions": [
    {
      "hash": "0x7c1888cce5730eb3beb9a262332a3953eb904b7b495a6fb061d902f13599e4cd",
      "transactionType": "CALL",
      "contractName": null,
      "contractAddress": "0x28443b1d87db521320a6517a4f1b6ead77f8c811",
      "function": "minDeposit()",
      "arguments": [],
      "transaction": {
        "from": "0x56fd3f2bee130e9867942d0f463a16fbe49b8d81",
        "to": "0x28443b1d87db521320a6517a4f1b6ead77f8c811",
        "gas": "0x9bcc",
        "value": "0x0",
        "input": "0x41b3d185",
        "nonce": "0x41b",
        "chainId": "0xf370"
      },
      "additionalContracts": [],
      "isFixedGasLimit": false
    },
    {
      "hash": "0x221c67dd989765ba2fa16199630c0230e70f76d0b3a1db9c93f01bedd30d7616",
      "transactionType": "CALL",
      "contractName": null,
      "contractAddress": "0x28443b1d87db521320a6517a4f1b6ead77f8c811",
      "function": "propose(uint256[],address[],bytes,uint256[],string)",
      "arguments": [
        "[0, 0]",
        "[0x88A187a876290E9843175027902B9f7f1B092c88, 0x88A187a876290E9843175027902B9f7f1B092c88]",
        "0xf0ca4adb000000000000000000000000afc02368a174cd08e01c373de6d0b537cecf43c80000000000000000000000003bf94361e9684e35f138fd405aa7cf423239146cf0ca4adb000000000000000000000000ab921d6ab1057601a9ae19879b111fc381a2a8e900000000000000000000000064276f411de50ce9fd2f38a37bdec9409f5b1bd8",
        "[68, 68]",
        "\"whitelist-oracles\""
      ],
      "transaction": {
        "from": "0x56fd3f2bee130e9867942d0f463a16fbe49b8d81",
        "to": "0x28443b1d87db521320a6517a4f1b6ead77f8c811",
        "gas": "0xa78dd",
        "value": "0x56bc75e2d63100000",
        "input": "0x65bbdaa000000000000000000000000000000000000000000000000000000000000000a00000000000000000000000000000000000000000000000000000000000000100000000000000000000000000000000000000000000000000000000000000016000000000000000000000000000000000000000000000000000000000000002200000000000000000000000000000000000000000000000000000000000000280000000000000000000000000000000000000000000000000000000000000000200000000000000000000000000000000000000000000000000000000000000000000000000000000000000000000000000000000000000000000000000000000000000000000000000000000000000000000000000000000000000000000000200000000000000000000000088a187a876290e9843175027902b9f7f1b092c8800000000000000000000000088a187a876290e9843175027902b9f7f1b092c880000000000000000000000000000000000000000000000000000000000000088f0ca4adb000000000000000000000000afc02368a174cd08e01c373de6d0b537cecf43c80000000000000000000000003bf94361e9684e35f138fd405aa7cf423239146cf0ca4adb000000000000000000000000ab921d6ab1057601a9ae19879b111fc381a2a8e900000000000000000000000064276f411de50ce9fd2f38a37bdec9409f5b1bd8000000000000000000000000000000000000000000000000000000000000000000000000000000000000000000000000000000000000000200000000000000000000000000000000000000000000000000000000000000440000000000000000000000000000000000000000000000000000000000000044000000000000000000000000000000000000000000000000000000000000001177686974656c6973742d6f7261636c6573000000000000000000000000000000",
        "nonce": "0x41c",
        "chainId": "0xf370"
      },
      "additionalContracts": [],
      "isFixedGasLimit": false
    }
  ],
  "receipts": [
    {
      "status": "0x1",
      "cumulativeGasUsed": "0x70cc",
      "logs": [],
      "logsBloom": "0x00000000000000000000000000000000000000000000000000000000000000000000000000000000000000000000000000000000000000000000000000000000000000000000000000000000000000000000000000000000000000000000000000000000000000000000000000000000000000000000000000000000000000000000000000000000000000000000000000000000000000000000000000000000000000000000000000000000000000000000000000000000000000000000000000000000000000000000000000000000000000000000000000000000000000000000000000000000000000000000000000000000000000000000000000000000",
      "type": "0x0",
      "transactionHash": "0x7c1888cce5730eb3beb9a262332a3953eb904b7b495a6fb061d902f13599e4cd",
      "transactionIndex": "0x0",
      "blockHash": "0x297b2600854ebea026755c33a340eab9a3589aaa884ef32e056e097ed8f07c81",
      "blockNumber": "0x1812bc0",
      "gasUsed": "0x70cc",
      "effectiveGasPrice": "0xbebc200",
      "from": "0x56fd3f2bee130e9867942d0f463a16fbe49b8d81",
      "to": "0x28443b1d87db521320a6517a4f1b6ead77f8c811",
      "contractAddress": null
    },
    {
      "status": "0x1",
      "cumulativeGasUsed": "0x805b2",
      "logs": [
        {
          "address": "0x28443b1d87db521320a6517a4f1b6ead77f8c811",
          "topics": [
            "0x1bfe527f3548d9258c2512b6689f0acfccdd0557d80a53845db25fc57e93d8fe",
            "0x00000000000000000000000000000000000000000000000000000000000000d8",
            "0x00000000000000000000000056fd3f2bee130e9867942d0f463a16fbe49b8d81"
          ],
          "data": "0x00000000000000000000000000000000000000000000000000000000000000020000000000000000000000000000000000000000000000056bc75e2d631000000000000000000000000000000000000000000000000000000000000066c72ef1",
          "blockHash": "0x297b2600854ebea026755c33a340eab9a3589aaa884ef32e056e097ed8f07c81",
          "blockNumber": "0x1812bc0",
          "transactionHash": "0x221c67dd989765ba2fa16199630c0230e70f76d0b3a1db9c93f01bedd30d7616",
          "transactionIndex": "0x1",
          "logIndex": "0x0",
          "removed": false
        }
      ],
      "logsBloom": "0x00000000000000000000000000000000000000000000000020000080000000000000000000000000000002000000010000000000000200000000000002000000000000000000000010000000020000000000000000000000000000000000000000000000000000000000000000000000000000000000000000000000000000000000000000000000000000000000000000001000000000000000000100000000000000000000000000000000000000000000000000000000000000000000000000000000000000000000000000000000000000000000000000000000000000000004000000000000010000000000000000000000000000000000000000000000",
      "type": "0x0",
      "transactionHash": "0x221c67dd989765ba2fa16199630c0230e70f76d0b3a1db9c93f01bedd30d7616",
      "transactionIndex": "0x1",
      "blockHash": "0x297b2600854ebea026755c33a340eab9a3589aaa884ef32e056e097ed8f07c81",
      "blockNumber": "0x1812bc0",
      "gasUsed": "0x794e6",
      "effectiveGasPrice": "0xbebc200",
      "from": "0x56fd3f2bee130e9867942d0f463a16fbe49b8d81",
      "to": "0x28443b1d87db521320a6517a4f1b6ead77f8c811",
      "contractAddress": null
    }
  ],
  "libraries": [
    "lib/mento-core-2.0.0/contracts/common/linkedlists/AddressLinkedList.sol:AddressLinkedList:0x3e2cc57f83093Ce1Ee03482c1590E3B5f4225bd7",
    "lib/mento-core-2.0.0/contracts/common/linkedlists/AddressSortedLinkedListWithMedian.sol:AddressSortedLinkedListWithMedian:0x99EDce8143FF8AeFA1fBB6C2103B349Add2B9519"
  ],
  "pending": [],
  "returns": {},
  "timestamp": 1724329717,
  "chain": 62320,
  "commit": "485a8ea"
}