{
  "transactions": [
    {
      "hash": "0xbdbb79df50eed07696c6c1e96b4fd97c494ea023e17a76f9359a299ac5d6b6f9",
      "transactionType": "CALL",
      "contractName": null,
      "contractAddress": "0x28443b1d87db521320a6517a4f1b6ead77f8c811",
      "function": "minDeposit()",
      "arguments": [],
      "transaction": {
        "from": "0x56fd3f2bee130e9867942d0f463a16fbe49b8d81",
        "to": "0x28443b1d87db521320a6517a4f1b6ead77f8c811",
        "gas": "0x9bcc",
        "value": "0x0",
        "input": "0x41b3d185",
        "nonce": "0x417",
        "chainId": "0xf370"
      },
      "additionalContracts": [],
      "isFixedGasLimit": false
    },
    {
      "hash": "0x42e503f3679cc2fbd948a6609d4cdfe3053d968d50caf361b3deb93f170a9a01",
      "transactionType": "CALL",
      "contractName": null,
      "contractAddress": "0x28443b1d87db521320a6517a4f1b6ead77f8c811",
      "function": "propose(uint256[],address[],bytes,uint256[],string)",
      "arguments": [
        "[0, 0, 0]",
        "[0x88A187a876290E9843175027902B9f7f1B092c88, 0x88A187a876290E9843175027902B9f7f1B092c88, 0x88A187a876290E9843175027902B9f7f1B092c88]",
        "0xf0ca4adb000000000000000000000000afc02368a174cd08e01c373de6d0b537cecf43c80000000000000000000000003bf94361e9684e35f138fd405aa7cf423239146cf0ca4adb000000000000000000000000ab921d6ab1057601a9ae19879b111fc381a2a8e900000000000000000000000064276f411de50ce9fd2f38a37bdec9409f5b1bd8145d8d180000000000000000000000007888c0513f5c85fd8592eeff179dc02226c0e6ac000000000000000000000000afc02368a174cd08e01c373de6d0b537cecf43c8",
        "[68, 68, 68]",
        "\"whitelist-oracles\""
      ],
      "transaction": {
        "from": "0x56fd3f2bee130e9867942d0f463a16fbe49b8d81",
        "to": "0x28443b1d87db521320a6517a4f1b6ead77f8c811",
        "gas": "0xcd1c6",
        "value": "0x56bc75e2d63100000",
        "input": "0x65bbdaa000000000000000000000000000000000000000000000000000000000000000a0000000000000000000000000000000000000000000000000000000000000012000000000000000000000000000000000000000000000000000000000000001a000000000000000000000000000000000000000000000000000000000000002a000000000000000000000000000000000000000000000000000000000000003200000000000000000000000000000000000000000000000000000000000000003000000000000000000000000000000000000000000000000000000000000000000000000000000000000000000000000000000000000000000000000000000000000000000000000000000000000000000000000000000000000000000000000000000000000000000000000000000000000000000000000000000000000000300000000000000000000000088a187a876290e9843175027902b9f7f1b092c8800000000000000000000000088a187a876290e9843175027902b9f7f1b092c8800000000000000000000000088a187a876290e9843175027902b9f7f1b092c8800000000000000000000000000000000000000000000000000000000000000ccf0ca4adb000000000000000000000000afc02368a174cd08e01c373de6d0b537cecf43c80000000000000000000000003bf94361e9684e35f138fd405aa7cf423239146cf0ca4adb000000000000000000000000ab921d6ab1057601a9ae19879b111fc381a2a8e900000000000000000000000064276f411de50ce9fd2f38a37bdec9409f5b1bd8145d8d180000000000000000000000007888c0513f5c85fd8592eeff179dc02226c0e6ac000000000000000000000000afc02368a174cd08e01c373de6d0b537cecf43c800000000000000000000000000000000000000000000000000000000000000000000000000000000000000000000000000000003000000000000000000000000000000000000000000000000000000000000004400000000000000000000000000000000000000000000000000000000000000440000000000000000000000000000000000000000000000000000000000000044000000000000000000000000000000000000000000000000000000000000001177686974656c6973742d6f7261636c6573000000000000000000000000000000",
        "nonce": "0x418",
        "chainId": "0xf370"
      },
      "additionalContracts": [],
      "isFixedGasLimit": false
    }
  ],
  "receipts": [
    {
      "status": "0x1",
      "cumulativeGasUsed": "0x70cc",
      "logs": [],
      "logsBloom": "0x00000000000000000000000000000000000000000000000000000000000000000000000000000000000000000000000000000000000000000000000000000000000000000000000000000000000000000000000000000000000000000000000000000000000000000000000000000000000000000000000000000000000000000000000000000000000000000000000000000000000000000000000000000000000000000000000000000000000000000000000000000000000000000000000000000000000000000000000000000000000000000000000000000000000000000000000000000000000000000000000000000000000000000000000000000000",
      "type": "0x0",
      "transactionHash": "0xbdbb79df50eed07696c6c1e96b4fd97c494ea023e17a76f9359a299ac5d6b6f9",
      "transactionIndex": "0x0",
      "blockHash": "0x1a3485e98bc7d1792361177db598775382b59e0d06a4dc043f802cc218284f38",
      "blockNumber": "0x18063be",
      "gasUsed": "0x70cc",
      "effectiveGasPrice": "0xbebc200",
      "from": "0x56fd3f2bee130e9867942d0f463a16fbe49b8d81",
      "to": "0x28443b1d87db521320a6517a4f1b6ead77f8c811",
      "contractAddress": null
    },
    {
      "status": "0x1",
      "cumulativeGasUsed": "0x934bf",
      "logs": [
        {
          "address": "0x28443b1d87db521320a6517a4f1b6ead77f8c811",
          "topics": [
            "0x88e53c486703527139dfc8d97a1e559d9bd93d3f9d52cda4e06564111e7a2643",
            "0x00000000000000000000000000000000000000000000000000000000000000d5"
          ],
          "data": "0x",
          "blockHash": "0x1a3485e98bc7d1792361177db598775382b59e0d06a4dc043f802cc218284f38",
          "blockNumber": "0x18063be",
          "transactionHash": "0x42e503f3679cc2fbd948a6609d4cdfe3053d968d50caf361b3deb93f170a9a01",
          "transactionIndex": "0x1",
          "logIndex": "0x0",
          "removed": false
        },
        {
          "address": "0x28443b1d87db521320a6517a4f1b6ead77f8c811",
          "topics": [
            "0x1bfe527f3548d9258c2512b6689f0acfccdd0557d80a53845db25fc57e93d8fe",
            "0x00000000000000000000000000000000000000000000000000000000000000d6",
            "0x00000000000000000000000056fd3f2bee130e9867942d0f463a16fbe49b8d81"
          ],
          "data": "0x00000000000000000000000000000000000000000000000000000000000000030000000000000000000000000000000000000000000000056bc75e2d631000000000000000000000000000000000000000000000000000000000000066c34028",
          "blockHash": "0x1a3485e98bc7d1792361177db598775382b59e0d06a4dc043f802cc218284f38",
          "blockNumber": "0x18063be",
          "transactionHash": "0x42e503f3679cc2fbd948a6609d4cdfe3053d968d50caf361b3deb93f170a9a01",
          "transactionIndex": "0x1",
          "logIndex": "0x1",
          "removed": false
        }
      ],
      "logsBloom": "0x00000000000000800000000000000000000000800000000020000080000000000000000000008000000002000000010000000000000200000000000000000000000002000000000010000000000000000000000000000000080000000000000000000000000000000000000000000000000000000000000000000000000000000000000000000000000000000000000400001000000000000000000000000000000000000000000000000000000000000000000000000000000000000000000000000000000000000000000000000020000000000000000000000000000000000004000000000000010000000800000000000000000000008000000000000000",
      "type": "0x0",
      "transactionHash": "0x42e503f3679cc2fbd948a6609d4cdfe3053d968d50caf361b3deb93f170a9a01",
      "transactionIndex": "0x1",
      "blockHash": "0x1a3485e98bc7d1792361177db598775382b59e0d06a4dc043f802cc218284f38",
      "blockNumber": "0x18063be",
      "gasUsed": "0x8c3f3",
      "effectiveGasPrice": "0xbebc200",
      "from": "0x56fd3f2bee130e9867942d0f463a16fbe49b8d81",
      "to": "0x28443b1d87db521320a6517a4f1b6ead77f8c811",
      "contractAddress": null
    }
  ],
  "libraries": [
    "lib/mento-core-2.0.0/contracts/common/linkedlists/AddressLinkedList.sol:AddressLinkedList:0x3e2cc57f83093Ce1Ee03482c1590E3B5f4225bd7",
    "lib/mento-core-2.0.0/contracts/common/linkedlists/AddressSortedLinkedListWithMedian.sol:AddressSortedLinkedListWithMedian:0x99EDce8143FF8AeFA1fBB6C2103B349Add2B9519"
  ],
  "pending": [],
  "returns": {},
  "timestamp": 1724071980,
  "chain": 62320,
  "commit": "865d71c"
}