{
  "transactions": [
    {
      "hash": "0x30dc93f4a6435ef7c241a5abedb3e438e0373d958ae88c9c8c3962ad63259237",
      "transactionType": "CREATE",
      "contractName": "MockRedstoneAdapter",
      "contractAddress": "0x8f9229ee544510d61707e2447b1f84c11de2825a",
      "function": null,
      "arguments": null,
      "transaction": {
        "from": "0x56fd3f2bee130e9867942d0f463a16fbe49b8d81",
        "gas": "0x12c5b6",
        "value": "0x0",
        "input": "0x6080806040523461005b5760008054336001600160a01b0319821681178355916001600160a01b03909116907f8be0079c531659141344cd1fd0a4f28419497f9722a3daafe3b4186f6b6457e09080a3610fcd90816100618239f35b600080fdfe6080604081815260048036101561001557600080fd5b600092833560e01c908163132e8aa714610bfb575080631972680614610a015780631d4abed214610971578063425fdba3146109235780634afb215e146108bf5780635062a6b814610871578063705b91541461083c578063715018a6146107be5780637955c2441461055f5780637f6fc07a1461051b57806385e63fc6146104f95780638c9e55be146104c85780638da5cb5b14610495578063b59589d114610300578063e3ac822614610299578063ed74c1bf146101f95763f2fde38b146100de57600080fd5b346101f55760206003193601126101f5576100f7610cb5565b90610100610f41565b73ffffffffffffffffffffffffffffffffffffffff8092169283156101725750508254827fffffffffffffffffffffffff00000000000000000000000000000000000000008216178455167f8be0079c531659141344cd1fd0a4f28419497f9722a3daafe3b4186f6b6457e08380a380f35b90602060849251917f08c379a0000000000000000000000000000000000000000000000000000000008352820152602660248201527f4f776e61626c653a206e6577206f776e657220697320746865207a65726f206160448201527f64647265737300000000000000000000000000000000000000000000000000006064820152fd5b8280fd5b509190346102955781600319360112610295578051918284549081815260208091019583527f8a35acfbc15ff81a39ae7d344fd709f28e8600b4aa8c65c6b64bfe7fe36bd19b92905b82821061026857610264868661025a828b0383610c2d565b5191829182610d58565b0390f35b835473ffffffffffffffffffffffffffffffffffffffff1687529586019560019384019390910190610242565b5080fd5b83346102fd5760206003193601126102fd5773ffffffffffffffffffffffffffffffffffffffff6102c8610cb5565b6102d0610f41565b167fffffffffffffffffffffffff0000000000000000000000000000000000000000600254161760025580f35b80fd5b5082346102fd57806003193601126102fd5773ffffffffffffffffffffffffffffffffffffffff928382541633148015610488575b61033e90610e46565b815b6003805482101561048457858061035684610e0f565b905490841b1c169161036784610da9565b9054911b1c1690845260056020528284205490662386f26fc100009182810292818404149015171561045857866001541690813b156104545785929160848492875195869384927f80e507440000000000000000000000000000000000000000000000000000000084528c840152602496878401528160448401528160648401525af1801561044a57610405575b505061040090610ed1565b610340565b67ffffffffffffffff821161042057508252610400866103f5565b846041877f4e487b7100000000000000000000000000000000000000000000000000000000835252fd5b84513d87823e3d90fd5b8580fd5b6024856011887f4e487b7100000000000000000000000000000000000000000000000000000000835252fd5b8380f35b5060025484163314610335565b50503461029557816003193601126102955773ffffffffffffffffffffffffffffffffffffffff60209254169051908152f35b5050346102955781600319360112610295576020906fffffffffffffffffffffffffffffffff600654169051908152f35b50503461029557816003193601126102955760209060065460801c9051908152f35b505034610295576020600319360112610295578060209273ffffffffffffffffffffffffffffffffffffffff61054f610cb5565b1681526005845220549051908152f35b5090346101f5576003193601126102955767ffffffffffffffff9080358281116107ba576105909036908301610cdd565b6024358381116107b6576105a79036908401610cdd565b6105af610f41565b81518481116106d657680100000000000000009081811161078a576003548160035580821061074a575b50602080940160038852875b8281106107025750505081519485116106d65784116106aa5781908354858555808610610667575b5001918452835b83811061061f578480f35b825173ffffffffffffffffffffffffffffffffffffffff167f8a35acfbc15ff81a39ae7d344fd709f28e8600b4aa8c65c6b64bfe7fe36bd19b82015591810191600101610614565b857f8a35acfbc15ff81a39ae7d344fd709f28e8600b4aa8c65c6b64bfe7fe36bd19b91820191015b81811061069c575061060d565b87815584935060010161068f565b6024856041857f4e487b7100000000000000000000000000000000000000000000000000000000835252fd5b6024866041867f4e487b7100000000000000000000000000000000000000000000000000000000835252fd5b815173ffffffffffffffffffffffffffffffffffffffff167fc2575a0e9e593c00f959f8c92f12db2869c3395a3b0502d05e2516446f71f85b820155908501906001016105e5565b817fc2575a0e9e593c00f959f8c92f12db2869c3395a3b0502d05e2516446f71f85b91820191015b81811061077f57506105d9565b888155600101610772565b6024876041877f4e487b7100000000000000000000000000000000000000000000000000000000835252fd5b8480fd5b8380fd5b83346102fd57806003193601126102fd576107d7610f41565b8073ffffffffffffffffffffffffffffffffffffffff81547fffffffffffffffffffffffff000000000000000000000000000000000000000081168355167f8be0079c531659141344cd1fd0a4f28419497f9722a3daafe3b4186f6b6457e08280a380f35b50503461029557816003193601126102955760209073ffffffffffffffffffffffffffffffffffffffff600254169051908152f35b50346101f55760206003193601126101f55735916003548310156102fd575073ffffffffffffffffffffffffffffffffffffffff6108b0602093610e0f565b90549060031b1c169051908152f35b83346102fd5760206003193601126102fd5773ffffffffffffffffffffffffffffffffffffffff6108ee610cb5565b6108f6610f41565b167fffffffffffffffffffffffff0000000000000000000000000000000000000000600154161760015580f35b5091346102fd5760206003193601126102fd57823592548310156102fd575073ffffffffffffffffffffffffffffffffffffffff610962602093610da9565b92905490519260031b1c168152f35b8284346102fd57806003193601126102fd578151918291600354808552602080950194600383527fc2575a0e9e593c00f959f8c92f12db2869c3395a3b0502d05e2516446f71f85b92905b8282106109d457610264868661025a828b0383610c2d565b835473ffffffffffffffffffffffffffffffffffffffff16875295860195600193840193909101906109bc565b5082346102fd5760806003193601126102fd5767ffffffffffffffff9282358481116101f557610a349036908501610cdd565b916024359485116102fd57366023860112156102fd5784840135610a5781610c9d565b95610a6484519788610c2d565b8187526020908188016024600594851b83010191368311610454576024849101915b838310610beb5750505050604435956fffffffffffffffffffffffffffffffff968781168091036107b65760643597881688036107b65773ffffffffffffffffffffffffffffffffffffffff918286541633148015610bde575b610ae990610e46565b87518a5103610b5c5750845b8751811015610b2d5780610b0c610b28928c610f2d565b5184610b18838c610f2d565b5116885286865288882055610ed1565b610af5565b85827fffffffffffffffffffffffffffffffff000000000000000000000000000000008b60801b161760065580f35b608490848851917f08c379a0000000000000000000000000000000000000000000000000000000008352820152603060248201527f4d61696e6e657420666565647320616e6420707269636573206d75737420626560448201527f207468652073616d65206c656e677468000000000000000000000000000000006064820152fd5b5060025483163314610ae0565b8235815291810191849101610a86565b84903461029557816003193601126102955760209073ffffffffffffffffffffffffffffffffffffffff600154168152f35b90601f7fffffffffffffffffffffffffffffffffffffffffffffffffffffffffffffffe0910116810190811067ffffffffffffffff821117610c6e57604052565b7f4e487b7100000000000000000000000000000000000000000000000000000000600052604160045260246000fd5b67ffffffffffffffff8111610c6e5760051b60200190565b6004359073ffffffffffffffffffffffffffffffffffffffff82168203610cd857565b600080fd5b81601f82011215610cd857803591610cf483610c9d565b92610d026040519485610c2d565b808452602092838086019260051b820101928311610cd8578301905b828210610d2c575050505090565b813573ffffffffffffffffffffffffffffffffffffffff81168103610cd8578152908301908301610d1e565b6020908160408183019282815285518094520193019160005b828110610d7f575050505090565b835173ffffffffffffffffffffffffffffffffffffffff1685529381019392810192600101610d71565b600454811015610de05760046000527f8a35acfbc15ff81a39ae7d344fd709f28e8600b4aa8c65c6b64bfe7fe36bd19b0190600090565b7f4e487b7100000000000000000000000000000000000000000000000000000000600052603260045260246000fd5b600354811015610de05760036000527fc2575a0e9e593c00f959f8c92f12db2869c3395a3b0502d05e2516446f71f85b0190600090565b15610e4d57565b60846040517f08c379a000000000000000000000000000000000000000000000000000000000815260206004820152603660248201527f4f6e6c79206f776e6572206f722065787465726e616c2070726f76696465722060448201527f63616e2063616c6c20746869732066756e6374696f6e000000000000000000006064820152fd5b7fffffffffffffffffffffffffffffffffffffffffffffffffffffffffffffffff8114610efe5760010190565b7f4e487b7100000000000000000000000000000000000000000000000000000000600052601160045260246000fd5b8051821015610de05760209160051b010190565b73ffffffffffffffffffffffffffffffffffffffff600054163303610f6257565b60646040517f08c379a000000000000000000000000000000000000000000000000000000000815260206004820152602060248201527f4f776e61626c653a2063616c6c6572206973206e6f7420746865206f776e65726044820152fdfea164736f6c6343000812000a",
        "nonce": "0xf1a",
        "chainId": "0xaef3"
      },
      "additionalContracts": [],
      "isFixedGasLimit": false
    },
    {
      "hash": "0x47e86f1ced075e59643c48e570958b03988b0c889f80623e4e22ad89e4508b6a",
      "transactionType": "CALL",
      "contractName": "MockRedstoneAdapter",
      "contractAddress": "0x8f9229ee544510d61707e2447b1f84c11de2825a",
      "function": "setRateFeeds(address[],address[])",
      "arguments": [
        "[0x765DE816845861e75A25fCA122bb6898B8B1282a, 0xD8763CBa276a3738E6DE85b4b3bF5FDed6D6cA73, 0xe8537a3d056DA446677B9E9d6c5dB704EaAb4787, 0xA1A8003936862E7a15092A91898D69fa8bCE290c, 0x206B25Ea01E188Ee243131aFdE526bA6E131a016, 0x25F21A1f97607Edf6852339fad709728cffb9a9d, 0x26076B9702885d475ac8c3dB3Bd9F250Dc5A318B]",
        "[0x874069Fa1Eb16D44d622F2e0Ca25eeA172369bC1, 0x10c892A6EC43a53E45D0B916B4b7D383B1b78C0F, 0xE4D517785D091D3c54818832dB6094bcc2744545, 0xA1A8003936862E7a15092A91898D69fa8bCE290c, 0x206B25Ea01E188Ee243131aFdE526bA6E131a016, 0x25F21A1f97607Edf6852339fad709728cffb9a9d, 0x26076B9702885d475ac8c3dB3Bd9F250Dc5A318B]"
      ],
      "transaction": {
        "from": "0x56fd3f2bee130e9867942d0f463a16fbe49b8d81",
        "to": "0x8f9229ee544510d61707e2447b1f84c11de2825a",
        "gas": "0x8241f",
        "value": "0x0",
        "input": "0x7955c244000000000000000000000000000000000000000000000000000000000000004000000000000000000000000000000000000000000000000000000000000001400000000000000000000000000000000000000000000000000000000000000007000000000000000000000000765de816845861e75a25fca122bb6898b8b1282a000000000000000000000000d8763cba276a3738e6de85b4b3bf5fded6d6ca73000000000000000000000000e8537a3d056da446677b9e9d6c5db704eaab4787000000000000000000000000a1a8003936862e7a15092a91898d69fa8bce290c000000000000000000000000206b25ea01e188ee243131afde526ba6e131a01600000000000000000000000025f21a1f97607edf6852339fad709728cffb9a9d00000000000000000000000026076b9702885d475ac8c3db3bd9f250dc5a318b0000000000000000000000000000000000000000000000000000000000000007000000000000000000000000874069fa1eb16d44d622f2e0ca25eea172369bc100000000000000000000000010c892a6ec43a53e45d0b916b4b7d383b1b78c0f000000000000000000000000e4d517785d091d3c54818832db6094bcc2744545000000000000000000000000a1a8003936862e7a15092a91898d69fa8bce290c000000000000000000000000206b25ea01e188ee243131afde526ba6e131a01600000000000000000000000025f21a1f97607edf6852339fad709728cffb9a9d00000000000000000000000026076b9702885d475ac8c3db3bd9f250dc5a318b",
        "nonce": "0xf1b",
        "chainId": "0xaef3"
      },
      "additionalContracts": [],
      "isFixedGasLimit": false
    },
    {
      "hash": "0x700beb037a703eef89f096965436276af8e044ee129890d2e3e92922bbb3326d",
      "transactionType": "CALL",
      "contractName": "MockRedstoneAdapter",
      "contractAddress": "0x8f9229ee544510d61707e2447b1f84c11de2825a",
      "function": "setSortedOracles(address)",
      "arguments": [
        "0xFdd8bD58115FfBf04e47411c1d228eCC45E93075"
      ],
      "transaction": {
        "from": "0x56fd3f2bee130e9867942d0f463a16fbe49b8d81",
        "to": "0x8f9229ee544510d61707e2447b1f84c11de2825a",
        "gas": "0x106cd",
        "value": "0x0",
        "input": "0x4afb215e000000000000000000000000fdd8bd58115ffbf04e47411c1d228ecc45e93075",
        "nonce": "0xf1c",
        "chainId": "0xaef3"
      },
      "additionalContracts": [],
      "isFixedGasLimit": false
    }
  ],
  "receipts": [
    {
      "status": "0x1",
      "cumulativeGasUsed": "0xf1bae",
      "logs": [
        {
          "address": "0x8f9229ee544510d61707e2447b1f84c11de2825a",
          "topics": [
            "0x8be0079c531659141344cd1fd0a4f28419497f9722a3daafe3b4186f6b6457e0",
            "0x0000000000000000000000000000000000000000000000000000000000000000",
            "0x00000000000000000000000056fd3f2bee130e9867942d0f463a16fbe49b8d81"
          ],
          "data": "0x",
          "blockHash": "0xc7277b58738a5cd9d508945491ea26aad7cc7b2004f89c7d0f2c07eedd2c99b1",
          "blockNumber": "0x2c14f8d",
          "transactionHash": "0x30dc93f4a6435ef7c241a5abedb3e438e0373d958ae88c9c8c3962ad63259237",
          "transactionIndex": "0x1",
          "logIndex": "0x0",
          "removed": false
        }
      ],
      "logsBloom": "0x00000000000000000000000000008000000000000000000020800000000000000000000000000000000000000000010000000000000000000000020000000000000000000000000000000000000000000001000000000000000000000000000000000000020000000000000000000800000000000000000000000000000000400000000000000000000000000000000000000000000000000000000000000000000000000000000000000000000000000000000000000000000000000000000000000000000000000000000000000000000000000000000000000000000020000004000000000000000000000000000000000100000000000000000000000000",
      "type": "0x0",
      "transactionHash": "0x30dc93f4a6435ef7c241a5abedb3e438e0373d958ae88c9c8c3962ad63259237",
      "transactionIndex": "0x1",
      "blockHash": "0xc7277b58738a5cd9d508945491ea26aad7cc7b2004f89c7d0f2c07eedd2c99b1",
      "blockNumber": "0x2c14f8d",
      "gasUsed": "0xe70b4",
      "effectiveGasPrice": "0x5d22cfc40",
      "from": "0x56fd3f2bee130e9867942d0f463a16fbe49b8d81",
      "to": null,
      "contractAddress": "0x8f9229ee544510d61707e2447b1f84c11de2825a",
      "l1BaseFeeScalar": "0x0",
      "l1BlobBaseFee": "0x1",
      "l1BlobBaseFeeScalar": "0x0",
      "l1Fee": "0x0",
      "l1GasPrice": "0x8",
      "l1GasUsed": "0x800a"
    },
    {
      "status": "0x1",
      "cumulativeGasUsed": "0x15008d",
      "logs": [],
      "logsBloom": "0x00000000000000000000000000000000000000000000000000000000000000000000000000000000000000000000000000000000000000000000000000000000000000000000000000000000000000000000000000000000000000000000000000000000000000000000000000000000000000000000000000000000000000000000000000000000000000000000000000000000000000000000000000000000000000000000000000000000000000000000000000000000000000000000000000000000000000000000000000000000000000000000000000000000000000000000000000000000000000000000000000000000000000000000000000000000",
      "type": "0x0",
      "transactionHash": "0x47e86f1ced075e59643c48e570958b03988b0c889f80623e4e22ad89e4508b6a",
      "transactionIndex": "0x2",
      "blockHash": "0xc7277b58738a5cd9d508945491ea26aad7cc7b2004f89c7d0f2c07eedd2c99b1",
      "blockNumber": "0x2c14f8d",
      "gasUsed": "0x5e4df",
      "effectiveGasPrice": "0x5d22cfc40",
      "from": "0x56fd3f2bee130e9867942d0f463a16fbe49b8d81",
      "to": "0x8f9229ee544510d61707e2447b1f84c11de2825a",
      "contractAddress": null,
      "l1BaseFeeScalar": "0x0",
      "l1BlobBaseFee": "0x1",
      "l1BlobBaseFeeScalar": "0x0",
      "l1Fee": "0x0",
      "l1GasPrice": "0x8",
      "l1GasUsed": "0x1268"
    },
    {
      "status": "0x1",
      "cumulativeGasUsed": "0x15b43f",
      "logs": [],
      "logsBloom": "0x00000000000000000000000000000000000000000000000000000000000000000000000000000000000000000000000000000000000000000000000000000000000000000000000000000000000000000000000000000000000000000000000000000000000000000000000000000000000000000000000000000000000000000000000000000000000000000000000000000000000000000000000000000000000000000000000000000000000000000000000000000000000000000000000000000000000000000000000000000000000000000000000000000000000000000000000000000000000000000000000000000000000000000000000000000000",
      "type": "0x0",
      "transactionHash": "0x700beb037a703eef89f096965436276af8e044ee129890d2e3e92922bbb3326d",
      "transactionIndex": "0x3",
      "blockHash": "0xc7277b58738a5cd9d508945491ea26aad7cc7b2004f89c7d0f2c07eedd2c99b1",
      "blockNumber": "0x2c14f8d",
      "gasUsed": "0xb3b2",
      "effectiveGasPrice": "0x5d22cfc40",
      "from": "0x56fd3f2bee130e9867942d0f463a16fbe49b8d81",
      "to": "0x8f9229ee544510d61707e2447b1f84c11de2825a",
      "contractAddress": null,
      "l1BaseFeeScalar": "0x0",
      "l1BlobBaseFee": "0x1",
      "l1BlobBaseFeeScalar": "0x0",
      "l1Fee": "0x0",
      "l1GasPrice": "0x8",
      "l1GasUsed": "0x640"
    }
  ],
  "libraries": [
    "lib/mento-core-2.0.0/contracts/common/linkedlists/AddressLinkedList.sol:AddressLinkedList:0x2F0F7686fFFEfc3C266403Ad600035581deaedff",
    "lib/mento-core-2.0.0/contracts/common/linkedlists/AddressSortedLinkedListWithMedian.sol:AddressSortedLinkedListWithMedian:0x29B1B5e05217c751038861aF2C77494EAB10A257"
  ],
  "pending": [],
  "returns": {},
  "timestamp": 1747178572,
  "chain": 44787,
  "commit": "e31e0e4"
}