{
  "transactions": [
    {
      "hash": "0x9ec9d3f312872b6159a4b095919901d24ee1022088fd45200d8542b122956365",
      "transactionType": "CREATE",
      "contractName": "StableTokenGHSProxy",
      "contractAddress": "0xa628a1c784ccf86b53acdc81e9d32d3e2c558138",
      "function": null,
      "arguments": null,
      "transaction": {
        "from": "0x56fd3f2bee130e9867942d0f463a16fbe49b8d81",
        "gas": "0xbd5cc",
        "value": "0x0",
        "input": "0x6080604052610016336001600160e01b0361001b16565b6100d9565b6001600160a01b03811661006a576040805162461bcd60e51b815260206004820152601160248201527006f776e65722063616e6e6f74206265203607c1b604482015290519081900360640190fd5b604080517f656970313936372e70726f78792e61646d696e000000000000000000000000008152905190819003601301812060001901828155906001600160a01b038316907f50146d0e3c60aa1d17a70635b05494f864e86144a2201275021014fbf08bafe290600090a25050565b61096b806100e86000396000f3fe60806040526004361061005a5760003560e01c8063bb913f4111610043578063bb913f41146102a7578063d29d44ee146102e7578063f7e6af80146103275761005a565b806303386ba3146101da57806342404e0714610269575b604080517f656970313936372e70726f78792e696d706c656d656e746174696f6e000000008152905190819003601c0190207fffffffffffffffffffffffffffffffffffffffffffffffffffffffffffffffff01805473ffffffffffffffffffffffffffffffffffffffff811661013257604080517f08c379a000000000000000000000000000000000000000000000000000000000815260206004820152601560248201527f4e6f20496d706c656d656e746174696f6e207365740000000000000000000000604482015290519081900360640190fd5b61013b8161033c565b6101a657604080517f08c379a000000000000000000000000000000000000000000000000000000000815260206004820152601860248201527f496e76616c696420636f6e747261637420616464726573730000000000000000604482015290519081900360640190fd5b60405136810160405236600082376000803683855af43d604051818101604052816000823e8280156101d6578282f35b8282fd5b610267600480360360408110156101f057600080fd5b73ffffffffffffffffffffffffffffffffffffffff823516919081019060408101602082013564010000000081111561022857600080fd5b82018360208201111561023a57600080fd5b8035906020019184600183028401116401000000008311171561025c57600080fd5b509092509050610378565b005b34801561027557600080fd5b5061027e61050c565b6040805173ffffffffffffffffffffffffffffffffffffffff9092168252519081900360200190f35b3480156102b357600080fd5b50610267600480360360208110156102ca57600080fd5b503573ffffffffffffffffffffffffffffffffffffffff16610564565b3480156102f357600080fd5b506102676004803603602081101561030a57600080fd5b503573ffffffffffffffffffffffffffffffffffffffff16610715565b34801561033357600080fd5b5061027e6107c2565b6000813f7fc5d2460186f7233c927e7db2dcc703c0e500b653ca82273b7bfad8045d85a47081811480159061037057508115155b949350505050565b6103806107c2565b73ffffffffffffffffffffffffffffffffffffffff163373ffffffffffffffffffffffffffffffffffffffff161461041957604080517f08c379a000000000000000000000000000000000000000000000000000000000815260206004820152601460248201527f73656e64657220776173206e6f74206f776e6572000000000000000000000000604482015290519081900360640190fd5b61042283610564565b600060608473ffffffffffffffffffffffffffffffffffffffff1684846040518083838082843760405192019450600093509091505080830381855af49150503d806000811461048e576040519150601f19603f3d011682016040523d82523d6000602084013e610493565b606091505b5090925090508161050557604080517f08c379a000000000000000000000000000000000000000000000000000000000815260206004820152601e60248201527f696e697469616c697a6174696f6e2063616c6c6261636b206661696c65640000604482015290519081900360640190fd5b5050505050565b604080517f656970313936372e70726f78792e696d706c656d656e746174696f6e000000008152905190819003601c0190207fffffffffffffffffffffffffffffffffffffffffffffffffffffffffffffffff015490565b61056c6107c2565b73ffffffffffffffffffffffffffffffffffffffff163373ffffffffffffffffffffffffffffffffffffffff161461060557604080517f08c379a000000000000000000000000000000000000000000000000000000000815260206004820152601460248201527f73656e64657220776173206e6f74206f776e6572000000000000000000000000604482015290519081900360640190fd5b604080517f656970313936372e70726f78792e696d706c656d656e746174696f6e000000008152905190819003601c0190207fffffffffffffffffffffffffffffffffffffffffffffffffffffffffffffffff016106628261033c565b6106cd57604080517f08c379a000000000000000000000000000000000000000000000000000000000815260206004820152601860248201527f496e76616c696420636f6e747261637420616464726573730000000000000000604482015290519081900360640190fd5b81815560405173ffffffffffffffffffffffffffffffffffffffff8316907fab64f92ab780ecbf4f3866f57cee465ff36c89450dcce20237ca7a8d81fb7d1390600090a25050565b61071d6107c2565b73ffffffffffffffffffffffffffffffffffffffff163373ffffffffffffffffffffffffffffffffffffffff16146107b657604080517f08c379a000000000000000000000000000000000000000000000000000000000815260206004820152601460248201527f73656e64657220776173206e6f74206f776e6572000000000000000000000000604482015290519081900360640190fd5b6107bf8161081a565b50565b604080517f656970313936372e70726f78792e61646d696e00000000000000000000000000815290519081900360130190207fffffffffffffffffffffffffffffffffffffffffffffffffffffffffffffffff015490565b73ffffffffffffffffffffffffffffffffffffffff811661089c57604080517f08c379a000000000000000000000000000000000000000000000000000000000815260206004820152601160248201527f6f776e65722063616e6e6f742062652030000000000000000000000000000000604482015290519081900360640190fd5b604080517f656970313936372e70726f78792e61646d696e00000000000000000000000000815290519081900360130181207fffffffffffffffffffffffffffffffffffffffffffffffffffffffffffffffff018281559073ffffffffffffffffffffffffffffffffffffffff8316907f50146d0e3c60aa1d17a70635b05494f864e86144a2201275021014fbf08bafe290600090a2505056fea265627a7a723158204d7efcbda73935061b92de83fec401b485f0dbb8b21af2d8e0e4c110afc5736b64736f6c63430005110032",
        "nonce": "0x670",
        "chainId": "0xaef3"
      },
      "additionalContracts": [],
      "isFixedGasLimit": false
    },
    {
      "hash": "0xbe46fcb329c3967c73d3a89392cc44e118a91245825c6bce871f443ccf43cab6",
      "transactionType": "CALL",
      "contractName": "StableTokenGHSProxy",
      "contractAddress": "0xa628a1c784ccf86b53acdc81e9d32d3e2c558138",
      "function": "_setAndInitializeImplementation(address,bytes)",
      "arguments": [
        "0x3Bd899048f4f6951fFeB5474205B79FDB09D6212",
        "0x1e4f0e0300000000000000000000000000000000000000000000000000000000000001200000000000000000000000000000000000000000000000000000000000000160000000000000000000000000000000000000000000000000000000000000000000000000000000000000000000000000000000000000000000000000000000000000000000000000000000000000000000000000000000000000000000000000000000000000000000000000000000000000000000000000000000000000000000000000000000000000000000000000000000000000000000000000000001a000000000000000000000000000000000000000000000000000000000000001e00000000000000000000000000000000000000000000000000000000000000220000000000000000000000000000000000000000000000000000000000000000c63474853202870696c6f74290000000000000000000000000000000000000000000000000000000000000000000000000000000000000000000000000000000463474853000000000000000000000000000000000000000000000000000000000000000000000000000000000000000000000000000000000000000000000001000000000000000000000000c66c4ff9cc785f865b3ed48d493d239a3ed2be9b0000000000000000000000000000000000000000000000000000000000000001000000000000000000000000000000000000000000013da329b63364718000000000000000000000000000000000000000000000000000000000000000000000ffffffffffffffffffff82351691908101906040810160208201356401000000"
      ],
      "transaction": {
        "from": "0x56fd3f2bee130e9867942d0f463a16fbe49b8d81",
        "to": "0xa628a1c784ccf86b53acdc81e9d32d3e2c558138",
        "gas": "0x499b0",
        "value": "0x0",
        "input": "0x03386ba30000000000000000000000003bd899048f4f6951ffeb5474205b79fdb09d6212000000000000000000000000000000000000000000000000000000000000004000000000000000000000000000000000000000000000000000000000000002641e4f0e0300000000000000000000000000000000000000000000000000000000000001200000000000000000000000000000000000000000000000000000000000000160000000000000000000000000000000000000000000000000000000000000000000000000000000000000000000000000000000000000000000000000000000000000000000000000000000000000000000000000000000000000000000000000000000000000000000000000000000000000000000000000000000000000000000000000000000000000000000000000000000000000000000000000000001a000000000000000000000000000000000000000000000000000000000000001e00000000000000000000000000000000000000000000000000000000000000220000000000000000000000000000000000000000000000000000000000000000c63474853202870696c6f74290000000000000000000000000000000000000000000000000000000000000000000000000000000000000000000000000000000463474853000000000000000000000000000000000000000000000000000000000000000000000000000000000000000000000000000000000000000000000001000000000000000000000000c66c4ff9cc785f865b3ed48d493d239a3ed2be9b0000000000000000000000000000000000000000000000000000000000000001000000000000000000000000000000000000000000013da329b63364718000000000000000000000000000000000000000000000000000000000000000000000ffffffffffffffffffff8235169190810190604081016020820135640100000000000000000000000000000000000000000000000000000000000000",
        "nonce": "0x671",
        "chainId": "0xaef3"
      },
      "additionalContracts": [],
      "isFixedGasLimit": false
    },
    {
      "hash": "0x9d57ebb2ddc5805092ee007a218430bafbc22ba16b85729fd8fbbb449088a363",
      "transactionType": "CALL",
      "contractName": "StableTokenGHSProxy",
      "contractAddress": "0xa628a1c784ccf86b53acdc81e9d32d3e2c558138",
      "function": null,
      "arguments": null,
      "transaction": {
        "from": "0x56fd3f2bee130e9867942d0f463a16fbe49b8d81",
        "to": "0xa628a1c784ccf86b53acdc81e9d32d3e2c558138",
        "gas": "0x17e48",
        "value": "0x0",
        "input": "0x2c3bb44a000000000000000000000000c66c4ff9cc785f865b3ed48d493d239a3ed2be9b00000000000000000000000000000000000000000000000000000000000000000000000000000000000000000000000000000000000000000000000000000000",
        "nonce": "0x672",
        "chainId": "0xaef3"
      },
      "additionalContracts": [],
      "isFixedGasLimit": false
    }
  ],
  "receipts": [
    {
      "status": "0x1",
      "cumulativeGasUsed": "0x9dc41",
      "logs": [
        {
          "address": "0xa628a1c784ccf86b53acdc81e9d32d3e2c558138",
          "topics": [
            "0x50146d0e3c60aa1d17a70635b05494f864e86144a2201275021014fbf08bafe2",
            "0x00000000000000000000000056fd3f2bee130e9867942d0f463a16fbe49b8d81"
          ],
          "data": "0x",
          "blockHash": "0x7fc28361bfe1e285930691c68bca788eb4522fc3869df585f8d6108778bcb1c8",
          "blockNumber": "0x1b7d35b",
          "transactionHash": "0x9ec9d3f312872b6159a4b095919901d24ee1022088fd45200d8542b122956365",
          "transactionIndex": "0x1",
          "logIndex": "0x0",
          "removed": false
        }
      ],
      "logsBloom": "0x00000000000000000000000000000000000000000000000020000000000000000000000000000000000000000000410000000000000000000000000000000000000000000000000000000000000000000000000000000400000000001000000000000000000000000000000000000000000000000000900000000000000000000000000000000000000000000000000000000000000000000000000000000000000000000000000000000000000000000000000000000000000000000000000000000000000000000000000000000000000000000000000000400000000000000004000000000000000000000000000000000000000000000000000000000000",
      "type": "0x0",
      "transactionHash": "0x9ec9d3f312872b6159a4b095919901d24ee1022088fd45200d8542b122956365",
      "transactionIndex": "0x1",
      "blockHash": "0x7fc28361bfe1e285930691c68bca788eb4522fc3869df585f8d6108778bcb1c8",
      "blockNumber": "0x1b7d35b",
      "gasUsed": "0x91b43",
      "effectiveGasPrice": "0x5d22cfc40",
      "from": "0x56fd3f2bee130e9867942d0f463a16fbe49b8d81",
      "to": null,
      "contractAddress": "0xa628a1c784ccf86b53acdc81e9d32d3e2c558138",
      "l1BaseFeeScalar": "0x558",
      "l1BlobBaseFee": "0x1",
      "l1BlobBaseFeeScalar": "0xc5fc5",
      "l1Fee": "0x41d",
      "l1GasPrice": "0x9",
      "l1GasUsed": "0x414d"
    },
    {
      "status": "0x1",
      "cumulativeGasUsed": "0x3ffca",
      "logs": [
        {
          "address": "0xa628a1c784ccf86b53acdc81e9d32d3e2c558138",
          "topics": [
            "0xab64f92ab780ecbf4f3866f57cee465ff36c89450dcce20237ca7a8d81fb7d13",
            "0x0000000000000000000000003bd899048f4f6951ffeb5474205b79fdb09d6212"
          ],
          "data": "0x",
          "blockHash": "0xa1ba5a677137fae4836332a7ab35977b51bccdd57187601618fff641cf72ce96",
          "blockNumber": "0x1b7d35c",
          "transactionHash": "0xbe46fcb329c3967c73d3a89392cc44e118a91245825c6bce871f443ccf43cab6",
          "transactionIndex": "0x1",
          "logIndex": "0x0",
          "removed": false
        },
        {
          "address": "0xa628a1c784ccf86b53acdc81e9d32d3e2c558138",
          "topics": [
            "0x8be0079c531659141344cd1fd0a4f28419497f9722a3daafe3b4186f6b6457e0",
            "0x0000000000000000000000000000000000000000000000000000000000000000",
            "0x00000000000000000000000056fd3f2bee130e9867942d0f463a16fbe49b8d81"
          ],
          "data": "0x",
          "blockHash": "0xa1ba5a677137fae4836332a7ab35977b51bccdd57187601618fff641cf72ce96",
          "blockNumber": "0x1b7d35c",
          "transactionHash": "0xbe46fcb329c3967c73d3a89392cc44e118a91245825c6bce871f443ccf43cab6",
          "transactionIndex": "0x1",
          "logIndex": "0x1",
          "removed": false
        },
        {
          "address": "0xa628a1c784ccf86b53acdc81e9d32d3e2c558138",
          "topics": [
            "0xddf252ad1be2c89b69c2b068fc378daa952ba7f163c4a11628f55a4df523b3ef",
            "0x0000000000000000000000000000000000000000000000000000000000000000",
            "0x000000000000000000000000c66c4ff9cc785f865b3ed48d493d239a3ed2be9b"
          ],
          "data": "0x000000000000000000000000000000000000000000013da329b6336471800000",
          "blockHash": "0xa1ba5a677137fae4836332a7ab35977b51bccdd57187601618fff641cf72ce96",
          "blockNumber": "0x1b7d35c",
          "transactionHash": "0xbe46fcb329c3967c73d3a89392cc44e118a91245825c6bce871f443ccf43cab6",
          "transactionIndex": "0x1",
          "logIndex": "0x2",
          "removed": false
        },
        {
          "address": "0xa628a1c784ccf86b53acdc81e9d32d3e2c558138",
          "topics": [
            "0x7f26b83ff96e1f2b6a682f133852f6798a09c465da95921460cefb3847402498"
          ],
          "data": "0x0000000000000000000000000000000000000000000000000000000000000001",
          "blockHash": "0xa1ba5a677137fae4836332a7ab35977b51bccdd57187601618fff641cf72ce96",
          "blockNumber": "0x1b7d35c",
          "transactionHash": "0xbe46fcb329c3967c73d3a89392cc44e118a91245825c6bce871f443ccf43cab6",
          "transactionIndex": "0x1",
          "logIndex": "0x3",
          "removed": false
        }
      ],
      "logsBloom": "0x00000000000000000000000002000000000000000000000020800000000000000000000000000000000000000000010000000000000000000000000000000000000000000000000000000008000000000009000000000400000000000000000100000000020000000000000000000800000000000000808000000010000000400000000000000000000000000000000000000000000080000000000000000000000000000000000000000000000400000000000000000000200000004000000000000022000000000000000000040000000000000000000000400000000020000004000000000000000004000000000000000000000000000000000000000000",
      "type": "0x0",
      "transactionHash": "0xbe46fcb329c3967c73d3a89392cc44e118a91245825c6bce871f443ccf43cab6",
      "transactionIndex": "0x1",
      "blockHash": "0xa1ba5a677137fae4836332a7ab35977b51bccdd57187601618fff641cf72ce96",
      "blockNumber": "0x1b7d35c",
      "gasUsed": "0x354a0",
      "effectiveGasPrice": "0x5d22cfc40",
      "from": "0x56fd3f2bee130e9867942d0f463a16fbe49b8d81",
      "to": "0xa628a1c784ccf86b53acdc81e9d32d3e2c558138",
      "contractAddress": null,
      "l1BaseFeeScalar": "0x558",
      "l1BlobBaseFee": "0x1",
      "l1BlobBaseFeeScalar": "0xc5fc5",
      "l1Fee": "0xe3",
      "l1GasPrice": "0x9",
      "l1GasUsed": "0xe1e"
    },
    {
      "status": "0x1",
      "cumulativeGasUsed": "0x5148e",
      "logs": [
        {
          "address": "0xa628a1c784ccf86b53acdc81e9d32d3e2c558138",
          "topics": [
            "0x865dab7821134b6eb27cba259b40e33bbc1b898e970a535a18a83147f380a51f"
          ],
          "data": "0x000000000000000000000000c66c4ff9cc785f865b3ed48d493d239a3ed2be9b",
          "blockHash": "0xa1ba5a677137fae4836332a7ab35977b51bccdd57187601618fff641cf72ce96",
          "blockNumber": "0x1b7d35c",
          "transactionHash": "0x9d57ebb2ddc5805092ee007a218430bafbc22ba16b85729fd8fbbb449088a363",
          "transactionIndex": "0x2",
          "logIndex": "0x4",
          "removed": false
        },
        {
          "address": "0xa628a1c784ccf86b53acdc81e9d32d3e2c558138",
          "topics": [
            "0x34edb180d960e50e3657f8fba1bf1f35c399c2bbad42b7e0f6561e6fb4ae3d7c"
          ],
          "data": "0x0000000000000000000000000000000000000000000000000000000000000000",
          "blockHash": "0xa1ba5a677137fae4836332a7ab35977b51bccdd57187601618fff641cf72ce96",
          "blockNumber": "0x1b7d35c",
          "transactionHash": "0x9d57ebb2ddc5805092ee007a218430bafbc22ba16b85729fd8fbbb449088a363",
          "transactionIndex": "0x2",
          "logIndex": "0x5",
          "removed": false
        },
        {
          "address": "0xa628a1c784ccf86b53acdc81e9d32d3e2c558138",
          "topics": [
            "0x403871c8d404db2d13402bd857192acd8f680acd7f2d6e1e5bf2128d013d7eaa"
          ],
          "data": "0x0000000000000000000000000000000000000000000000000000000000000000",
          "blockHash": "0xa1ba5a677137fae4836332a7ab35977b51bccdd57187601618fff641cf72ce96",
          "blockNumber": "0x1b7d35c",
          "transactionHash": "0x9d57ebb2ddc5805092ee007a218430bafbc22ba16b85729fd8fbbb449088a363",
          "transactionIndex": "0x2",
          "logIndex": "0x6",
          "removed": false
        },
        {
          "address": "0xa628a1c784ccf86b53acdc81e9d32d3e2c558138",
          "topics": [
            "0x7f26b83ff96e1f2b6a682f133852f6798a09c465da95921460cefb3847402498"
          ],
          "data": "0x0000000000000000000000000000000000000000000000000000000000000002",
          "blockHash": "0xa1ba5a677137fae4836332a7ab35977b51bccdd57187601618fff641cf72ce96",
          "blockNumber": "0x1b7d35c",
          "transactionHash": "0x9d57ebb2ddc5805092ee007a218430bafbc22ba16b85729fd8fbbb449088a363",
          "transactionIndex": "0x2",
          "logIndex": "0x7",
          "removed": false
        }
      ],
      "logsBloom": "0x0000000000000000040000000000000000000000000000000000000000000000000000000000000000000000000000000000000000000000000000000000000000000000000000000000000100000000000000000000040000000000000000000000000080000000000000000000000000020000000080000000000000080000000000000000000000000000000000000000000000008000000000000000000000000000000000000000000000040000000000000000000000000000000000000000000000000000000000000004000000000000000000000040000000000000000002000000000000000000000000c000000000000000200000000000000000",
      "type": "0x0",
      "transactionHash": "0x9d57ebb2ddc5805092ee007a218430bafbc22ba16b85729fd8fbbb449088a363",
      "transactionIndex": "0x2",
      "blockHash": "0xa1ba5a677137fae4836332a7ab35977b51bccdd57187601618fff641cf72ce96",
      "blockNumber": "0x1b7d35c",
      "gasUsed": "0x114c4",
      "effectiveGasPrice": "0x5d22cfc40",
      "from": "0x56fd3f2bee130e9867942d0f463a16fbe49b8d81",
      "to": "0xa628a1c784ccf86b53acdc81e9d32d3e2c558138",
      "contractAddress": null,
      "l1BaseFeeScalar": "0x558",
      "l1BlobBaseFee": "0x1",
      "l1BlobBaseFeeScalar": "0xc5fc5",
      "l1Fee": "0x64",
      "l1GasPrice": "0x9",
      "l1GasUsed": "0x640"
    }
  ],
  "libraries": [
    "lib/mento-core-2.0.0/contracts/common/linkedlists/AddressLinkedList.sol:AddressLinkedList:0x2F0F7686fFFEfc3C266403Ad600035581deaedff",
    "lib/mento-core-2.0.0/contracts/common/linkedlists/AddressSortedLinkedListWithMedian.sol:AddressSortedLinkedListWithMedian:0x29B1B5e05217c751038861aF2C77494EAB10A257"
  ],
  "pending": [],
  "returns": {},
  "timestamp": 1729779741,
  "chain": 44787,
  "commit": "cc5c4ed"
}