{
  "transactions": [
    {
      "hash": "0x0afd8f750157a6993e60f013356d497edb640cbefbe6f936bd8da5f41a12834c",
      "transactionType": "CALL",
      "contractName": null,
      "contractAddress": "0xaa963fc97281d9632d96700ab62a4d1340f9a28a",
      "function": "minDeposit()",
      "arguments": [],
      "transaction": {
        "from": "0x56fd3f2bee130e9867942d0f463a16fbe49b8d81",
        "to": "0xaa963fc97281d9632d96700ab62a4d1340f9a28a",
        "gas": "0x9bae",
        "value": "0x0",
        "input": "0x41b3d185",
        "nonce": "0x546",
        "chainId": "0xaef3"
      },
      "additionalContracts": [],
      "isFixedGasLimit": false
    },
    {
      "hash": "0x04d64d1c70e393de336ff59e889d26d474ce566fd25bf205cd1646b2ec0ccb54",
      "transactionType": "CALL",
      "contractName": null,
      "contractAddress": "0xaa963fc97281d9632d96700ab62a4d1340f9a28a",
      "function": "propose(uint256[],address[],bytes,uint256[],string)",
      "arguments": [
        "[0, 0, 0]",
        "[0xFdd8bD58115FfBf04e47411c1d228eCC45E93075, 0xFdd8bD58115FfBf04e47411c1d228eCC45E93075, 0xFdd8bD58115FfBf04e47411c1d228eCC45E93075]",
        "0xf0ca4adb000000000000000000000000afc02368a174cd08e01c373de6d0b537cecf43c8000000000000000000000000e9c1d593672a28ee3e3817545d7c2b8397b7871ef0ca4adb000000000000000000000000ab921d6ab1057601a9ae19879b111fc381a2a8e9000000000000000000000000f93c6fe760f09f19880f57d643a17a515c11165c145d8d180000000000000000000000008e00fa3a6e955b8b56c861a4f0bd7c80e27f3760000000000000000000000000afc02368a174cd08e01c373de6d0b537cecf43c8",
        "[68, 68, 68]",
        "\"whitelist-oracles\""
      ],
      "transaction": {
        "from": "0x56fd3f2bee130e9867942d0f463a16fbe49b8d81",
        "to": "0xaa963fc97281d9632d96700ab62a4d1340f9a28a",
        "gas": "0xdd39e",
        "value": "0x56bc75e2d63100000",
        "input": "0x65bbdaa000000000000000000000000000000000000000000000000000000000000000a0000000000000000000000000000000000000000000000000000000000000012000000000000000000000000000000000000000000000000000000000000001a000000000000000000000000000000000000000000000000000000000000002a0000000000000000000000000000000000000000000000000000000000000032000000000000000000000000000000000000000000000000000000000000000030000000000000000000000000000000000000000000000000000000000000000000000000000000000000000000000000000000000000000000000000000000000000000000000000000000000000000000000000000000000000000000000000000000000000000000000000000000000000000000000000000000000000003000000000000000000000000fdd8bd58115ffbf04e47411c1d228ecc45e93075000000000000000000000000fdd8bd58115ffbf04e47411c1d228ecc45e93075000000000000000000000000fdd8bd58115ffbf04e47411c1d228ecc45e9307500000000000000000000000000000000000000000000000000000000000000ccf0ca4adb000000000000000000000000afc02368a174cd08e01c373de6d0b537cecf43c8000000000000000000000000e9c1d593672a28ee3e3817545d7c2b8397b7871ef0ca4adb000000000000000000000000ab921d6ab1057601a9ae19879b111fc381a2a8e9000000000000000000000000f93c6fe760f09f19880f57d643a17a515c11165c145d8d180000000000000000000000008e00fa3a6e955b8b56c861a4f0bd7c80e27f3760000000000000000000000000afc02368a174cd08e01c373de6d0b537cecf43c800000000000000000000000000000000000000000000000000000000000000000000000000000000000000000000000000000003000000000000000000000000000000000000000000000000000000000000004400000000000000000000000000000000000000000000000000000000000000440000000000000000000000000000000000000000000000000000000000000044000000000000000000000000000000000000000000000000000000000000001177686974656c6973742d6f7261636c6573000000000000000000000000000000",
        "nonce": "0x547",
        "chainId": "0xaef3"
      },
      "additionalContracts": [],
      "isFixedGasLimit": false
    }
  ],
  "receipts": [
    {
      "status": "0x1",
      "cumulativeGasUsed": "0x70b6",
      "logs": [],
      "logsBloom": "0x00000000000000000000000000000000000000000000000000000000000000000000000000000000000000000000000000000000000000000000000000000000000000000000000000000000000000000000000000000000000000000000000000000000000000000000000000000000000000000000000000000000000000000000000000000000000000000000000000000000000000000000000000000000000000000000000000000000000000000000000000000000000000000000000000000000000000000000000000000000000000000000000000000000000000000000000000000000000000000000000000000000000000000000000000000000",
      "type": "0x0",
      "transactionHash": "0x0afd8f750157a6993e60f013356d497edb640cbefbe6f936bd8da5f41a12834c",
      "transactionIndex": "0x0",
      "blockHash": "0x429893583d563df6f1456b1df8063c1bb61266b1205e7f92894b3823057bceb5",
      "blockNumber": "0x188a369",
      "gasUsed": "0x70b6",
      "effectiveGasPrice": "0x2540be400",
      "from": "0x56fd3f2bee130e9867942d0f463a16fbe49b8d81",
      "to": "0xaa963fc97281d9632d96700ab62a4d1340f9a28a",
      "contractAddress": null
    },
    {
      "status": "0x1",
      "cumulativeGasUsed": "0x9e4f7",
      "logs": [
        {
          "address": "0xaa963fc97281d9632d96700ab62a4d1340f9a28a",
          "topics": [
            "0x3e069fb74dcf5fbc07740b0d40d7f7fc48e9c0ca5dc3d19eb34d2e05d74c5543",
            "0x000000000000000000000000000000000000000000000000000000000000013c"
          ],
          "data": "0x0000000000000000000000000000000000000000000000000000000066c33fd9",
          "blockHash": "0x429893583d563df6f1456b1df8063c1bb61266b1205e7f92894b3823057bceb5",
          "blockNumber": "0x188a369",
          "transactionHash": "0x04d64d1c70e393de336ff59e889d26d474ce566fd25bf205cd1646b2ec0ccb54",
          "transactionIndex": "0x1",
          "logIndex": "0x0",
          "removed": false
        },
        {
          "address": "0xaa963fc97281d9632d96700ab62a4d1340f9a28a",
          "topics": [
            "0x1bfe527f3548d9258c2512b6689f0acfccdd0557d80a53845db25fc57e93d8fe",
            "0x000000000000000000000000000000000000000000000000000000000000013d",
            "0x00000000000000000000000056fd3f2bee130e9867942d0f463a16fbe49b8d81"
          ],
          "data": "0x00000000000000000000000000000000000000000000000000000000000000030000000000000000000000000000000000000000000000056bc75e2d631000000000000000000000000000000000000000000000000000000000000066c33fd9",
          "blockHash": "0x429893583d563df6f1456b1df8063c1bb61266b1205e7f92894b3823057bceb5",
          "blockNumber": "0x188a369",
          "transactionHash": "0x04d64d1c70e393de336ff59e889d26d474ce566fd25bf205cd1646b2ec0ccb54",
          "transactionIndex": "0x1",
          "logIndex": "0x1",
          "removed": false
        }
      ],
      "logsBloom": "0x0000004000000000000000000000000000000000000000002000000000000000000000000000000000000200000001000000000000020000020000000000000000000000000000001000000001000000004000001000000008000000000000000000000000000000000000000000000000000000000000000000000000000000000000000020000000000000000000000000000000000000000000000000000000000000000000000000080000000000000000000000000000000000000000000000000000000000000000000000000000000000000000000000000000c000000004000000000000000000000000002001000000000000000000000000000000",
      "type": "0x0",
      "transactionHash": "0x04d64d1c70e393de336ff59e889d26d474ce566fd25bf205cd1646b2ec0ccb54",
      "transactionIndex": "0x1",
      "blockHash": "0x429893583d563df6f1456b1df8063c1bb61266b1205e7f92894b3823057bceb5",
      "blockNumber": "0x188a369",
      "gasUsed": "0x97441",
      "effectiveGasPrice": "0x2540be400",
      "from": "0x56fd3f2bee130e9867942d0f463a16fbe49b8d81",
      "to": "0xaa963fc97281d9632d96700ab62a4d1340f9a28a",
      "contractAddress": null
    }
  ],
  "libraries": [
    "lib/mento-core-2.0.0/contracts/common/linkedlists/AddressLinkedList.sol:AddressLinkedList:0x2F0F7686fFFEfc3C266403Ad600035581deaedff",
    "lib/mento-core-2.0.0/contracts/common/linkedlists/AddressSortedLinkedListWithMedian.sol:AddressSortedLinkedListWithMedian:0x29B1B5e05217c751038861aF2C77494EAB10A257"
  ],
  "pending": [],
  "returns": {},
  "timestamp": 1724071899,
  "chain": 44787,
  "commit": "865d71c"
}