{
  "transactions": [
    {
      "hash": "0x9853342c9a76b19e9291a66f01b0b36a5a896adecdd9f60310d3c7d203d7767c",
      "transactionType": "CALL",
      "contractName": null,
      "contractAddress": "0xaa963fc97281d9632d96700ab62a4d1340f9a28a",
      "function": "minDeposit()",
      "arguments": [],
      "transaction": {
        "from": "0x56fd3f2bee130e9867942d0f463a16fbe49b8d81",
        "to": "0xaa963fc97281d9632d96700ab62a4d1340f9a28a",
        "gas": "0x9bae",
        "value": "0x0",
        "input": "0x41b3d185",
        "nonce": "0x55e",
        "chainId": "0xaef3"
      },
      "additionalContracts": [],
      "isFixedGasLimit": false
    },
    {
      "hash": "0xe30a902c9f278593b68337281ac374667f005b68a3eaf38ffe96c4d9c0fa14e6",
      "transactionType": "CALL",
      "contractName": null,
      "contractAddress": "0xaa963fc97281d9632d96700ab62a4d1340f9a28a",
      "function": "propose(uint256[],address[],bytes,uint256[],string)",
      "arguments": [
        "[0, 0, 0, 0, 0, 0, 0]",
        "[0xFdd8bD58115FfBf04e47411c1d228eCC45E93075, 0xFdd8bD58115FfBf04e47411c1d228eCC45E93075, 0xFdd8bD58115FfBf04e47411c1d228eCC45E93075, 0xFdd8bD58115FfBf04e47411c1d228eCC45E93075, 0xFdd8bD58115FfBf04e47411c1d228eCC45E93075, 0xFdd8bD58115FfBf04e47411c1d228eCC45E93075, 0xFdd8bD58115FfBf04e47411c1d228eCC45E93075]",
        "0x53a57297000000000000000000000000afc02368a174cd08e01c373de6d0b537cecf43c8000000000000000000000000e9c1d593672a28ee3e3817545d7c2b8397b7871e0000000000000000000000000000000000000000000000000000000000000000f0ca4adb000000000000000000000000afc02368a174cd08e01c373de6d0b537cecf43c80000000000000000000000008b1789b870733a7edbe8e9f577cf417fc2fe2617fc20935d000000000000000000000000afc02368a174cd08e01c373de6d0b537cecf43c8000000000000000000000000000000000000000000000000000000000000012c53a57297000000000000000000000000ab921d6ab1057601a9ae19879b111fc381a2a8e9000000000000000000000000f93c6fe760f09f19880f57d643a17a515c11165c0000000000000000000000000000000000000000000000000000000000000000f0ca4adb000000000000000000000000ab921d6ab1057601a9ae19879b111fc381a2a8e9000000000000000000000000922e3c420b6f778d9ab57172defda4a3dbc85a4cfc20935d000000000000000000000000ab921d6ab1057601a9ae19879b111fc381a2a8e9000000000000000000000000000000000000000000000000000000000000012c145d8d180000000000000000000000008e00fa3a6e955b8b56c861a4f0bd7c80e27f3760000000000000000000000000afc02368a174cd08e01c373de6d0b537cecf43c8",
        "[100, 68, 68, 100, 68, 68, 68]",
        "\"whitelist-oracles\""
      ],
      "transaction": {
        "from": "0x56fd3f2bee130e9867942d0f463a16fbe49b8d81",
        "to": "0xaa963fc97281d9632d96700ab62a4d1340f9a28a",
        "gas": "0x182c42",
        "value": "0x56bc75e2d63100000",
        "input": "0x65bbdaa000000000000000000000000000000000000000000000000000000000000000a000000000000000000000000000000000000000000000000000000000000001a000000000000000000000000000000000000000000000000000000000000002a000000000000000000000000000000000000000000000000000000000000004e000000000000000000000000000000000000000000000000000000000000005e0000000000000000000000000000000000000000000000000000000000000000700000000000000000000000000000000000000000000000000000000000000000000000000000000000000000000000000000000000000000000000000000000000000000000000000000000000000000000000000000000000000000000000000000000000000000000000000000000000000000000000000000000000000000000000000000000000000000000000000000000000000000000000000000000000000000000000000000000000000000000000000000000000000000000000000000000000000000000000000000000000000000000000000000000000000000000000000000000000000000000000000000000000000000000000000000007000000000000000000000000fdd8bd58115ffbf04e47411c1d228ecc45e93075000000000000000000000000fdd8bd58115ffbf04e47411c1d228ecc45e93075000000000000000000000000fdd8bd58115ffbf04e47411c1d228ecc45e93075000000000000000000000000fdd8bd58115ffbf04e47411c1d228ecc45e93075000000000000000000000000fdd8bd58115ffbf04e47411c1d228ecc45e93075000000000000000000000000fdd8bd58115ffbf04e47411c1d228ecc45e93075000000000000000000000000fdd8bd58115ffbf04e47411c1d228ecc45e93075000000000000000000000000000000000000000000000000000000000000021c53a57297000000000000000000000000afc02368a174cd08e01c373de6d0b537cecf43c8000000000000000000000000e9c1d593672a28ee3e3817545d7c2b8397b7871e0000000000000000000000000000000000000000000000000000000000000000f0ca4adb000000000000000000000000afc02368a174cd08e01c373de6d0b537cecf43c80000000000000000000000008b1789b870733a7edbe8e9f577cf417fc2fe2617fc20935d000000000000000000000000afc02368a174cd08e01c373de6d0b537cecf43c8000000000000000000000000000000000000000000000000000000000000012c53a57297000000000000000000000000ab921d6ab1057601a9ae19879b111fc381a2a8e9000000000000000000000000f93c6fe760f09f19880f57d643a17a515c11165c0000000000000000000000000000000000000000000000000000000000000000f0ca4adb000000000000000000000000ab921d6ab1057601a9ae19879b111fc381a2a8e9000000000000000000000000922e3c420b6f778d9ab57172defda4a3dbc85a4cfc20935d000000000000000000000000ab921d6ab1057601a9ae19879b111fc381a2a8e9000000000000000000000000000000000000000000000000000000000000012c145d8d180000000000000000000000008e00fa3a6e955b8b56c861a4f0bd7c80e27f3760000000000000000000000000afc02368a174cd08e01c373de6d0b537cecf43c80000000000000000000000000000000000000000000000000000000000000000000000070000000000000000000000000000000000000000000000000000000000000064000000000000000000000000000000000000000000000000000000000000004400000000000000000000000000000000000000000000000000000000000000440000000000000000000000000000000000000000000000000000000000000064000000000000000000000000000000000000000000000000000000000000004400000000000000000000000000000000000000000000000000000000000000440000000000000000000000000000000000000000000000000000000000000044000000000000000000000000000000000000000000000000000000000000001177686974656c6973742d6f7261636c6573000000000000000000000000000000",
        "nonce": "0x55f",
        "chainId": "0xaef3"
      },
      "additionalContracts": [],
      "isFixedGasLimit": false
    }
  ],
  "receipts": [
    {
      "status": "0x1",
      "cumulativeGasUsed": "0xf7c0",
      "logs": [],
      "logsBloom": "0x00000000000000000000000000000000000000000000000000000000000000000000000000000000000000000000000000000000000000000000000000000000000000000000000000000000000000000000000000000000000000000000000000000000000000000000000000000000000000000000000000000000000000000000000000000000000000000000000000000000000000000000000000000000000000000000000000000000000000000000000000000000000000000000000000000000000000000000000000000000000000000000000000000000000000000000000000000000000000000000000000000000000000000000000000000000",
      "type": "0x0",
      "transactionHash": "0x9853342c9a76b19e9291a66f01b0b36a5a896adecdd9f60310d3c7d203d7767c",
      "transactionIndex": "0x1",
      "blockHash": "0xb9292f716e17b9ec2d38659efe507dfab3c4d5dc1189647cb762ba252868d2b4",
      "blockNumber": "0x18a427a",
      "gasUsed": "0x70b6",
      "effectiveGasPrice": "0xba43b7400",
      "from": "0x56fd3f2bee130e9867942d0f463a16fbe49b8d81",
      "to": "0xaa963fc97281d9632d96700ab62a4d1340f9a28a",
      "contractAddress": null
    },
    {
      "status": "0x1",
      "cumulativeGasUsed": "0x117f0a",
      "logs": [
        {
          "address": "0xaa963fc97281d9632d96700ab62a4d1340f9a28a",
          "topics": [
            "0x1bfe527f3548d9258c2512b6689f0acfccdd0557d80a53845db25fc57e93d8fe",
            "0x0000000000000000000000000000000000000000000000000000000000000141",
            "0x00000000000000000000000056fd3f2bee130e9867942d0f463a16fbe49b8d81"
          ],
          "data": "0x00000000000000000000000000000000000000000000000000000000000000070000000000000000000000000000000000000000000000056bc75e2d631000000000000000000000000000000000000000000000000000000000000066cb5c24",
          "blockHash": "0xb9292f716e17b9ec2d38659efe507dfab3c4d5dc1189647cb762ba252868d2b4",
          "blockNumber": "0x18a427a",
          "transactionHash": "0xe30a902c9f278593b68337281ac374667f005b68a3eaf38ffe96c4d9c0fa14e6",
          "transactionIndex": "0x2",
          "logIndex": "0x1",
          "removed": false
        }
      ],
      "logsBloom": "0x00000000000000000000000000000000000000000000000020000000000000000000000000000000000002000000010000000000000200000000000000000000000000000000000010000000010000000000000000000000080000000000000000000000000000000000000000000000000000000000000000000000000000000000000000200000000000000004000000000000000000000000000000000000000000000000000000000000000000000000000000100000000000000000000000000000000000000000000000000000000000000000000000000000000000000004000000000000000000000000000000000000000000000000000000400000",
      "type": "0x0",
      "transactionHash": "0xe30a902c9f278593b68337281ac374667f005b68a3eaf38ffe96c4d9c0fa14e6",
      "transactionIndex": "0x2",
      "blockHash": "0xb9292f716e17b9ec2d38659efe507dfab3c4d5dc1189647cb762ba252868d2b4",
      "blockNumber": "0x18a427a",
      "gasUsed": "0x10874a",
      "effectiveGasPrice": "0xba43b7400",
      "from": "0x56fd3f2bee130e9867942d0f463a16fbe49b8d81",
      "to": "0xaa963fc97281d9632d96700ab62a4d1340f9a28a",
      "contractAddress": null
    }
  ],
  "libraries": [
    "lib/mento-core-2.0.0/contracts/common/linkedlists/AddressLinkedList.sol:AddressLinkedList:0x2F0F7686fFFEfc3C266403Ad600035581deaedff",
    "lib/mento-core-2.0.0/contracts/common/linkedlists/AddressSortedLinkedListWithMedian.sol:AddressSortedLinkedListWithMedian:0x29B1B5e05217c751038861aF2C77494EAB10A257"
  ],
  "pending": [],
  "returns": {},
  "timestamp": 1724603433,
  "chain": 44787,
  "commit": "b28a0b9"
}