{
  "transactions": [
    {
      "hash": "0x202da2fdf7d758923e24f5360e7957e9f5a6e1f7a9dbdc0ed3a6bf399c75a860",
      "transactionType": "CALL",
      "contractName": null,
      "contractAddress": "0xaa963fc97281d9632d96700ab62a4d1340f9a28a",
      "function": "minDeposit()",
      "arguments": [],
      "transaction": {
        "from": "0x56fd3f2bee130e9867942d0f463a16fbe49b8d81",
        "to": "0xaa963fc97281d9632d96700ab62a4d1340f9a28a",
        "gas": "0x9bae",
        "value": "0x0",
        "input": "0x41b3d185",
        "nonce": "0x515",
        "chainId": "0xaef3"
      },
      "additionalContracts": [],
      "isFixedGasLimit": false
    },
    {
      "hash": "0xc12b0abdd89f07d158858b09cf9253244808ec25ed9664a70d7542fe153274e6",
      "transactionType": "CALL",
      "contractName": null,
      "contractAddress": "0xaa963fc97281d9632d96700ab62a4d1340f9a28a",
      "function": "propose(uint256[],address[],bytes,uint256[],string)",
      "arguments": [
        "[0, 0, 0, 0, 0]",
        "[0xFdd8bD58115FfBf04e47411c1d228eCC45E93075, 0xFdd8bD58115FfBf04e47411c1d228eCC45E93075, 0xFdd8bD58115FfBf04e47411c1d228eCC45E93075, 0xFdd8bD58115FfBf04e47411c1d228eCC45E93075, 0xFdd8bD58115FfBf04e47411c1d228eCC45E93075]",
        "0x53a5729700000000000000000000000060541ca142bed7dccc9b5537c28cb07599df2019000000000000000000000000ef9fe8f058ce0b93ecf871ee273c9ae8488cd5070000000000000000000000000000000000000000000000000000000000000000f0ca4adb00000000000000000000000060541ca142bed7dccc9b5537c28cb07599df20190000000000000000000000008a6a942eb463a05f33b60c40a8f5386140df51a753a5729700000000000000000000000080e9c13c65fc3c9f210f6bdfdf1301c0d989dbc6000000000000000000000000fbd69c9460fa232453ac42834d3e6fb8cf1177f60000000000000000000000000000000000000000000000000000000000000000f0ca4adb00000000000000000000000080e9c13c65fc3c9f210f6bdfdf1301c0d989dbc6000000000000000000000000987e3018f7ee18ce08286ebe5dead0d8bac69d46145d8d18000000000000000000000000000000000000000000000000000000000000000100000000000000000000000060541ca142bed7dccc9b5537c28cb07599df2019",
        "[100, 68, 100, 68, 68]",
        "\"whitelist-oracles\""
      ],
      "transaction": {
        "from": "0x56fd3f2bee130e9867942d0f463a16fbe49b8d81",
        "to": "0xaa963fc97281d9632d96700ab62a4d1340f9a28a",
        "gas": "0x11ee00",
        "value": "0x56bc75e2d63100000",
        "input": "0x65bbdaa000000000000000000000000000000000000000000000000000000000000000a00000000000000000000000000000000000000000000000000000000000000160000000000000000000000000000000000000000000000000000000000000022000000000000000000000000000000000000000000000000000000000000003e000000000000000000000000000000000000000000000000000000000000004a00000000000000000000000000000000000000000000000000000000000000005000000000000000000000000000000000000000000000000000000000000000000000000000000000000000000000000000000000000000000000000000000000000000000000000000000000000000000000000000000000000000000000000000000000000000000000000000000000000000000000000000000000000000000000000000000000000000000000000000000000000000000000000000000000000000000000000000000000000000000000000000000000000000000000005000000000000000000000000fdd8bd58115ffbf04e47411c1d228ecc45e93075000000000000000000000000fdd8bd58115ffbf04e47411c1d228ecc45e93075000000000000000000000000fdd8bd58115ffbf04e47411c1d228ecc45e93075000000000000000000000000fdd8bd58115ffbf04e47411c1d228ecc45e93075000000000000000000000000fdd8bd58115ffbf04e47411c1d228ecc45e93075000000000000000000000000000000000000000000000000000000000000019453a5729700000000000000000000000060541ca142bed7dccc9b5537c28cb07599df2019000000000000000000000000ef9fe8f058ce0b93ecf871ee273c9ae8488cd5070000000000000000000000000000000000000000000000000000000000000000f0ca4adb00000000000000000000000060541ca142bed7dccc9b5537c28cb07599df20190000000000000000000000008a6a942eb463a05f33b60c40a8f5386140df51a753a5729700000000000000000000000080e9c13c65fc3c9f210f6bdfdf1301c0d989dbc6000000000000000000000000fbd69c9460fa232453ac42834d3e6fb8cf1177f60000000000000000000000000000000000000000000000000000000000000000f0ca4adb00000000000000000000000080e9c13c65fc3c9f210f6bdfdf1301c0d989dbc6000000000000000000000000987e3018f7ee18ce08286ebe5dead0d8bac69d46145d8d18000000000000000000000000000000000000000000000000000000000000000100000000000000000000000060541ca142bed7dccc9b5537c28cb07599df2019000000000000000000000000000000000000000000000000000000000000000000000000000000000000000500000000000000000000000000000000000000000000000000000000000000640000000000000000000000000000000000000000000000000000000000000044000000000000000000000000000000000000000000000000000000000000006400000000000000000000000000000000000000000000000000000000000000440000000000000000000000000000000000000000000000000000000000000044000000000000000000000000000000000000000000000000000000000000001177686974656c6973742d6f7261636c6573000000000000000000000000000000",
        "nonce": "0x516",
        "chainId": "0xaef3"
      },
      "additionalContracts": [],
      "isFixedGasLimit": false
    }
  ],
  "receipts": [
    {
      "status": "0x1",
      "cumulativeGasUsed": "0x70b6",
      "logs": [],
      "logsBloom": "0x00000000000000000000000000000000000000000000000000000000000000000000000000000000000000000000000000000000000000000000000000000000000000000000000000000000000000000000000000000000000000000000000000000000000000000000000000000000000000000000000000000000000000000000000000000000000000000000000000000000000000000000000000000000000000000000000000000000000000000000000000000000000000000000000000000000000000000000000000000000000000000000000000000000000000000000000000000000000000000000000000000000000000000000000000000000",
      "type": "0x0",
      "transactionHash": "0x202da2fdf7d758923e24f5360e7957e9f5a6e1f7a9dbdc0ed3a6bf399c75a860",
      "transactionIndex": "0x0",
      "blockHash": "0x60fca585e5136f44a776b995628c7e920566ac612f6d56ee3a4332c272aefa27",
      "blockNumber": "0x187930a",
      "gasUsed": "0x70b6",
      "effectiveGasPrice": "0x2540be400",
      "from": "0x56fd3f2bee130e9867942d0f463a16fbe49b8d81",
      "to": "0xaa963fc97281d9632d96700ab62a4d1340f9a28a",
      "contractAddress": null
    },
    {
      "status": "0x1",
      "cumulativeGasUsed": "0xd6bca",
      "logs": [
        {
          "address": "0xaa963fc97281d9632d96700ab62a4d1340f9a28a",
          "topics": [
            "0x1bfe527f3548d9258c2512b6689f0acfccdd0557d80a53845db25fc57e93d8fe",
            "0x000000000000000000000000000000000000000000000000000000000000013a",
            "0x00000000000000000000000056fd3f2bee130e9867942d0f463a16fbe49b8d81"
          ],
          "data": "0x00000000000000000000000000000000000000000000000000000000000000050000000000000000000000000000000000000000000000056bc75e2d631000000000000000000000000000000000000000000000000000000000000066bdeddf",
          "blockHash": "0x60fca585e5136f44a776b995628c7e920566ac612f6d56ee3a4332c272aefa27",
          "blockNumber": "0x187930a",
          "transactionHash": "0xc12b0abdd89f07d158858b09cf9253244808ec25ed9664a70d7542fe153274e6",
          "transactionIndex": "0x1",
          "logIndex": "0x0",
          "removed": false
        }
      ],
      "logsBloom": "0x00000000000000000000000000000000800000000000000020000000000000000000000000000000000002000000010000000000000200000000000000000000000000000000000010000000010000000000000000000000080000000000000000000000000000080000000000000000000000000000000000000000000000000000000000200000000000000000000000000000000000000000000000000000000000000000000000000000000000000000000000000000000000000000000000000000000000000000000000000000000000000000000000000000000000000004000000000000000000000000000000000800000000000000000000000000",
      "type": "0x0",
      "transactionHash": "0xc12b0abdd89f07d158858b09cf9253244808ec25ed9664a70d7542fe153274e6",
      "transactionIndex": "0x1",
      "blockHash": "0x60fca585e5136f44a776b995628c7e920566ac612f6d56ee3a4332c272aefa27",
      "blockNumber": "0x187930a",
      "gasUsed": "0xcfb14",
      "effectiveGasPrice": "0x2540be400",
      "from": "0x56fd3f2bee130e9867942d0f463a16fbe49b8d81",
      "to": "0xaa963fc97281d9632d96700ab62a4d1340f9a28a",
      "contractAddress": null
    }
  ],
  "libraries": [
    "lib/mento-core-2.0.0/contracts/common/linkedlists/AddressLinkedList.sol:AddressLinkedList:0x2F0F7686fFFEfc3C266403Ad600035581deaedff",
    "lib/mento-core-2.0.0/contracts/common/linkedlists/AddressSortedLinkedListWithMedian.sol:AddressSortedLinkedListWithMedian:0x29B1B5e05217c751038861aF2C77494EAB10A257"
  ],
  "pending": [],
  "returns": {},
  "timestamp": 1723723234,
  "chain": 44787,
  "commit": "e6d2600"
}