{
  "transactions": [
    {
      "hash": "0x5e037318fecce9286188173fd5f0d6df86ea91022008f4c08eb3479122bd8c08",
      "transactionType": "CALL",
      "contractName": null,
      "contractAddress": "0xaa963fc97281d9632d96700ab62a4d1340f9a28a",
      "function": "minDeposit()",
      "arguments": [],
      "transaction": {
        "from": "0x56fd3f2bee130e9867942d0f463a16fbe49b8d81",
        "to": "0xaa963fc97281d9632d96700ab62a4d1340f9a28a",
        "gas": "0x9bae",
        "value": "0x0",
        "input": "0x41b3d185",
        "nonce": "0x586",
        "chainId": "0xaef3"
      },
      "additionalContracts": [],
      "isFixedGasLimit": false
    },
    {
      "hash": "0x2440db58060f5aa7c9f9617e079892f879b89a72f5cd402cb6fb4e9489ab7eaf",
      "transactionType": "CALL",
      "contractName": null,
      "contractAddress": "0xaa963fc97281d9632d96700ab62a4d1340f9a28a",
      "function": "propose(uint256[],address[],bytes,uint256[],string)",
      "arguments": [
        "[0, 0, 0, 0, 0]",
        "[0xFdd8bD58115FfBf04e47411c1d228eCC45E93075, 0xFdd8bD58115FfBf04e47411c1d228eCC45E93075, 0xFdd8bD58115FfBf04e47411c1d228eCC45E93075, 0xFdd8bD58115FfBf04e47411c1d228eCC45E93075, 0xFdd8bD58115FfBf04e47411c1d228eCC45E93075]",
        "0x53a57297000000000000000000000000afc02368a174cd08e01c373de6d0b537cecf43c800000000000000000000000072eff9ad96448b0b4efd4953245b69a3503eadd60000000000000000000000000000000000000000000000000000000000000000f0ca4adb000000000000000000000000afc02368a174cd08e01c373de6d0b537cecf43c8000000000000000000000000390575d302361b47561b16cf6e4781213a977ca953a57297000000000000000000000000ab921d6ab1057601a9ae19879b111fc381a2a8e9000000000000000000000000a5885be7a37ea97eaab309fd208fa14ac03e12620000000000000000000000000000000000000000000000000000000000000000f0ca4adb000000000000000000000000ab921d6ab1057601a9ae19879b111fc381a2a8e90000000000000000000000009c65c22c96391b0fc09122b86908ad680a8f0fe0145d8d180000000000000000000000005e0e3c9419c42a1b04e2525991fb1a2c467ab8bf000000000000000000000000afc02368a174cd08e01c373de6d0b537cecf43c8",
        "[100, 68, 100, 68, 68]",
        "\"whitelist-oracles\""
      ],
      "transaction": {
        "from": "0x56fd3f2bee130e9867942d0f463a16fbe49b8d81",
        "to": "0xaa963fc97281d9632d96700ab62a4d1340f9a28a",
        "gas": "0x11ef3a",
        "value": "0x56bc75e2d63100000",
        "input": "0x65bbdaa000000000000000000000000000000000000000000000000000000000000000a00000000000000000000000000000000000000000000000000000000000000160000000000000000000000000000000000000000000000000000000000000022000000000000000000000000000000000000000000000000000000000000003e000000000000000000000000000000000000000000000000000000000000004a00000000000000000000000000000000000000000000000000000000000000005000000000000000000000000000000000000000000000000000000000000000000000000000000000000000000000000000000000000000000000000000000000000000000000000000000000000000000000000000000000000000000000000000000000000000000000000000000000000000000000000000000000000000000000000000000000000000000000000000000000000000000000000000000000000000000000000000000000000000000000000000000000000000000000005000000000000000000000000fdd8bd58115ffbf04e47411c1d228ecc45e93075000000000000000000000000fdd8bd58115ffbf04e47411c1d228ecc45e93075000000000000000000000000fdd8bd58115ffbf04e47411c1d228ecc45e93075000000000000000000000000fdd8bd58115ffbf04e47411c1d228ecc45e93075000000000000000000000000fdd8bd58115ffbf04e47411c1d228ecc45e93075000000000000000000000000000000000000000000000000000000000000019453a57297000000000000000000000000afc02368a174cd08e01c373de6d0b537cecf43c800000000000000000000000072eff9ad96448b0b4efd4953245b69a3503eadd60000000000000000000000000000000000000000000000000000000000000000f0ca4adb000000000000000000000000afc02368a174cd08e01c373de6d0b537cecf43c8000000000000000000000000390575d302361b47561b16cf6e4781213a977ca953a57297000000000000000000000000ab921d6ab1057601a9ae19879b111fc381a2a8e9000000000000000000000000a5885be7a37ea97eaab309fd208fa14ac03e12620000000000000000000000000000000000000000000000000000000000000000f0ca4adb000000000000000000000000ab921d6ab1057601a9ae19879b111fc381a2a8e90000000000000000000000009c65c22c96391b0fc09122b86908ad680a8f0fe0145d8d180000000000000000000000005e0e3c9419c42a1b04e2525991fb1a2c467ab8bf000000000000000000000000afc02368a174cd08e01c373de6d0b537cecf43c8000000000000000000000000000000000000000000000000000000000000000000000000000000000000000500000000000000000000000000000000000000000000000000000000000000640000000000000000000000000000000000000000000000000000000000000044000000000000000000000000000000000000000000000000000000000000006400000000000000000000000000000000000000000000000000000000000000440000000000000000000000000000000000000000000000000000000000000044000000000000000000000000000000000000000000000000000000000000001177686974656c6973742d6f7261636c6573000000000000000000000000000000",
        "nonce": "0x587",
        "chainId": "0xaef3"
      },
      "additionalContracts": [],
      "isFixedGasLimit": false
    }
  ],
  "receipts": [
    {
      "status": "0x1",
      "cumulativeGasUsed": "0x70b6",
      "logs": [],
      "logsBloom": "0x00000000000000000000000000000000000000000000000000000000000000000000000000000000000000000000000000000000000000000000000000000000000000000000000000000000000000000000000000000000000000000000000000000000000000000000000000000000000000000000000000000000000000000000000000000000000000000000000000000000000000000000000000000000000000000000000000000000000000000000000000000000000000000000000000000000000000000000000000000000000000000000000000000000000000000000000000000000000000000000000000000000000000000000000000000000",
      "type": "0x0",
      "transactionHash": "0x5e037318fecce9286188173fd5f0d6df86ea91022008f4c08eb3479122bd8c08",
      "transactionIndex": "0x0",
      "blockHash": "0x99cbdb041ed46fd2b199c25c0eb26fb39a987ffed7a9b4b8434007d135c50c04",
      "blockNumber": "0x18ab42d",
      "gasUsed": "0x70b6",
      "effectiveGasPrice": "0xba43b7400",
      "from": "0x56fd3f2bee130e9867942d0f463a16fbe49b8d81",
      "to": "0xaa963fc97281d9632d96700ab62a4d1340f9a28a",
      "contractAddress": null
    },
    {
      "status": "0x1",
      "cumulativeGasUsed": "0xd6cae",
      "logs": [
        {
          "address": "0xaa963fc97281d9632d96700ab62a4d1340f9a28a",
          "topics": [
            "0x1bfe527f3548d9258c2512b6689f0acfccdd0557d80a53845db25fc57e93d8fe",
            "0x0000000000000000000000000000000000000000000000000000000000000143",
            "0x00000000000000000000000056fd3f2bee130e9867942d0f463a16fbe49b8d81"
          ],
          "data": "0x00000000000000000000000000000000000000000000000000000000000000050000000000000000000000000000000000000000000000056bc75e2d631000000000000000000000000000000000000000000000000000000000000066cd94a3",
          "blockHash": "0x99cbdb041ed46fd2b199c25c0eb26fb39a987ffed7a9b4b8434007d135c50c04",
          "blockNumber": "0x18ab42d",
          "transactionHash": "0x2440db58060f5aa7c9f9617e079892f879b89a72f5cd402cb6fb4e9489ab7eaf",
          "transactionIndex": "0x1",
          "logIndex": "0x0",
          "removed": false
        }
      ],
      "logsBloom": "0x00000000000000000000000000000000000000000000000020000000000000000000000000000000000002000000010000000000000200000000000000000000000000000000000010000000010000000000000000000000080000000000000000000000000000000000000000000000000000000000000000000000000000000000000400200000000000000000000000000000000000000000000000000000000000000000000000000000000000000000000000000000000000000000000000000000000010000000000000000000000000000000000000000000000000000006000000000000000000000000000000000000000000000000000000000000",
      "type": "0x0",
      "transactionHash": "0x2440db58060f5aa7c9f9617e079892f879b89a72f5cd402cb6fb4e9489ab7eaf",
      "transactionIndex": "0x1",
      "blockHash": "0x99cbdb041ed46fd2b199c25c0eb26fb39a987ffed7a9b4b8434007d135c50c04",
      "blockNumber": "0x18ab42d",
      "gasUsed": "0xcfbf8",
      "effectiveGasPrice": "0xba43b7400",
      "from": "0x56fd3f2bee130e9867942d0f463a16fbe49b8d81",
      "to": "0xaa963fc97281d9632d96700ab62a4d1340f9a28a",
      "contractAddress": null
    }
  ],
  "libraries": [
    "lib/mento-core-2.0.0/contracts/common/linkedlists/AddressLinkedList.sol:AddressLinkedList:0x2F0F7686fFFEfc3C266403Ad600035581deaedff",
    "lib/mento-core-2.0.0/contracts/common/linkedlists/AddressSortedLinkedListWithMedian.sol:AddressSortedLinkedListWithMedian:0x29B1B5e05217c751038861aF2C77494EAB10A257"
  ],
  "pending": [],
  "returns": {},
  "timestamp": 1724748969,
  "chain": 44787,
  "commit": "663bcd4"
}