{
  "transactions": [
    {
      "hash": "0x942572ce2d6b43108116c85582c9529c342989241965efc93f605d0f334a1b29",
      "transactionType": "CREATE",
      "contractName": "StableTokenGHSProxy",
      "contractAddress": "0xeb97b785f23df6f89e407e5c72c5a8514b15cf56",
      "function": null,
      "arguments": null,
      "transaction": {
        "from": "0x56fd3f2bee130e9867942d0f463a16fbe49b8d81",
        "gas": "0xbd5cc",
        "value": "0x0",
        "input": "0x6080604052610016336001600160e01b0361001b16565b6100d9565b6001600160a01b03811661006a576040805162461bcd60e51b815260206004820152601160248201527006f776e65722063616e6e6f74206265203607c1b604482015290519081900360640190fd5b604080517f656970313936372e70726f78792e61646d696e000000000000000000000000008152905190819003601301812060001901828155906001600160a01b038316907f50146d0e3c60aa1d17a70635b05494f864e86144a2201275021014fbf08bafe290600090a25050565b61096b806100e86000396000f3fe60806040526004361061005a5760003560e01c8063bb913f4111610043578063bb913f41146102a7578063d29d44ee146102e7578063f7e6af80146103275761005a565b806303386ba3146101da57806342404e0714610269575b604080517f656970313936372e70726f78792e696d706c656d656e746174696f6e000000008152905190819003601c0190207fffffffffffffffffffffffffffffffffffffffffffffffffffffffffffffffff01805473ffffffffffffffffffffffffffffffffffffffff811661013257604080517f08c379a000000000000000000000000000000000000000000000000000000000815260206004820152601560248201527f4e6f20496d706c656d656e746174696f6e207365740000000000000000000000604482015290519081900360640190fd5b61013b8161033c565b6101a657604080517f08c379a000000000000000000000000000000000000000000000000000000000815260206004820152601860248201527f496e76616c696420636f6e747261637420616464726573730000000000000000604482015290519081900360640190fd5b60405136810160405236600082376000803683855af43d604051818101604052816000823e8280156101d6578282f35b8282fd5b610267600480360360408110156101f057600080fd5b73ffffffffffffffffffffffffffffffffffffffff823516919081019060408101602082013564010000000081111561022857600080fd5b82018360208201111561023a57600080fd5b8035906020019184600183028401116401000000008311171561025c57600080fd5b509092509050610378565b005b34801561027557600080fd5b5061027e61050c565b6040805173ffffffffffffffffffffffffffffffffffffffff9092168252519081900360200190f35b3480156102b357600080fd5b50610267600480360360208110156102ca57600080fd5b503573ffffffffffffffffffffffffffffffffffffffff16610564565b3480156102f357600080fd5b506102676004803603602081101561030a57600080fd5b503573ffffffffffffffffffffffffffffffffffffffff16610715565b34801561033357600080fd5b5061027e6107c2565b6000813f7fc5d2460186f7233c927e7db2dcc703c0e500b653ca82273b7bfad8045d85a47081811480159061037057508115155b949350505050565b6103806107c2565b73ffffffffffffffffffffffffffffffffffffffff163373ffffffffffffffffffffffffffffffffffffffff161461041957604080517f08c379a000000000000000000000000000000000000000000000000000000000815260206004820152601460248201527f73656e64657220776173206e6f74206f776e6572000000000000000000000000604482015290519081900360640190fd5b61042283610564565b600060608473ffffffffffffffffffffffffffffffffffffffff1684846040518083838082843760405192019450600093509091505080830381855af49150503d806000811461048e576040519150601f19603f3d011682016040523d82523d6000602084013e610493565b606091505b5090925090508161050557604080517f08c379a000000000000000000000000000000000000000000000000000000000815260206004820152601e60248201527f696e697469616c697a6174696f6e2063616c6c6261636b206661696c65640000604482015290519081900360640190fd5b5050505050565b604080517f656970313936372e70726f78792e696d706c656d656e746174696f6e000000008152905190819003601c0190207fffffffffffffffffffffffffffffffffffffffffffffffffffffffffffffffff015490565b61056c6107c2565b73ffffffffffffffffffffffffffffffffffffffff163373ffffffffffffffffffffffffffffffffffffffff161461060557604080517f08c379a000000000000000000000000000000000000000000000000000000000815260206004820152601460248201527f73656e64657220776173206e6f74206f776e6572000000000000000000000000604482015290519081900360640190fd5b604080517f656970313936372e70726f78792e696d706c656d656e746174696f6e000000008152905190819003601c0190207fffffffffffffffffffffffffffffffffffffffffffffffffffffffffffffffff016106628261033c565b6106cd57604080517f08c379a000000000000000000000000000000000000000000000000000000000815260206004820152601860248201527f496e76616c696420636f6e747261637420616464726573730000000000000000604482015290519081900360640190fd5b81815560405173ffffffffffffffffffffffffffffffffffffffff8316907fab64f92ab780ecbf4f3866f57cee465ff36c89450dcce20237ca7a8d81fb7d1390600090a25050565b61071d6107c2565b73ffffffffffffffffffffffffffffffffffffffff163373ffffffffffffffffffffffffffffffffffffffff16146107b657604080517f08c379a000000000000000000000000000000000000000000000000000000000815260206004820152601460248201527f73656e64657220776173206e6f74206f776e6572000000000000000000000000604482015290519081900360640190fd5b6107bf8161081a565b50565b604080517f656970313936372e70726f78792e61646d696e00000000000000000000000000815290519081900360130190207fffffffffffffffffffffffffffffffffffffffffffffffffffffffffffffffff015490565b73ffffffffffffffffffffffffffffffffffffffff811661089c57604080517f08c379a000000000000000000000000000000000000000000000000000000000815260206004820152601160248201527f6f776e65722063616e6e6f742062652030000000000000000000000000000000604482015290519081900360640190fd5b604080517f656970313936372e70726f78792e61646d696e00000000000000000000000000815290519081900360130181207fffffffffffffffffffffffffffffffffffffffffffffffffffffffffffffffff018281559073ffffffffffffffffffffffffffffffffffffffff8316907f50146d0e3c60aa1d17a70635b05494f864e86144a2201275021014fbf08bafe290600090a2505056fea265627a7a72315820b662c5295e3a560a386bdc74eba9628e9853b9ab364e1c9a7da59134549f849764736f6c63430005110032",
        "nonce": "0x2c9",
        "chainId": "0xa4ec"
      },
      "additionalContracts": [],
      "isFixedGasLimit": false
    },
    {
      "hash": "0x2208f7451f5d69204881b6b70efc2c135596f307ab4dd08f6c0576465cd80579",
      "transactionType": "CALL",
      "contractName": "StableTokenGHSProxy",
      "contractAddress": "0xeb97b785f23df6f89e407e5c72c5a8514b15cf56",
      "function": "_setAndInitializeImplementation(address,bytes)",
      "arguments": [
        "0x434563B0604BE100F04B7Ae485BcafE3c9D8850E",
        "0x1e4f0e0300000000000000000000000000000000000000000000000000000000000001200000000000000000000000000000000000000000000000000000000000000160000000000000000000000000000000000000000000000000000000000000000000000000000000000000000000000000000000000000000000000000000000000000000000000000000000000000000000000000000000000000000000000000000000000000000000000000000000000000000000000000000000000000000000000000000000000000000000000000000000000000000000000000000001a000000000000000000000000000000000000000000000000000000000000001e00000000000000000000000000000000000000000000000000000000000000220000000000000000000000000000000000000000000000000000000000000000c63474853202870696c6f74290000000000000000000000000000000000000000000000000000000000000000000000000000000000000000000000000000000463474853000000000000000000000000000000000000000000000000000000000000000000000000000000000000000000000000000000000000000000000001000000000000000000000000c66c4ff9cc785f865b3ed48d493d239a3ed2be9b0000000000000000000000000000000000000000000000000000000000000001000000000000000000000000000000000000000000013da329b63364718000000000000000000000000000000000000000000000000000000000000000000000ffffffffffffffffffff82351691908101906040810160208201356401000000"
      ],
      "transaction": {
        "from": "0x56fd3f2bee130e9867942d0f463a16fbe49b8d81",
        "to": "0xeb97b785f23df6f89e407e5c72c5a8514b15cf56",
        "gas": "0x4999f",
        "value": "0x0",
        "input": "0x03386ba3000000000000000000000000434563b0604be100f04b7ae485bcafe3c9d8850e000000000000000000000000000000000000000000000000000000000000004000000000000000000000000000000000000000000000000000000000000002641e4f0e0300000000000000000000000000000000000000000000000000000000000001200000000000000000000000000000000000000000000000000000000000000160000000000000000000000000000000000000000000000000000000000000000000000000000000000000000000000000000000000000000000000000000000000000000000000000000000000000000000000000000000000000000000000000000000000000000000000000000000000000000000000000000000000000000000000000000000000000000000000000000000000000000000000000000001a000000000000000000000000000000000000000000000000000000000000001e00000000000000000000000000000000000000000000000000000000000000220000000000000000000000000000000000000000000000000000000000000000c63474853202870696c6f74290000000000000000000000000000000000000000000000000000000000000000000000000000000000000000000000000000000463474853000000000000000000000000000000000000000000000000000000000000000000000000000000000000000000000000000000000000000000000001000000000000000000000000c66c4ff9cc785f865b3ed48d493d239a3ed2be9b0000000000000000000000000000000000000000000000000000000000000001000000000000000000000000000000000000000000013da329b63364718000000000000000000000000000000000000000000000000000000000000000000000ffffffffffffffffffff8235169190810190604081016020820135640100000000000000000000000000000000000000000000000000000000000000",
        "nonce": "0x2ca",
        "chainId": "0xa4ec"
      },
      "additionalContracts": [],
      "isFixedGasLimit": false
    },
    {
      "hash": "0xc45ada807b0ea9e99e5e56c0c8ea70afaad6461c0dc5326bfa5ab89ec3dbecb1",
      "transactionType": "CALL",
      "contractName": "StableTokenGHSProxy",
      "contractAddress": "0xeb97b785f23df6f89e407e5c72c5a8514b15cf56",
      "function": null,
      "arguments": null,
      "transaction": {
        "from": "0x56fd3f2bee130e9867942d0f463a16fbe49b8d81",
        "to": "0xeb97b785f23df6f89e407e5c72c5a8514b15cf56",
        "gas": "0x17e48",
        "value": "0x0",
        "input": "0x2c3bb44a000000000000000000000000c66c4ff9cc785f865b3ed48d493d239a3ed2be9b00000000000000000000000000000000000000000000000000000000000000000000000000000000000000000000000000000000000000000000000000000000",
        "nonce": "0x2cb",
        "chainId": "0xa4ec"
      },
      "additionalContracts": [],
      "isFixedGasLimit": false
    }
  ],
  "receipts": [
    {
      "status": "0x1",
      "cumulativeGasUsed": "0x255881",
      "logs": [
        {
          "address": "0xeb97b785f23df6f89e407e5c72c5a8514b15cf56",
          "topics": [
            "0x50146d0e3c60aa1d17a70635b05494f864e86144a2201275021014fbf08bafe2",
            "0x00000000000000000000000056fd3f2bee130e9867942d0f463a16fbe49b8d81"
          ],
          "data": "0x",
          "blockHash": "0xd4f0777b3c083895e3fb9b0ae4ed5a462b2ba1fb64262255e2deb61e25447570",
          "blockNumber": "0x1b1ad80",
          "transactionHash": "0x942572ce2d6b43108116c85582c9529c342989241965efc93f605d0f334a1b29",
          "transactionIndex": "0x10",
          "logIndex": "0x26",
          "removed": false
        }
      ],
      "logsBloom": "0x00001000000000000000000000000000000000000000000020000000000000000000000000000000000000020000410000000000000000000000000000000000000000000000000000000000000000000000000000000000000000001000000000000000000000000000000000000000000000000000100000000000000000000000000000000000000000000000000000000000000000000000000000000000000000000000000000000000000000000000000000000000000000000000000000000000000000000000000000000000000000000000000000000000000000000004000000000000000000000000000000000000000000008000000000000000",
      "type": "0x0",
      "transactionHash": "0x942572ce2d6b43108116c85582c9529c342989241965efc93f605d0f334a1b29",
      "transactionIndex": "0x10",
      "blockHash": "0xd4f0777b3c083895e3fb9b0ae4ed5a462b2ba1fb64262255e2deb61e25447570",
      "blockNumber": "0x1b1ad80",
      "gasUsed": "0x91a9d",
      "effectiveGasPrice": "0x2540be400",
      "from": "0x56fd3f2bee130e9867942d0f463a16fbe49b8d81",
      "to": null,
      "contractAddress": "0xeb97b785f23df6f89e407e5c72c5a8514b15cf56"
    },
    {
      "status": "0x1",
      "cumulativeGasUsed": "0x28ad15",
      "logs": [
        {
          "address": "0xeb97b785f23df6f89e407e5c72c5a8514b15cf56",
          "topics": [
            "0xab64f92ab780ecbf4f3866f57cee465ff36c89450dcce20237ca7a8d81fb7d13",
            "0x000000000000000000000000434563b0604be100f04b7ae485bcafe3c9d8850e"
          ],
          "data": "0x",
          "blockHash": "0xd4f0777b3c083895e3fb9b0ae4ed5a462b2ba1fb64262255e2deb61e25447570",
          "blockNumber": "0x1b1ad80",
          "transactionHash": "0x2208f7451f5d69204881b6b70efc2c135596f307ab4dd08f6c0576465cd80579",
          "transactionIndex": "0x11",
          "logIndex": "0x27",
          "removed": false
        },
        {
          "address": "0xeb97b785f23df6f89e407e5c72c5a8514b15cf56",
          "topics": [
            "0x8be0079c531659141344cd1fd0a4f28419497f9722a3daafe3b4186f6b6457e0",
            "0x0000000000000000000000000000000000000000000000000000000000000000",
            "0x00000000000000000000000056fd3f2bee130e9867942d0f463a16fbe49b8d81"
          ],
          "data": "0x",
          "blockHash": "0xd4f0777b3c083895e3fb9b0ae4ed5a462b2ba1fb64262255e2deb61e25447570",
          "blockNumber": "0x1b1ad80",
          "transactionHash": "0x2208f7451f5d69204881b6b70efc2c135596f307ab4dd08f6c0576465cd80579",
          "transactionIndex": "0x11",
          "logIndex": "0x28",
          "removed": false
        },
        {
          "address": "0xeb97b785f23df6f89e407e5c72c5a8514b15cf56",
          "topics": [
            "0xddf252ad1be2c89b69c2b068fc378daa952ba7f163c4a11628f55a4df523b3ef",
            "0x0000000000000000000000000000000000000000000000000000000000000000",
            "0x000000000000000000000000c66c4ff9cc785f865b3ed48d493d239a3ed2be9b"
          ],
          "data": "0x000000000000000000000000000000000000000000013da329b6336471800000",
          "blockHash": "0xd4f0777b3c083895e3fb9b0ae4ed5a462b2ba1fb64262255e2deb61e25447570",
          "blockNumber": "0x1b1ad80",
          "transactionHash": "0x2208f7451f5d69204881b6b70efc2c135596f307ab4dd08f6c0576465cd80579",
          "transactionIndex": "0x11",
          "logIndex": "0x29",
          "removed": false
        },
        {
          "address": "0xeb97b785f23df6f89e407e5c72c5a8514b15cf56",
          "topics": [
            "0x7f26b83ff96e1f2b6a682f133852f6798a09c465da95921460cefb3847402498"
          ],
          "data": "0x0000000000000000000000000000000000000000000000000000000000000001",
          "blockHash": "0xd4f0777b3c083895e3fb9b0ae4ed5a462b2ba1fb64262255e2deb61e25447570",
          "blockNumber": "0x1b1ad80",
          "transactionHash": "0x2208f7451f5d69204881b6b70efc2c135596f307ab4dd08f6c0576465cd80579",
          "transactionIndex": "0x11",
          "logIndex": "0x2a",
          "removed": false
        }
      ],
      "logsBloom": "0x01001000000000000000000000000000000000000000000020800000000000000000000000000000000000020000010000000000000000000000000000000000000000000000000000000008000000000009000000000000000000000000000000000000020000000000000000000800000000000000000000000010000000400000000000000000000000000000000000000008000080000000000002000000000000000000000000000000000400000000000000000000200000004000000000000022000000000000000000040000000000000000000000000000000020000004000000000000000004000000000000000000000000008000000000000000",
      "type": "0x0",
      "transactionHash": "0x2208f7451f5d69204881b6b70efc2c135596f307ab4dd08f6c0576465cd80579",
      "transactionIndex": "0x11",
      "blockHash": "0xd4f0777b3c083895e3fb9b0ae4ed5a462b2ba1fb64262255e2deb61e25447570",
      "blockNumber": "0x1b1ad80",
      "gasUsed": "0x35494",
      "effectiveGasPrice": "0x2540be400",
      "from": "0x56fd3f2bee130e9867942d0f463a16fbe49b8d81",
      "to": "0xeb97b785f23df6f89e407e5c72c5a8514b15cf56",
      "contractAddress": null
    },
    {
      "status": "0x1",
      "cumulativeGasUsed": "0x29c1d9",
      "logs": [
        {
          "address": "0xeb97b785f23df6f89e407e5c72c5a8514b15cf56",
          "topics": [
            "0x865dab7821134b6eb27cba259b40e33bbc1b898e970a535a18a83147f380a51f"
          ],
          "data": "0x000000000000000000000000c66c4ff9cc785f865b3ed48d493d239a3ed2be9b",
          "blockHash": "0xd4f0777b3c083895e3fb9b0ae4ed5a462b2ba1fb64262255e2deb61e25447570",
          "blockNumber": "0x1b1ad80",
          "transactionHash": "0xc45ada807b0ea9e99e5e56c0c8ea70afaad6461c0dc5326bfa5ab89ec3dbecb1",
          "transactionIndex": "0x12",
          "logIndex": "0x2b",
          "removed": false
        },
        {
          "address": "0xeb97b785f23df6f89e407e5c72c5a8514b15cf56",
          "topics": [
            "0x34edb180d960e50e3657f8fba1bf1f35c399c2bbad42b7e0f6561e6fb4ae3d7c"
          ],
          "data": "0x0000000000000000000000000000000000000000000000000000000000000000",
          "blockHash": "0xd4f0777b3c083895e3fb9b0ae4ed5a462b2ba1fb64262255e2deb61e25447570",
          "blockNumber": "0x1b1ad80",
          "transactionHash": "0xc45ada807b0ea9e99e5e56c0c8ea70afaad6461c0dc5326bfa5ab89ec3dbecb1",
          "transactionIndex": "0x12",
          "logIndex": "0x2c",
          "removed": false
        },
        {
          "address": "0xeb97b785f23df6f89e407e5c72c5a8514b15cf56",
          "topics": [
            "0x403871c8d404db2d13402bd857192acd8f680acd7f2d6e1e5bf2128d013d7eaa"
          ],
          "data": "0x0000000000000000000000000000000000000000000000000000000000000000",
          "blockHash": "0xd4f0777b3c083895e3fb9b0ae4ed5a462b2ba1fb64262255e2deb61e25447570",
          "blockNumber": "0x1b1ad80",
          "transactionHash": "0xc45ada807b0ea9e99e5e56c0c8ea70afaad6461c0dc5326bfa5ab89ec3dbecb1",
          "transactionIndex": "0x12",
          "logIndex": "0x2d",
          "removed": false
        },
        {
          "address": "0xeb97b785f23df6f89e407e5c72c5a8514b15cf56",
          "topics": [
            "0x7f26b83ff96e1f2b6a682f133852f6798a09c465da95921460cefb3847402498"
          ],
          "data": "0x0000000000000000000000000000000000000000000000000000000000000002",
          "blockHash": "0xd4f0777b3c083895e3fb9b0ae4ed5a462b2ba1fb64262255e2deb61e25447570",
          "blockNumber": "0x1b1ad80",
          "transactionHash": "0xc45ada807b0ea9e99e5e56c0c8ea70afaad6461c0dc5326bfa5ab89ec3dbecb1",
          "transactionIndex": "0x12",
          "logIndex": "0x2e",
          "removed": false
        }
      ],
      "logsBloom": "0x0000100000000000040000000000000000000000000000000000000000000000000000000000000000000002000000000000000000000000000000000000000000000000000000000000000100000000000000000000000000000000000000000000000080000000000000000000000000020000000000000000000000080000000000000000000000000000000000000000000000008000000000000000000000000000000000000000000000040000000000000000000000000000000000000000000000000000000000000004000000000000000000000000000000000000000002000000000000000000000000c000000000000000208000000000000000",
      "type": "0x0",
      "transactionHash": "0xc45ada807b0ea9e99e5e56c0c8ea70afaad6461c0dc5326bfa5ab89ec3dbecb1",
      "transactionIndex": "0x12",
      "blockHash": "0xd4f0777b3c083895e3fb9b0ae4ed5a462b2ba1fb64262255e2deb61e25447570",
      "blockNumber": "0x1b1ad80",
      "gasUsed": "0x114c4",
      "effectiveGasPrice": "0x2540be400",
      "from": "0x56fd3f2bee130e9867942d0f463a16fbe49b8d81",
      "to": "0xeb97b785f23df6f89e407e5c72c5a8514b15cf56",
      "contractAddress": null
    }
  ],
  "libraries": [
    "lib/mento-core-2.0.0/contracts/common/linkedlists/AddressLinkedList.sol:AddressLinkedList:0x6200F54D73491d56b8d7A975C9ee18EFb4D518Df",
    "lib/mento-core-2.0.0/contracts/common/linkedlists/AddressSortedLinkedListWithMedian.sol:AddressSortedLinkedListWithMedian:0xED477A99035d0c1e11369F1D7A4e587893cc002B"
  ],
  "pending": [],
  "returns": {},
  "timestamp": 1729779834,
  "chain": 42220,
  "commit": "cc5c4ed"
}